{
  "_format": "hh-sol-artifact-1",
  "contractName": "FrankenPhunks",
  "sourceName": "contracts/FrankenPhunks.sol",
  "abi": [
    {
      "inputs": [
        {
          "internalType": "string",
          "name": "_name",
          "type": "string"
        },
        {
          "internalType": "string",
          "name": "_symbol",
          "type": "string"
        },
        {
          "internalType": "address",
          "name": "_multisig",
          "type": "address"
        },
        {
          "internalType": "address",
          "name": "_initdevWallet",
          "type": "address"
        },
        {
          "internalType": "string",
          "name": "_initNotRevealedUri",
          "type": "string"
        }
      ],
      "stateMutability": "nonpayable",
      "type": "constructor"
    },
    {
      "anonymous": false,
      "inputs": [
        {
          "indexed": true,
          "internalType": "address",
          "name": "owner",
          "type": "address"
        },
        {
          "indexed": true,
          "internalType": "address",
          "name": "approved",
          "type": "address"
        },
        {
          "indexed": true,
          "internalType": "uint256",
          "name": "tokenId",
          "type": "uint256"
        }
      ],
      "name": "Approval",
      "type": "event"
    },
    {
      "anonymous": false,
      "inputs": [
        {
          "indexed": true,
          "internalType": "address",
          "name": "owner",
          "type": "address"
        },
        {
          "indexed": true,
          "internalType": "address",
          "name": "operator",
          "type": "address"
        },
        {
          "indexed": false,
          "internalType": "bool",
          "name": "approved",
          "type": "bool"
        }
      ],
      "name": "ApprovalForAll",
      "type": "event"
    },
    {
      "anonymous": false,
      "inputs": [
        {
          "indexed": true,
          "internalType": "address",
          "name": "previousOwner",
          "type": "address"
        },
        {
          "indexed": true,
          "internalType": "address",
          "name": "newOwner",
          "type": "address"
        }
      ],
      "name": "OwnershipTransferred",
      "type": "event"
    },
    {
      "anonymous": false,
      "inputs": [
        {
          "indexed": true,
          "internalType": "address",
          "name": "from",
          "type": "address"
        },
        {
          "indexed": true,
          "internalType": "address",
          "name": "to",
          "type": "address"
        },
        {
          "indexed": true,
          "internalType": "uint256",
          "name": "tokenId",
          "type": "uint256"
        }
      ],
      "name": "Transfer",
      "type": "event"
    },
    {
      "inputs": [],
      "name": "FREE_MINTS",
      "outputs": [
        {
          "internalType": "uint16",
          "name": "",
          "type": "uint16"
        }
      ],
      "stateMutability": "view",
      "type": "function"
    },
    {
      "inputs": [],
      "name": "MAX_MULTIMINT",
      "outputs": [
        {
          "internalType": "uint8",
          "name": "",
          "type": "uint8"
        }
      ],
      "stateMutability": "view",
      "type": "function"
    },
    {
      "inputs": [],
      "name": "MAX_SUPPLY",
      "outputs": [
        {
          "internalType": "uint16",
          "name": "",
          "type": "uint16"
        }
      ],
      "stateMutability": "view",
      "type": "function"
    },
    {
      "inputs": [],
      "name": "PRICE",
      "outputs": [
        {
          "internalType": "uint256",
          "name": "",
          "type": "uint256"
        }
      ],
      "stateMutability": "view",
      "type": "function"
    },
    {
      "inputs": [
        {
          "internalType": "address",
          "name": "to",
          "type": "address"
        },
        {
          "internalType": "uint256",
          "name": "tokenId",
          "type": "uint256"
        }
      ],
      "name": "approve",
      "outputs": [],
      "stateMutability": "nonpayable",
      "type": "function"
    },
    {
      "inputs": [
        {
          "internalType": "address",
          "name": "owner",
          "type": "address"
        }
      ],
      "name": "balanceOf",
      "outputs": [
        {
          "internalType": "uint256",
          "name": "",
          "type": "uint256"
        }
      ],
      "stateMutability": "view",
      "type": "function"
    },
    {
      "inputs": [],
      "name": "baseExtension",
      "outputs": [
        {
          "internalType": "string",
          "name": "",
          "type": "string"
        }
      ],
      "stateMutability": "view",
      "type": "function"
    },
    {
      "inputs": [
        {
          "internalType": "uint256",
          "name": "tokenId",
          "type": "uint256"
        }
      ],
      "name": "getApproved",
      "outputs": [
        {
          "internalType": "address",
          "name": "",
          "type": "address"
        }
      ],
      "stateMutability": "view",
      "type": "function"
    },
    {
      "inputs": [
        {
          "internalType": "address",
          "name": "owner",
          "type": "address"
        },
        {
          "internalType": "address",
          "name": "operator",
          "type": "address"
        }
      ],
      "name": "isApprovedForAll",
      "outputs": [
        {
          "internalType": "bool",
          "name": "",
          "type": "bool"
        }
      ],
      "stateMutability": "view",
      "type": "function"
    },
    {
      "inputs": [
        {
          "internalType": "uint16",
          "name": "count",
          "type": "uint16"
        }
      ],
      "name": "mint",
      "outputs": [],
      "stateMutability": "payable",
      "type": "function"
    },
    {
      "inputs": [],
      "name": "name",
      "outputs": [
        {
          "internalType": "string",
          "name": "",
          "type": "string"
        }
      ],
      "stateMutability": "view",
      "type": "function"
    },
    {
      "inputs": [],
      "name": "notRevealedUri",
      "outputs": [
        {
          "internalType": "string",
          "name": "",
          "type": "string"
        }
      ],
      "stateMutability": "view",
      "type": "function"
    },
    {
      "inputs": [],
      "name": "owner",
      "outputs": [
        {
          "internalType": "address",
          "name": "",
          "type": "address"
        }
      ],
      "stateMutability": "view",
      "type": "function"
    },
    {
      "inputs": [
        {
          "internalType": "uint256",
          "name": "tokenId",
          "type": "uint256"
        }
      ],
      "name": "ownerOf",
      "outputs": [
        {
          "internalType": "address",
          "name": "",
          "type": "address"
        }
      ],
      "stateMutability": "view",
      "type": "function"
    },
    {
      "inputs": [],
      "name": "renounceOwnership",
      "outputs": [],
      "stateMutability": "nonpayable",
      "type": "function"
    },
    {
      "inputs": [],
      "name": "reveal",
      "outputs": [],
      "stateMutability": "nonpayable",
      "type": "function"
    },
    {
      "inputs": [],
      "name": "revealed",
      "outputs": [
        {
          "internalType": "bool",
          "name": "",
          "type": "bool"
        }
      ],
      "stateMutability": "view",
      "type": "function"
    },
    {
      "inputs": [
        {
          "internalType": "address",
          "name": "from",
          "type": "address"
        },
        {
          "internalType": "address",
          "name": "to",
          "type": "address"
        },
        {
          "internalType": "uint256",
          "name": "tokenId",
          "type": "uint256"
        }
      ],
      "name": "safeTransferFrom",
      "outputs": [],
      "stateMutability": "nonpayable",
      "type": "function"
    },
    {
      "inputs": [
        {
          "internalType": "address",
          "name": "from",
          "type": "address"
        },
        {
          "internalType": "address",
          "name": "to",
          "type": "address"
        },
        {
          "internalType": "uint256",
          "name": "tokenId",
          "type": "uint256"
        },
        {
          "internalType": "bytes",
          "name": "_data",
          "type": "bytes"
        }
      ],
      "name": "safeTransferFrom",
      "outputs": [],
      "stateMutability": "nonpayable",
      "type": "function"
    },
    {
      "inputs": [
        {
          "internalType": "address",
          "name": "operator",
          "type": "address"
        },
        {
          "internalType": "bool",
          "name": "approved",
          "type": "bool"
        }
      ],
      "name": "setApprovalForAll",
      "outputs": [],
      "stateMutability": "nonpayable",
      "type": "function"
    },
    {
      "inputs": [
        {
          "internalType": "string",
          "name": "_newBaseExtension",
          "type": "string"
        }
      ],
      "name": "setBaseExtension",
      "outputs": [],
      "stateMutability": "nonpayable",
      "type": "function"
    },
    {
      "inputs": [
        {
          "internalType": "string",
          "name": "_newBaseURI",
          "type": "string"
        }
      ],
      "name": "setBaseURI",
      "outputs": [],
      "stateMutability": "nonpayable",
      "type": "function"
    },
    {
      "inputs": [
        {
          "internalType": "address",
          "name": "_newDevWallet",
          "type": "address"
        }
      ],
      "name": "setDevWallet",
      "outputs": [],
      "stateMutability": "view",
      "type": "function"
    },
    {
      "inputs": [
        {
          "internalType": "string",
          "name": "_notRevealedURI",
          "type": "string"
        }
      ],
      "name": "setNotRevealedURI",
      "outputs": [],
      "stateMutability": "nonpayable",
      "type": "function"
    },
    {
      "inputs": [
        {
          "internalType": "bytes4",
          "name": "interfaceId",
          "type": "bytes4"
        }
      ],
      "name": "supportsInterface",
      "outputs": [
        {
          "internalType": "bool",
          "name": "",
          "type": "bool"
        }
      ],
      "stateMutability": "view",
      "type": "function"
    },
    {
      "inputs": [],
      "name": "symbol",
      "outputs": [
        {
          "internalType": "string",
          "name": "",
          "type": "string"
        }
      ],
      "stateMutability": "view",
      "type": "function"
    },
    {
      "inputs": [
        {
          "internalType": "uint256",
          "name": "index",
          "type": "uint256"
        }
      ],
      "name": "tokenByIndex",
      "outputs": [
        {
          "internalType": "uint256",
          "name": "",
          "type": "uint256"
        }
      ],
      "stateMutability": "view",
      "type": "function"
    },
    {
      "inputs": [
        {
          "internalType": "address",
          "name": "owner",
          "type": "address"
        },
        {
          "internalType": "uint256",
          "name": "index",
          "type": "uint256"
        }
      ],
      "name": "tokenOfOwnerByIndex",
      "outputs": [
        {
          "internalType": "uint256",
          "name": "",
          "type": "uint256"
        }
      ],
      "stateMutability": "view",
      "type": "function"
    },
    {
      "inputs": [
        {
          "internalType": "uint256",
          "name": "_tokenId",
          "type": "uint256"
        }
      ],
      "name": "tokenURI",
      "outputs": [
        {
          "internalType": "string",
          "name": "",
          "type": "string"
        }
      ],
      "stateMutability": "view",
      "type": "function"
    },
    {
      "inputs": [],
      "name": "totalSupply",
      "outputs": [
        {
          "internalType": "uint256",
          "name": "",
          "type": "uint256"
        }
      ],
      "stateMutability": "view",
      "type": "function"
    },
    {
      "inputs": [
        {
          "internalType": "address",
          "name": "from",
          "type": "address"
        },
        {
          "internalType": "address",
          "name": "to",
          "type": "address"
        },
        {
          "internalType": "uint256",
          "name": "tokenId",
          "type": "uint256"
        }
      ],
      "name": "transferFrom",
      "outputs": [],
      "stateMutability": "nonpayable",
      "type": "function"
    },
    {
      "inputs": [
        {
          "internalType": "address",
          "name": "newOwner",
          "type": "address"
        }
      ],
      "name": "transferOwnership",
      "outputs": [],
      "stateMutability": "nonpayable",
      "type": "function"
    },
    {
      "inputs": [],
      "name": "withdraw",
      "outputs": [],
      "stateMutability": "payable",
      "type": "function"
    },
    {
      "stateMutability": "payable",
      "type": "receive"
    }
  ],
  "bytecode": "0x600b805460ff60a01b1916905560c06040526005608081905264173539b7b760d91b60a09081526200003591600e919062000244565b503480156200004357600080fd5b5060405162002dfa38038062002dfa8339810160408190526200006691620003be565b8451859085906200007f90600090602085019062000244565b5080516200009590600190602084019062000244565b50506001600a5550620000a833620000ca565b620000b3816200011c565b620000be8362000184565b50620004c89350505050565b600b80546001600160a01b038381166001600160a01b0319831681179093556040519116919082907f8be0079c531659141344cd1fd0a4f28419497f9722a3daafe3b4186f6b6457e090600090a35050565b600b546001600160a01b031633146200016b5760405162461bcd60e51b8152602060048201819052602482015260008051602062002dda83398151915260448201526064015b60405180910390fd5b80516200018090600c90602084019062000244565b5050565b600b546001600160a01b03163314620001cf5760405162461bcd60e51b8152602060048201819052602482015260008051602062002dda833981519152604482015260640162000162565b6001600160a01b038116620002365760405162461bcd60e51b815260206004820152602660248201527f4f776e61626c653a206e6577206f776e657220697320746865207a65726f206160448201526564647265737360d01b606482015260840162000162565b6200024181620000ca565b50565b828054620002529062000475565b90600052602060002090601f016020900481019282620002765760008555620002c1565b82601f106200029157805160ff1916838001178555620002c1565b82800160010185558215620002c1579182015b82811115620002c1578251825591602001919060010190620002a4565b50620002cf929150620002d3565b5090565b5b80821115620002cf5760008155600101620002d4565b80516001600160a01b03811681146200030257600080fd5b919050565b600082601f8301126200031957600080fd5b81516001600160401b0380821115620003365762000336620004b2565b604051601f8301601f19908116603f01168101908282118183101715620003615762000361620004b2565b816040528381526020925086838588010111156200037e57600080fd5b600091505b83821015620003a2578582018301518183018401529082019062000383565b83821115620003b45760008385830101525b9695505050505050565b600080600080600060a08688031215620003d757600080fd5b85516001600160401b0380821115620003ef57600080fd5b620003fd89838a0162000307565b965060208801519150808211156200041457600080fd5b6200042289838a0162000307565b95506200043260408901620002ea565b94506200044260608901620002ea565b935060808801519150808211156200045957600080fd5b50620004688882890162000307565b9150509295509295909350565b600181811c908216806200048a57607f821691505b60208210811415620004ac57634e487b7160e01b600052602260045260246000fd5b50919050565b634e487b7160e01b600052604160045260246000fd5b61290280620004d86000396000f3fe6080604052600436106102025760003560e01c80636352211e1161011d578063a475b5dd116100b0578063c87b56dd1161007f578063e985e9c511610064578063e985e9c5146105ff578063f2c4ce1e14610648578063f2fde38b1461066857600080fd5b8063c87b56dd146105bf578063da3ef23f146105df57600080fd5b8063a475b5dd1461054e578063b88d4fde14610563578063b8fc105114610583578063c6682862146105aa57600080fd5b80638d859f3e116100ec5780638d859f3e146104e05780638da5cb5b146104fb57806395d89b4114610519578063a22cb4651461052e57600080fd5b80636352211e1461047557806370a0823114610495578063715018a6146104b5578063764267b6146104ca57600080fd5b806323cf0a221161019557806342842e0e1161016457806342842e0e146103f45780634f6ccce714610414578063518302271461043457806355f804b31461045557600080fd5b806323cf0a22146103905780632f745c59146103a357806332cb6b0c146103c35780633ccfd60b146103ec57600080fd5b8063095ea7b3116101d1578063095ea7b31461030f57806318160ddd146103315780631f53ac021461035057806323b872dd1461037057600080fd5b806301ffc9a71461026b57806306fdde03146102a0578063081812fc146102c2578063081c8c44146102fa57600080fd5b36610266576002600a54141561025f5760405162461bcd60e51b815260206004820152601f60248201527f5265656e7472616e637947756172643a207265656e7472616e742063616c6c0060448201526064015b60405180910390fd5b6001600a55005b600080fd5b34801561027757600080fd5b5061028b610286366004612551565b610688565b60405190151581526020015b60405180910390f35b3480156102ac57600080fd5b506102b56106cc565b604051610297919061273d565b3480156102ce57600080fd5b506102e26102dd3660046125f8565b61075e565b6040516001600160a01b039091168152602001610297565b34801561030657600080fd5b506102b56107f3565b34801561031b57600080fd5b5061032f61032a366004612527565b610881565b005b34801561033d57600080fd5b506008545b604051908152602001610297565b34801561035c57600080fd5b5061032f61036b3660046123e5565b6109b3565b34801561037c57600080fd5b5061032f61038b366004612433565b610a10565b61032f61039e3660046125d4565b610a97565b3480156103af57600080fd5b506103426103be366004612527565b610cd2565b3480156103cf57600080fd5b506103d9610d0581565b60405161ffff9091168152602001610297565b61032f610d7a565b34801561040057600080fd5b5061032f61040f366004612433565b610e6f565b34801561042057600080fd5b5061034261042f3660046125f8565b610e8a565b34801561044057600080fd5b50600b5461028b90600160a01b900460ff1681565b34801561046157600080fd5b5061032f61047036600461258b565b610f2e565b34801561048157600080fd5b506102e26104903660046125f8565b610f9f565b3480156104a157600080fd5b506103426104b03660046123e5565b61102a565b3480156104c157600080fd5b5061032f6110c4565b3480156104d657600080fd5b506103d961045781565b3480156104ec57600080fd5b506103426671afd498d0000081565b34801561050757600080fd5b50600b546001600160a01b03166102e2565b34801561052557600080fd5b506102b561112a565b34801561053a57600080fd5b5061032f6105493660046124eb565b611139565b34801561055a57600080fd5b5061032f611144565b34801561056f57600080fd5b5061032f61057e36600461246f565b6111ce565b34801561058f57600080fd5b50610598600781565b60405160ff9091168152602001610297565b3480156105b657600080fd5b506102b561125c565b3480156105cb57600080fd5b506102b56105da3660046125f8565b611269565b3480156105eb57600080fd5b5061032f6105fa36600461258b565b6113f8565b34801561060b57600080fd5b5061028b61061a366004612400565b6001600160a01b03918216600090815260056020908152604080832093909416825291909152205460ff1690565b34801561065457600080fd5b5061032f61066336600461258b565b611465565b34801561067457600080fd5b5061032f6106833660046123e5565b6114d2565b60006001600160e01b031982167f780e9d630000000000000000000000000000000000000000000000000000000014806106c657506106c6826115b1565b92915050565b6060600080546106db906127de565b80601f0160208091040260200160405190810160405280929190818152602001828054610707906127de565b80156107545780601f1061072957610100808354040283529160200191610754565b820191906000526020600020905b81548152906001019060200180831161073757829003601f168201915b5050505050905090565b6000818152600260205260408120546001600160a01b03166107d75760405162461bcd60e51b815260206004820152602c60248201527f4552433732313a20617070726f76656420717565727920666f72206e6f6e657860448201526b34b9ba32b73a103a37b5b2b760a11b6064820152608401610256565b506000908152600460205260409020546001600160a01b031690565b600c8054610800906127de565b80601f016020809104026020016040519081016040528092919081815260200182805461082c906127de565b80156108795780601f1061084e57610100808354040283529160200191610879565b820191906000526020600020905b81548152906001019060200180831161085c57829003601f168201915b505050505081565b600061088c82610f9f565b9050806001600160a01b0316836001600160a01b031614156109165760405162461bcd60e51b815260206004820152602160248201527f4552433732313a20617070726f76616c20746f2063757272656e74206f776e6560448201527f72000000000000000000000000000000000000000000000000000000000000006064820152608401610256565b336001600160a01b03821614806109325750610932813361061a565b6109a45760405162461bcd60e51b815260206004820152603860248201527f4552433732313a20617070726f76652063616c6c6572206973206e6f74206f7760448201527f6e6572206e6f7220617070726f76656420666f7220616c6c00000000000000006064820152608401610256565b6109ae838361164c565b505050565b600b546001600160a01b03163314610a0d5760405162461bcd60e51b815260206004820181905260248201527f4f776e61626c653a2063616c6c6572206973206e6f7420746865206f776e65726044820152606401610256565b50565b610a1a33826116c7565b610a8c5760405162461bcd60e51b815260206004820152603160248201527f4552433732313a207472616e736665722063616c6c6572206973206e6f74206f60448201527f776e6572206e6f7220617070726f7665640000000000000000000000000000006064820152608401610256565b6109ae8383836117be565b6002600a541415610aea5760405162461bcd60e51b815260206004820152601f60248201527f5265656e7472616e637947756172643a207265656e7472616e742063616c6c006044820152606401610256565b6002600a55610d05600161ffff8316610b0260085490565b610b0c9190612750565b610b16919061279b565b10610b635760405162461bcd60e51b815260206004820152601260248201527f45786365656473206d617820737570706c7900000000000000000000000000006044820152606401610256565b600761ffff82161115610bb85760405162461bcd60e51b815260206004820152601860248201527f4d696e74206174206d6f7374203720617420612074696d6500000000000000006044820152606401610256565b610457610bc460085490565b11610bfe5760005b8161ffff16811015610bfc57610bea33610be560085490565b6119a3565b80610bf481612819565b915050610bcc565b505b610457610c0a60085490565b1115610cca57610c2561ffff82166671afd498d0000061277c565b341015610c9a5760405162461bcd60e51b815260206004820152602860248201527f496e73756666696369656e74207061796d656e742c20302e303332204554482060448201527f706572206974656d0000000000000000000000000000000000000000000000006064820152608401610256565b60005b8161ffff16811015610cc857610cb633610be560085490565b80610cc081612819565b915050610c9d565b505b506001600a55565b6000610cdd8361102a565b8210610d515760405162461bcd60e51b815260206004820152602b60248201527f455243373231456e756d657261626c653a206f776e657220696e646578206f7560448201527f74206f6620626f756e64730000000000000000000000000000000000000000006064820152608401610256565b506001600160a01b03919091166000908152600660209081526040808320938352929052205490565b6002600a541415610dcd5760405162461bcd60e51b815260206004820152601f60248201527f5265656e7472616e637947756172643a207265656e7472616e742063616c6c006044820152606401610256565b6002600a55600b546001600160a01b03163314610e2c5760405162461bcd60e51b815260206004820181905260248201527f4f776e61626c653a2063616c6c6572206973206e6f7420746865206f776e65726044820152606401610256565b476000610e3b6105dc83612768565b600f54909150610e54906001600160a01b031682611afe565b610cc8610e69600b546001600160a01b031690565b83611afe565b6109ae838383604051806020016040528060008152506111ce565b6000610e9560085490565b8210610f095760405162461bcd60e51b815260206004820152602c60248201527f455243373231456e756d657261626c653a20676c6f62616c20696e646578206f60448201527f7574206f6620626f756e647300000000000000000000000000000000000000006064820152608401610256565b60088281548110610f1c57610f1c61288a565b90600052602060002001549050919050565b600b546001600160a01b03163314610f885760405162461bcd60e51b815260206004820181905260248201527f4f776e61626c653a2063616c6c6572206973206e6f7420746865206f776e65726044820152606401610256565b8051610f9b90600d9060208401906122ba565b5050565b6000818152600260205260408120546001600160a01b0316806106c65760405162461bcd60e51b815260206004820152602960248201527f4552433732313a206f776e657220717565727920666f72206e6f6e657869737460448201527f656e7420746f6b656e00000000000000000000000000000000000000000000006064820152608401610256565b60006001600160a01b0382166110a85760405162461bcd60e51b815260206004820152602a60248201527f4552433732313a2062616c616e636520717565727920666f7220746865207a6560448201527f726f2061646472657373000000000000000000000000000000000000000000006064820152608401610256565b506001600160a01b031660009081526003602052604090205490565b600b546001600160a01b0316331461111e5760405162461bcd60e51b815260206004820181905260248201527f4f776e61626c653a2063616c6c6572206973206e6f7420746865206f776e65726044820152606401610256565b6111286000611c17565b565b6060600180546106db906127de565b610f9b338383611c76565b600b546001600160a01b0316331461119e5760405162461bcd60e51b815260206004820181905260248201527f4f776e61626c653a2063616c6c6572206973206e6f7420746865206f776e65726044820152606401610256565b600b80547fffffffffffffffffffffff00ffffffffffffffffffffffffffffffffffffffff16600160a01b179055565b6111d833836116c7565b61124a5760405162461bcd60e51b815260206004820152603160248201527f4552433732313a207472616e736665722063616c6c6572206973206e6f74206f60448201527f776e6572206e6f7220617070726f7665640000000000000000000000000000006064820152608401610256565b61125684848484611d45565b50505050565b600e8054610800906127de565b6000818152600260205260409020546060906001600160a01b03166112f65760405162461bcd60e51b815260206004820152602f60248201527f4552433732314d657461646174613a2055524920717565727920666f72206e6f60448201527f6e6578697374656e7420746f6b656e00000000000000000000000000000000006064820152608401610256565b600b54600160a01b900460ff1661139957600c8054611314906127de565b80601f0160208091040260200160405190810160405280929190818152602001828054611340906127de565b801561138d5780601f106113625761010080835404028352916020019161138d565b820191906000526020600020905b81548152906001019060200180831161137057829003601f168201915b50505050509050919050565b60006113a3611dce565b905060008151116113c357604051806020016040528060008152506113f1565b806113cd84611ddd565b600e6040516020016113e19392919061263d565b6040516020818303038152906040525b9392505050565b600b546001600160a01b031633146114525760405162461bcd60e51b815260206004820181905260248201527f4f776e61626c653a2063616c6c6572206973206e6f7420746865206f776e65726044820152606401610256565b8051610f9b90600e9060208401906122ba565b600b546001600160a01b031633146114bf5760405162461bcd60e51b815260206004820181905260248201527f4f776e61626c653a2063616c6c6572206973206e6f7420746865206f776e65726044820152606401610256565b8051610f9b90600c9060208401906122ba565b600b546001600160a01b0316331461152c5760405162461bcd60e51b815260206004820181905260248201527f4f776e61626c653a2063616c6c6572206973206e6f7420746865206f776e65726044820152606401610256565b6001600160a01b0381166115a85760405162461bcd60e51b815260206004820152602660248201527f4f776e61626c653a206e6577206f776e657220697320746865207a65726f206160448201527f64647265737300000000000000000000000000000000000000000000000000006064820152608401610256565b610a0d81611c17565b60006001600160e01b031982167f80ac58cd00000000000000000000000000000000000000000000000000000000148061161457506001600160e01b031982167f5b5e139f00000000000000000000000000000000000000000000000000000000145b806106c657507f01ffc9a7000000000000000000000000000000000000000000000000000000006001600160e01b03198316146106c6565b6000818152600460205260409020805473ffffffffffffffffffffffffffffffffffffffff19166001600160a01b038416908117909155819061168e82610f9f565b6001600160a01b03167f8c5be1e5ebec7d5bd14f71427d1e84f3dd0314c0f7b2291e5b200ac8c7c3b92560405160405180910390a45050565b6000818152600260205260408120546001600160a01b03166117405760405162461bcd60e51b815260206004820152602c60248201527f4552433732313a206f70657261746f7220717565727920666f72206e6f6e657860448201526b34b9ba32b73a103a37b5b2b760a11b6064820152608401610256565b600061174b83610f9f565b9050806001600160a01b0316846001600160a01b031614806117865750836001600160a01b031661177b8461075e565b6001600160a01b0316145b806117b657506001600160a01b0380821660009081526005602090815260408083209388168352929052205460ff165b949350505050565b826001600160a01b03166117d182610f9f565b6001600160a01b03161461184d5760405162461bcd60e51b815260206004820152602960248201527f4552433732313a207472616e73666572206f6620746f6b656e2074686174206960448201527f73206e6f74206f776e00000000000000000000000000000000000000000000006064820152608401610256565b6001600160a01b0382166118c85760405162461bcd60e51b8152602060048201526024808201527f4552433732313a207472616e7366657220746f20746865207a65726f2061646460448201527f72657373000000000000000000000000000000000000000000000000000000006064820152608401610256565b6118d3838383611f0f565b6118de60008261164c565b6001600160a01b038316600090815260036020526040812080546001929061190790849061279b565b90915550506001600160a01b0382166000908152600360205260408120805460019290611935908490612750565b9091555050600081815260026020526040808220805473ffffffffffffffffffffffffffffffffffffffff19166001600160a01b0386811691821790925591518493918716917fddf252ad1be2c89b69c2b068fc378daa952ba7f163c4a11628f55a4df523b3ef91a4505050565b6001600160a01b0382166119f95760405162461bcd60e51b815260206004820181905260248201527f4552433732313a206d696e7420746f20746865207a65726f20616464726573736044820152606401610256565b6000818152600260205260409020546001600160a01b031615611a5e5760405162461bcd60e51b815260206004820152601c60248201527f4552433732313a20746f6b656e20616c7265616479206d696e746564000000006044820152606401610256565b611a6a60008383611f0f565b6001600160a01b0382166000908152600360205260408120805460019290611a93908490612750565b9091555050600081815260026020526040808220805473ffffffffffffffffffffffffffffffffffffffff19166001600160a01b03861690811790915590518392907fddf252ad1be2c89b69c2b068fc378daa952ba7f163c4a11628f55a4df523b3ef908290a45050565b80471015611b4e5760405162461bcd60e51b815260206004820152601d60248201527f416464726573733a20696e73756666696369656e742062616c616e63650000006044820152606401610256565b6000826001600160a01b03168260405160006040518083038185875af1925050503d8060008114611b9b576040519150601f19603f3d011682016040523d82523d6000602084013e611ba0565b606091505b50509050806109ae5760405162461bcd60e51b815260206004820152603a60248201527f416464726573733a20756e61626c6520746f2073656e642076616c75652c207260448201527f6563697069656e74206d617920686176652072657665727465640000000000006064820152608401610256565b600b80546001600160a01b0383811673ffffffffffffffffffffffffffffffffffffffff19831681179093556040519116919082907f8be0079c531659141344cd1fd0a4f28419497f9722a3daafe3b4186f6b6457e090600090a35050565b816001600160a01b0316836001600160a01b03161415611cd85760405162461bcd60e51b815260206004820152601960248201527f4552433732313a20617070726f766520746f2063616c6c6572000000000000006044820152606401610256565b6001600160a01b03838116600081815260056020908152604080832094871680845294825291829020805460ff191686151590811790915591519182527f17307eab39ab6107e8899845ad3d59bd9653f200f220920489ca2b5937696c31910160405180910390a3505050565b611d508484846117be565b611d5c84848484611fc7565b6112565760405162461bcd60e51b815260206004820152603260248201527f4552433732313a207472616e7366657220746f206e6f6e20455243373231526560448201527f63656976657220696d706c656d656e74657200000000000000000000000000006064820152608401610256565b6060600d80546106db906127de565b606081611e1d57505060408051808201909152600181527f3000000000000000000000000000000000000000000000000000000000000000602082015290565b8160005b8115611e475780611e3181612819565b9150611e409050600a83612768565b9150611e21565b60008167ffffffffffffffff811115611e6257611e626128a0565b6040519080825280601f01601f191660200182016040528015611e8c576020820181803683370190505b5090505b84156117b657611ea160018361279b565b9150611eae600a86612834565b611eb9906030612750565b60f81b818381518110611ece57611ece61288a565b60200101907effffffffffffffffffffffffffffffffffffffffffffffffffffffffffffff1916908160001a905350611f08600a86612768565b9450611e90565b6001600160a01b038316611f6a57611f6581600880546000838152600960205260408120829055600182018355919091527ff3f7a9fe364faab93b216da50a3214154f22a0a2b415b23a84c8169e8b636ee30155565b611f8d565b816001600160a01b0316836001600160a01b031614611f8d57611f8d838261212a565b6001600160a01b038216611fa4576109ae816121c7565b826001600160a01b0316826001600160a01b0316146109ae576109ae8282612276565b60006001600160a01b0384163b1561211f57604051630a85bd0160e11b81526001600160a01b0385169063150b7a029061200b903390899088908890600401612701565b602060405180830381600087803b15801561202557600080fd5b505af1925050508015612055575060408051601f3d908101601f191682019092526120529181019061256e565b60015b612105573d808015612083576040519150601f19603f3d011682016040523d82523d6000602084013e612088565b606091505b5080516120fd5760405162461bcd60e51b815260206004820152603260248201527f4552433732313a207472616e7366657220746f206e6f6e20455243373231526560448201527f63656976657220696d706c656d656e74657200000000000000000000000000006064820152608401610256565b805181602001fd5b6001600160e01b031916630a85bd0160e11b1490506117b6565b506001949350505050565b600060016121378461102a565b612141919061279b565b600083815260076020526040902054909150808214612194576001600160a01b03841660009081526006602090815260408083208584528252808320548484528184208190558352600790915290208190555b5060009182526007602090815260408084208490556001600160a01b039094168352600681528383209183525290812055565b6008546000906121d99060019061279b565b600083815260096020526040812054600880549394509092849081106122015761220161288a565b9060005260206000200154905080600883815481106122225761222261288a565b600091825260208083209091019290925582815260099091526040808220849055858252812055600880548061225a5761225a612874565b6001900381819060005260206000200160009055905550505050565b60006122818361102a565b6001600160a01b039093166000908152600660209081526040808320868452825280832085905593825260079052919091209190915550565b8280546122c6906127de565b90600052602060002090601f0160209004810192826122e8576000855561232e565b82601f1061230157805160ff191683800117855561232e565b8280016001018555821561232e579182015b8281111561232e578251825591602001919060010190612313565b5061233a92915061233e565b5090565b5b8082111561233a576000815560010161233f565b600067ffffffffffffffff8084111561236e5761236e6128a0565b604051601f8501601f19908116603f01168101908282118183101715612396576123966128a0565b816040528093508581528686860111156123af57600080fd5b858560208301376000602087830101525050509392505050565b80356001600160a01b03811681146123e057600080fd5b919050565b6000602082840312156123f757600080fd5b6113f1826123c9565b6000806040838503121561241357600080fd5b61241c836123c9565b915061242a602084016123c9565b90509250929050565b60008060006060848603121561244857600080fd5b612451846123c9565b925061245f602085016123c9565b9150604084013590509250925092565b6000806000806080858703121561248557600080fd5b61248e856123c9565b935061249c602086016123c9565b925060408501359150606085013567ffffffffffffffff8111156124bf57600080fd5b8501601f810187136124d057600080fd5b6124df87823560208401612353565b91505092959194509250565b600080604083850312156124fe57600080fd5b612507836123c9565b91506020830135801515811461251c57600080fd5b809150509250929050565b6000806040838503121561253a57600080fd5b612543836123c9565b946020939093013593505050565b60006020828403121561256357600080fd5b81356113f1816128b6565b60006020828403121561258057600080fd5b81516113f1816128b6565b60006020828403121561259d57600080fd5b813567ffffffffffffffff8111156125b457600080fd5b8201601f810184136125c557600080fd5b6117b684823560208401612353565b6000602082840312156125e657600080fd5b813561ffff811681146113f157600080fd5b60006020828403121561260a57600080fd5b5035919050565b600081518084526126298160208601602086016127b2565b601f01601f19169290920160200192915050565b6000845160206126508285838a016127b2565b8551918401916126638184848a016127b2565b8554920191600090600181811c908083168061268057607f831692505b85831081141561269e57634e487b7160e01b85526022600452602485fd5b8080156126b257600181146126c3576126f0565b60ff198516885283880195506126f0565b60008b81526020902060005b858110156126e85781548a8201529084019088016126cf565b505083880195505b50939b9a5050505050505050505050565b60006001600160a01b038087168352808616602084015250836040830152608060608301526127336080830184612611565b9695505050505050565b6020815260006113f16020830184612611565b6000821982111561276357612763612848565b500190565b6000826127775761277761285e565b500490565b600081600019048311821515161561279657612796612848565b500290565b6000828210156127ad576127ad612848565b500390565b60005b838110156127cd5781810151838201526020016127b5565b838111156112565750506000910152565b600181811c908216806127f257607f821691505b6020821081141561281357634e487b7160e01b600052602260045260246000fd5b50919050565b600060001982141561282d5761282d612848565b5060010190565b6000826128435761284361285e565b500690565b634e487b7160e01b600052601160045260246000fd5b634e487b7160e01b600052601260045260246000fd5b634e487b7160e01b600052603160045260246000fd5b634e487b7160e01b600052603260045260246000fd5b634e487b7160e01b600052604160045260246000fd5b6001600160e01b031981168114610a0d57600080fdfea264697066735822122072aee5666ad78389b772bb427e66a08c760c6b08ba1fb778f9fb42d37b8ae21164736f6c634300080700334f776e61626c653a2063616c6c6572206973206e6f7420746865206f776e6572",
  "linkReferences": {},
  "deployedLinkReferences": {}
}