{
  "_format": "hh-sol-artifact-1",
  "contractName": "FrankenPhunks",
  "sourceName": "contracts/FrankenPhunks.sol",
  "abi": [
    {
      "inputs": [
        {
          "internalType": "string",
          "name": "_name",
          "type": "string"
        },
        {
          "internalType": "string",
          "name": "_symbol",
          "type": "string"
        },
        {
          "internalType": "address",
          "name": "_multisig",
          "type": "address"
        },
        {
          "internalType": "string",
          "name": "_initNotRevealedUri",
          "type": "string"
        }
      ],
      "stateMutability": "nonpayable",
      "type": "constructor"
    },
    {
      "anonymous": false,
      "inputs": [
        {
          "indexed": true,
          "internalType": "address",
          "name": "owner",
          "type": "address"
        },
        {
          "indexed": true,
          "internalType": "address",
          "name": "approved",
          "type": "address"
        },
        {
          "indexed": true,
          "internalType": "uint256",
          "name": "tokenId",
          "type": "uint256"
        }
      ],
      "name": "Approval",
      "type": "event"
    },
    {
      "anonymous": false,
      "inputs": [
        {
          "indexed": true,
          "internalType": "address",
          "name": "owner",
          "type": "address"
        },
        {
          "indexed": true,
          "internalType": "address",
          "name": "operator",
          "type": "address"
        },
        {
          "indexed": false,
          "internalType": "bool",
          "name": "approved",
          "type": "bool"
        }
      ],
      "name": "ApprovalForAll",
      "type": "event"
    },
    {
      "anonymous": false,
      "inputs": [
        {
          "indexed": true,
          "internalType": "address",
          "name": "previousOwner",
          "type": "address"
        },
        {
          "indexed": true,
          "internalType": "address",
          "name": "newOwner",
          "type": "address"
        }
      ],
      "name": "OwnershipTransferred",
      "type": "event"
    },
    {
      "anonymous": false,
      "inputs": [
        {
          "indexed": true,
          "internalType": "address",
          "name": "from",
          "type": "address"
        },
        {
          "indexed": true,
          "internalType": "address",
          "name": "to",
          "type": "address"
        },
        {
          "indexed": true,
          "internalType": "uint256",
          "name": "tokenId",
          "type": "uint256"
        }
      ],
      "name": "Transfer",
      "type": "event"
    },
    {
      "inputs": [],
      "name": "FREE_MINTS",
      "outputs": [
        {
          "internalType": "uint16",
          "name": "",
          "type": "uint16"
        }
      ],
      "stateMutability": "view",
      "type": "function"
    },
    {
      "inputs": [],
      "name": "MAX_MULTIMINT",
      "outputs": [
        {
          "internalType": "uint8",
          "name": "",
          "type": "uint8"
        }
      ],
      "stateMutability": "view",
      "type": "function"
    },
    {
      "inputs": [],
      "name": "MAX_SUPPLY",
      "outputs": [
        {
          "internalType": "uint16",
          "name": "",
          "type": "uint16"
        }
      ],
      "stateMutability": "view",
      "type": "function"
    },
    {
      "inputs": [],
      "name": "PRICE",
      "outputs": [
        {
          "internalType": "uint256",
          "name": "",
          "type": "uint256"
        }
      ],
      "stateMutability": "view",
      "type": "function"
    },
    {
      "inputs": [
        {
          "internalType": "address",
          "name": "to",
          "type": "address"
        },
        {
          "internalType": "uint256",
          "name": "tokenId",
          "type": "uint256"
        }
      ],
      "name": "approve",
      "outputs": [],
      "stateMutability": "nonpayable",
      "type": "function"
    },
    {
      "inputs": [
        {
          "internalType": "address",
          "name": "owner",
          "type": "address"
        }
      ],
      "name": "balanceOf",
      "outputs": [
        {
          "internalType": "uint256",
          "name": "",
          "type": "uint256"
        }
      ],
      "stateMutability": "view",
      "type": "function"
    },
    {
      "inputs": [],
      "name": "baseExtension",
      "outputs": [
        {
          "internalType": "string",
          "name": "",
          "type": "string"
        }
      ],
      "stateMutability": "view",
      "type": "function"
    },
    {
      "inputs": [
        {
          "internalType": "uint256",
          "name": "tokenId",
          "type": "uint256"
        }
      ],
      "name": "getApproved",
      "outputs": [
        {
          "internalType": "address",
          "name": "",
          "type": "address"
        }
      ],
      "stateMutability": "view",
      "type": "function"
    },
    {
      "inputs": [
        {
          "internalType": "address",
          "name": "owner",
          "type": "address"
        },
        {
          "internalType": "address",
          "name": "operator",
          "type": "address"
        }
      ],
      "name": "isApprovedForAll",
      "outputs": [
        {
          "internalType": "bool",
          "name": "",
          "type": "bool"
        }
      ],
      "stateMutability": "view",
      "type": "function"
    },
    {
      "inputs": [
        {
          "internalType": "uint16",
          "name": "count",
          "type": "uint16"
        }
      ],
      "name": "mint",
      "outputs": [],
      "stateMutability": "payable",
      "type": "function"
    },
    {
      "inputs": [],
      "name": "name",
      "outputs": [
        {
          "internalType": "string",
          "name": "",
          "type": "string"
        }
      ],
      "stateMutability": "view",
      "type": "function"
    },
    {
      "inputs": [],
      "name": "notRevealedUri",
      "outputs": [
        {
          "internalType": "string",
          "name": "",
          "type": "string"
        }
      ],
      "stateMutability": "view",
      "type": "function"
    },
    {
      "inputs": [],
      "name": "owner",
      "outputs": [
        {
          "internalType": "address",
          "name": "",
          "type": "address"
        }
      ],
      "stateMutability": "view",
      "type": "function"
    },
    {
      "inputs": [
        {
          "internalType": "uint256",
          "name": "tokenId",
          "type": "uint256"
        }
      ],
      "name": "ownerOf",
      "outputs": [
        {
          "internalType": "address",
          "name": "",
          "type": "address"
        }
      ],
      "stateMutability": "view",
      "type": "function"
    },
    {
      "inputs": [],
      "name": "renounceOwnership",
      "outputs": [],
      "stateMutability": "nonpayable",
      "type": "function"
    },
    {
      "inputs": [],
      "name": "reveal",
      "outputs": [],
      "stateMutability": "nonpayable",
      "type": "function"
    },
    {
      "inputs": [],
      "name": "revealed",
      "outputs": [
        {
          "internalType": "bool",
          "name": "",
          "type": "bool"
        }
      ],
      "stateMutability": "view",
      "type": "function"
    },
    {
      "inputs": [
        {
          "internalType": "address",
          "name": "from",
          "type": "address"
        },
        {
          "internalType": "address",
          "name": "to",
          "type": "address"
        },
        {
          "internalType": "uint256",
          "name": "tokenId",
          "type": "uint256"
        }
      ],
      "name": "safeTransferFrom",
      "outputs": [],
      "stateMutability": "nonpayable",
      "type": "function"
    },
    {
      "inputs": [
        {
          "internalType": "address",
          "name": "from",
          "type": "address"
        },
        {
          "internalType": "address",
          "name": "to",
          "type": "address"
        },
        {
          "internalType": "uint256",
          "name": "tokenId",
          "type": "uint256"
        },
        {
          "internalType": "bytes",
          "name": "_data",
          "type": "bytes"
        }
      ],
      "name": "safeTransferFrom",
      "outputs": [],
      "stateMutability": "nonpayable",
      "type": "function"
    },
    {
      "inputs": [
        {
          "internalType": "address",
          "name": "operator",
          "type": "address"
        },
        {
          "internalType": "bool",
          "name": "approved",
          "type": "bool"
        }
      ],
      "name": "setApprovalForAll",
      "outputs": [],
      "stateMutability": "nonpayable",
      "type": "function"
    },
    {
      "inputs": [
        {
          "internalType": "string",
          "name": "_newBaseExtension",
          "type": "string"
        }
      ],
      "name": "setBaseExtension",
      "outputs": [],
      "stateMutability": "nonpayable",
      "type": "function"
    },
    {
      "inputs": [
        {
          "internalType": "string",
          "name": "_newBaseURI",
          "type": "string"
        }
      ],
      "name": "setBaseURI",
      "outputs": [],
      "stateMutability": "nonpayable",
      "type": "function"
    },
    {
      "inputs": [
        {
          "internalType": "string",
          "name": "_notRevealedURI",
          "type": "string"
        }
      ],
      "name": "setNotRevealedURI",
      "outputs": [],
      "stateMutability": "nonpayable",
      "type": "function"
    },
    {
      "inputs": [
        {
          "internalType": "bytes4",
          "name": "interfaceId",
          "type": "bytes4"
        }
      ],
      "name": "supportsInterface",
      "outputs": [
        {
          "internalType": "bool",
          "name": "",
          "type": "bool"
        }
      ],
      "stateMutability": "view",
      "type": "function"
    },
    {
      "inputs": [],
      "name": "symbol",
      "outputs": [
        {
          "internalType": "string",
          "name": "",
          "type": "string"
        }
      ],
      "stateMutability": "view",
      "type": "function"
    },
    {
      "inputs": [
        {
          "internalType": "uint256",
          "name": "index",
          "type": "uint256"
        }
      ],
      "name": "tokenByIndex",
      "outputs": [
        {
          "internalType": "uint256",
          "name": "",
          "type": "uint256"
        }
      ],
      "stateMutability": "view",
      "type": "function"
    },
    {
      "inputs": [
        {
          "internalType": "address",
          "name": "owner",
          "type": "address"
        },
        {
          "internalType": "uint256",
          "name": "index",
          "type": "uint256"
        }
      ],
      "name": "tokenOfOwnerByIndex",
      "outputs": [
        {
          "internalType": "uint256",
          "name": "",
          "type": "uint256"
        }
      ],
      "stateMutability": "view",
      "type": "function"
    },
    {
      "inputs": [
        {
          "internalType": "uint256",
          "name": "_tokenId",
          "type": "uint256"
        }
      ],
      "name": "tokenURI",
      "outputs": [
        {
          "internalType": "string",
          "name": "",
          "type": "string"
        }
      ],
      "stateMutability": "view",
      "type": "function"
    },
    {
      "inputs": [],
      "name": "totalSupply",
      "outputs": [
        {
          "internalType": "uint256",
          "name": "",
          "type": "uint256"
        }
      ],
      "stateMutability": "view",
      "type": "function"
    },
    {
      "inputs": [
        {
          "internalType": "address",
          "name": "from",
          "type": "address"
        },
        {
          "internalType": "address",
          "name": "to",
          "type": "address"
        },
        {
          "internalType": "uint256",
          "name": "tokenId",
          "type": "uint256"
        }
      ],
      "name": "transferFrom",
      "outputs": [],
      "stateMutability": "nonpayable",
      "type": "function"
    },
    {
      "inputs": [
        {
          "internalType": "address",
          "name": "newOwner",
          "type": "address"
        }
      ],
      "name": "transferOwnership",
      "outputs": [],
      "stateMutability": "nonpayable",
      "type": "function"
    },
    {
      "inputs": [],
      "name": "withdraw",
      "outputs": [],
      "stateMutability": "payable",
      "type": "function"
    }
  ],
  "bytecode": "0x60806040526000600b60146101000a81548160ff0219169083151502179055506040518060400160405280600581526020017f2e6a736f6e000000000000000000000000000000000000000000000000000000815250600e90805190602001906200006c929190620003e3565b503480156200007a57600080fd5b5060405162004da838038062004da88339818101604052810190620000a0919062000528565b83838160009080519060200190620000ba929190620003e3565b508060019080519060200190620000d3929190620003e3565b5050506001600a81905550620000fe620000f26200012a60201b60201c565b6200013260201b60201c565b6200010f81620001f860201b60201c565b6200012082620002a360201b60201c565b50505050620008e4565b600033905090565b6000600b60009054906101000a900473ffffffffffffffffffffffffffffffffffffffff16905081600b60006101000a81548173ffffffffffffffffffffffffffffffffffffffff021916908373ffffffffffffffffffffffffffffffffffffffff1602179055508173ffffffffffffffffffffffffffffffffffffffff168173ffffffffffffffffffffffffffffffffffffffff167f8be0079c531659141344cd1fd0a4f28419497f9722a3daafe3b4186f6b6457e060405160405180910390a35050565b620002086200012a60201b60201c565b73ffffffffffffffffffffffffffffffffffffffff166200022e620003b960201b60201c565b73ffffffffffffffffffffffffffffffffffffffff161462000287576040517f08c379a00000000000000000000000000000000000000000000000000000000081526004016200027e9062000667565b60405180910390fd5b80600c90805190602001906200029f929190620003e3565b5050565b620002b36200012a60201b60201c565b73ffffffffffffffffffffffffffffffffffffffff16620002d9620003b960201b60201c565b73ffffffffffffffffffffffffffffffffffffffff161462000332576040517f08c379a0000000000000000000000000000000000000000000000000000000008152600401620003299062000667565b60405180910390fd5b600073ffffffffffffffffffffffffffffffffffffffff168173ffffffffffffffffffffffffffffffffffffffff161415620003a5576040517f08c379a00000000000000000000000000000000000000000000000000000000081526004016200039c9062000645565b60405180910390fd5b620003b6816200013260201b60201c565b50565b6000600b60009054906101000a900473ffffffffffffffffffffffffffffffffffffffff16905090565b828054620003f19062000763565b90600052602060002090601f01602090048101928262000415576000855562000461565b82601f106200043057805160ff191683800117855562000461565b8280016001018555821562000461579182015b828111156200046057825182559160200191906001019062000443565b5b50905062000470919062000474565b5090565b5b808211156200048f57600081600090555060010162000475565b5090565b6000620004aa620004a484620006b2565b62000689565b905082815260208101848484011115620004c957620004c862000832565b5b620004d68482856200072d565b509392505050565b600081519050620004ef81620008ca565b92915050565b600082601f8301126200050d576200050c6200082d565b5b81516200051f84826020860162000493565b91505092915050565b600080600080608085870312156200054557620005446200083c565b5b600085015167ffffffffffffffff81111562000566576200056562000837565b5b6200057487828801620004f5565b945050602085015167ffffffffffffffff81111562000598576200059762000837565b5b620005a687828801620004f5565b9350506040620005b987828801620004de565b925050606085015167ffffffffffffffff811115620005dd57620005dc62000837565b5b620005eb87828801620004f5565b91505092959194509250565b600062000606602683620006e8565b9150620006138262000852565b604082019050919050565b60006200062d602083620006e8565b91506200063a82620008a1565b602082019050919050565b600060208201905081810360008301526200066081620005f7565b9050919050565b6000602082019050818103600083015262000682816200061e565b9050919050565b600062000695620006a8565b9050620006a3828262000799565b919050565b6000604051905090565b600067ffffffffffffffff821115620006d057620006cf620007fe565b5b620006db8262000841565b9050602081019050919050565b600082825260208201905092915050565b600062000706826200070d565b9050919050565b600073ffffffffffffffffffffffffffffffffffffffff82169050919050565b60005b838110156200074d57808201518184015260208101905062000730565b838111156200075d576000848401525b50505050565b600060028204905060018216806200077c57607f821691505b60208210811415620007935762000792620007cf565b5b50919050565b620007a48262000841565b810181811067ffffffffffffffff82111715620007c657620007c5620007fe565b5b80604052505050565b7f4e487b7100000000000000000000000000000000000000000000000000000000600052602260045260246000fd5b7f4e487b7100000000000000000000000000000000000000000000000000000000600052604160045260246000fd5b600080fd5b600080fd5b600080fd5b600080fd5b6000601f19601f8301169050919050565b7f4f776e61626c653a206e6577206f776e657220697320746865207a65726f206160008201527f6464726573730000000000000000000000000000000000000000000000000000602082015250565b7f4f776e61626c653a2063616c6c6572206973206e6f7420746865206f776e6572600082015250565b620008d581620006f9565b8114620008e157600080fd5b50565b6144b480620008f46000396000f3fe6080604052600436106101e35760003560e01c806370a0823111610102578063b88d4fde11610095578063da3ef23f11610064578063da3ef23f146106b6578063e985e9c5146106df578063f2c4ce1e1461071c578063f2fde38b14610745576101e3565b8063b88d4fde146105fa578063b8fc105114610623578063c66828621461064e578063c87b56dd14610679576101e3565b80638da5cb5b116100d15780638da5cb5b1461056457806395d89b411461058f578063a22cb465146105ba578063a475b5dd146105e3576101e3565b806370a08231146104ba578063715018a6146104f7578063764267b61461050e5780638d859f3e14610539576101e3565b80632f745c591161017a5780634f6ccce7116101495780634f6ccce7146103ec578063518302271461042957806355f804b3146104545780636352211e1461047d576101e3565b80632f745c591461035157806332cb6b0c1461038e5780633ccfd60b146103b957806342842e0e146103c3576101e3565b8063095ea7b3116101b6578063095ea7b3146102b857806318160ddd146102e157806323b872dd1461030c57806323cf0a2214610335576101e3565b806301ffc9a7146101e857806306fdde0314610225578063081812fc14610250578063081c8c441461028d575b600080fd5b3480156101f457600080fd5b5061020f600480360381019061020a9190612ed4565b61076e565b60405161021c9190613556565b60405180910390f35b34801561023157600080fd5b5061023a6107e8565b6040516102479190613571565b60405180910390f35b34801561025c57600080fd5b5061027760048036038101906102729190612fa4565b61087a565b60405161028491906134ef565b60405180910390f35b34801561029957600080fd5b506102a26108ff565b6040516102af9190613571565b60405180910390f35b3480156102c457600080fd5b506102df60048036038101906102da9190612e94565b61098d565b005b3480156102ed57600080fd5b506102f6610aa5565b60405161030391906138ae565b60405180910390f35b34801561031857600080fd5b50610333600480360381019061032e9190612d7e565b610ab2565b005b61034f600480360381019061034a9190612f77565b610b12565b005b34801561035d57600080fd5b5061037860048036038101906103739190612e94565b610d0c565b60405161038591906138ae565b60405180910390f35b34801561039a57600080fd5b506103a3610db1565b6040516103b09190613893565b60405180910390f35b6103c1610db7565b005b3480156103cf57600080fd5b506103ea60048036038101906103e59190612d7e565b610ea2565b005b3480156103f857600080fd5b50610413600480360381019061040e9190612fa4565b610ec2565b60405161042091906138ae565b60405180910390f35b34801561043557600080fd5b5061043e610f33565b60405161044b9190613556565b60405180910390f35b34801561046057600080fd5b5061047b60048036038101906104769190612f2e565b610f46565b005b34801561048957600080fd5b506104a4600480360381019061049f9190612fa4565b610fdc565b6040516104b191906134ef565b60405180910390f35b3480156104c657600080fd5b506104e160048036038101906104dc9190612d11565b61108e565b6040516104ee91906138ae565b60405180910390f35b34801561050357600080fd5b5061050c611146565b005b34801561051a57600080fd5b506105236111ce565b6040516105309190613893565b60405180910390f35b34801561054557600080fd5b5061054e6111d4565b60405161055b91906138ae565b60405180910390f35b34801561057057600080fd5b506105796111df565b60405161058691906134ef565b60405180910390f35b34801561059b57600080fd5b506105a4611209565b6040516105b19190613571565b60405180910390f35b3480156105c657600080fd5b506105e160048036038101906105dc9190612e54565b61129b565b005b3480156105ef57600080fd5b506105f86112b1565b005b34801561060657600080fd5b50610621600480360381019061061c9190612dd1565b61134a565b005b34801561062f57600080fd5b506106386113ac565b60405161064591906138c9565b60405180910390f35b34801561065a57600080fd5b506106636113b1565b6040516106709190613571565b60405180910390f35b34801561068557600080fd5b506106a0600480360381019061069b9190612fa4565b61143f565b6040516106ad9190613571565b60405180910390f35b3480156106c257600080fd5b506106dd60048036038101906106d89190612f2e565b611598565b005b3480156106eb57600080fd5b5061070660048036038101906107019190612d3e565b61162e565b6040516107139190613556565b60405180910390f35b34801561072857600080fd5b50610743600480360381019061073e9190612f2e565b6116c2565b005b34801561075157600080fd5b5061076c60048036038101906107679190612d11565b611758565b005b60007f780e9d63000000000000000000000000000000000000000000000000000000007bffffffffffffffffffffffffffffffffffffffffffffffffffffffff1916827bffffffffffffffffffffffffffffffffffffffffffffffffffffffff191614806107e157506107e082611850565b5b9050919050565b6060600080546107f790613bb4565b80601f016020809104026020016040519081016040528092919081815260200182805461082390613bb4565b80156108705780601f1061084557610100808354040283529160200191610870565b820191906000526020600020905b81548152906001019060200180831161085357829003601f168201915b5050505050905090565b600061088582611932565b6108c4576040517f08c379a00000000000000000000000000000000000000000000000000000000081526004016108bb90613753565b60405180910390fd5b6004600083815260200190815260200160002060009054906101000a900473ffffffffffffffffffffffffffffffffffffffff169050919050565b600c805461090c90613bb4565b80601f016020809104026020016040519081016040528092919081815260200182805461093890613bb4565b80156109855780601f1061095a57610100808354040283529160200191610985565b820191906000526020600020905b81548152906001019060200180831161096857829003601f168201915b505050505081565b600061099882610fdc565b90508073ffffffffffffffffffffffffffffffffffffffff168373ffffffffffffffffffffffffffffffffffffffff161415610a09576040517f08c379a0000000000000000000000000000000000000000000000000000000008152600401610a0090613813565b60405180910390fd5b8073ffffffffffffffffffffffffffffffffffffffff16610a2861199e565b73ffffffffffffffffffffffffffffffffffffffff161480610a575750610a5681610a5161199e565b61162e565b5b610a96576040517f08c379a0000000000000000000000000000000000000000000000000000000008152600401610a8d906136b3565b60405180910390fd5b610aa083836119a6565b505050565b6000600880549050905090565b610ac3610abd61199e565b82611a5f565b610b02576040517f08c379a0000000000000000000000000000000000000000000000000000000008152600401610af990613833565b60405180910390fd5b610b0d838383611b3d565b505050565b6002600a541415610b58576040517f08c379a0000000000000000000000000000000000000000000000000000000008152600401610b4f90613873565b60405180910390fd5b6002600a81905550610d0561ffff1660018261ffff16610b76610aa5565b610b8091906139ce565b610b8a9190613aaf565b10610bca576040517f08c379a0000000000000000000000000000000000000000000000000000000008152600401610bc190613713565b60405180910390fd5b600760ff168161ffff161115610c15576040517f08c379a0000000000000000000000000000000000000000000000000000000008152600401610c0c906137b3565b60405180910390fd5b61045761ffff16610c24610aa5565b11610c5e5760005b8161ffff16811015610c5c57610c4933610c44610aa5565b611d99565b8080610c5490613c17565b915050610c2c565b505b61045761ffff16610c6d610aa5565b1115610d01578061ffff166671afd498d00000610c8a9190613a55565b341015610ccc576040517f08c379a0000000000000000000000000000000000000000000000000000000008152600401610cc390613793565b60405180910390fd5b60005b8161ffff16811015610cff57610cec33610ce7610aa5565b611d99565b8080610cf790613c17565b915050610ccf565b505b6001600a8190555050565b6000610d178361108e565b8210610d58576040517f08c379a0000000000000000000000000000000000000000000000000000000008152600401610d4f90613593565b60405180910390fd5b600660008473ffffffffffffffffffffffffffffffffffffffff1673ffffffffffffffffffffffffffffffffffffffff168152602001908152602001600020600083815260200190815260200160002054905092915050565b610d0581565b6002600a541415610dfd576040517f08c379a0000000000000000000000000000000000000000000000000000000008152600401610df490613873565b60405180910390fd5b6002600a81905550610e0d61199e565b73ffffffffffffffffffffffffffffffffffffffff16610e2b6111df565b73ffffffffffffffffffffffffffffffffffffffff1614610e81576040517f08c379a0000000000000000000000000000000000000000000000000000000008152600401610e7890613773565b60405180910390fd5b6000479050610e97610e916111df565b82611f67565b506001600a81905550565b610ebd8383836040518060200160405280600081525061134a565b505050565b6000610ecc610aa5565b8210610f0d576040517f08c379a0000000000000000000000000000000000000000000000000000000008152600401610f0490613853565b60405180910390fd5b60088281548110610f2157610f20613d4d565b5b90600052602060002001549050919050565b600b60149054906101000a900460ff1681565b610f4e61199e565b73ffffffffffffffffffffffffffffffffffffffff16610f6c6111df565b73ffffffffffffffffffffffffffffffffffffffff1614610fc2576040517f08c379a0000000000000000000000000000000000000000000000000000000008152600401610fb990613773565b60405180910390fd5b80600d9080519060200190610fd8929190612b10565b5050565b6000806002600084815260200190815260200160002060009054906101000a900473ffffffffffffffffffffffffffffffffffffffff169050600073ffffffffffffffffffffffffffffffffffffffff168173ffffffffffffffffffffffffffffffffffffffff161415611085576040517f08c379a000000000000000000000000000000000000000000000000000000000815260040161107c906136f3565b60405180910390fd5b80915050919050565b60008073ffffffffffffffffffffffffffffffffffffffff168273ffffffffffffffffffffffffffffffffffffffff1614156110ff576040517f08c379a00000000000000000000000000000000000000000000000000000000081526004016110f6906136d3565b60405180910390fd5b600360008373ffffffffffffffffffffffffffffffffffffffff1673ffffffffffffffffffffffffffffffffffffffff168152602001908152602001600020549050919050565b61114e61199e565b73ffffffffffffffffffffffffffffffffffffffff1661116c6111df565b73ffffffffffffffffffffffffffffffffffffffff16146111c2576040517f08c379a00000000000000000000000000000000000000000000000000000000081526004016111b990613773565b60405180910390fd5b6111cc600061205b565b565b61045781565b6671afd498d0000081565b6000600b60009054906101000a900473ffffffffffffffffffffffffffffffffffffffff16905090565b60606001805461121890613bb4565b80601f016020809104026020016040519081016040528092919081815260200182805461124490613bb4565b80156112915780601f1061126657610100808354040283529160200191611291565b820191906000526020600020905b81548152906001019060200180831161127457829003601f168201915b5050505050905090565b6112ad6112a661199e565b8383612121565b5050565b6112b961199e565b73ffffffffffffffffffffffffffffffffffffffff166112d76111df565b73ffffffffffffffffffffffffffffffffffffffff161461132d576040517f08c379a000000000000000000000000000000000000000000000000000000000815260040161132490613773565b60405180910390fd5b6001600b60146101000a81548160ff021916908315150217905550565b61135b61135561199e565b83611a5f565b61139a576040517f08c379a000000000000000000000000000000000000000000000000000000000815260040161139190613833565b60405180910390fd5b6113a68484848461228e565b50505050565b600781565b600e80546113be90613bb4565b80601f01602080910402602001604051908101604052809291908181526020018280546113ea90613bb4565b80156114375780601f1061140c57610100808354040283529160200191611437565b820191906000526020600020905b81548152906001019060200180831161141a57829003601f168201915b505050505081565b606061144a82611932565b611489576040517f08c379a0000000000000000000000000000000000000000000000000000000008152600401611480906137f3565b60405180910390fd5b60001515600b60149054906101000a900460ff161515141561153757600c80546114b290613bb4565b80601f01602080910402602001604051908101604052809291908181526020018280546114de90613bb4565b801561152b5780601f106115005761010080835404028352916020019161152b565b820191906000526020600020905b81548152906001019060200180831161150e57829003601f168201915b50505050509050611593565b60006115416122ea565b90506000815111611561576040518060200160405280600081525061158f565b8061156b8461237c565b600e60405160200161157f939291906134a9565b6040516020818303038152906040525b9150505b919050565b6115a061199e565b73ffffffffffffffffffffffffffffffffffffffff166115be6111df565b73ffffffffffffffffffffffffffffffffffffffff1614611614576040517f08c379a000000000000000000000000000000000000000000000000000000000815260040161160b90613773565b60405180910390fd5b80600e908051906020019061162a929190612b10565b5050565b6000600560008473ffffffffffffffffffffffffffffffffffffffff1673ffffffffffffffffffffffffffffffffffffffff16815260200190815260200160002060008373ffffffffffffffffffffffffffffffffffffffff1673ffffffffffffffffffffffffffffffffffffffff16815260200190815260200160002060009054906101000a900460ff16905092915050565b6116ca61199e565b73ffffffffffffffffffffffffffffffffffffffff166116e86111df565b73ffffffffffffffffffffffffffffffffffffffff161461173e576040517f08c379a000000000000000000000000000000000000000000000000000000000815260040161173590613773565b60405180910390fd5b80600c9080519060200190611754929190612b10565b5050565b61176061199e565b73ffffffffffffffffffffffffffffffffffffffff1661177e6111df565b73ffffffffffffffffffffffffffffffffffffffff16146117d4576040517f08c379a00000000000000000000000000000000000000000000000000000000081526004016117cb90613773565b60405180910390fd5b600073ffffffffffffffffffffffffffffffffffffffff168173ffffffffffffffffffffffffffffffffffffffff161415611844576040517f08c379a000000000000000000000000000000000000000000000000000000000815260040161183b906135d3565b60405180910390fd5b61184d8161205b565b50565b60007f80ac58cd000000000000000000000000000000000000000000000000000000007bffffffffffffffffffffffffffffffffffffffffffffffffffffffff1916827bffffffffffffffffffffffffffffffffffffffffffffffffffffffff1916148061191b57507f5b5e139f000000000000000000000000000000000000000000000000000000007bffffffffffffffffffffffffffffffffffffffffffffffffffffffff1916827bffffffffffffffffffffffffffffffffffffffffffffffffffffffff1916145b8061192b575061192a826124dd565b5b9050919050565b60008073ffffffffffffffffffffffffffffffffffffffff166002600084815260200190815260200160002060009054906101000a900473ffffffffffffffffffffffffffffffffffffffff1673ffffffffffffffffffffffffffffffffffffffff1614159050919050565b600033905090565b816004600083815260200190815260200160002060006101000a81548173ffffffffffffffffffffffffffffffffffffffff021916908373ffffffffffffffffffffffffffffffffffffffff160217905550808273ffffffffffffffffffffffffffffffffffffffff16611a1983610fdc565b73ffffffffffffffffffffffffffffffffffffffff167f8c5be1e5ebec7d5bd14f71427d1e84f3dd0314c0f7b2291e5b200ac8c7c3b92560405160405180910390a45050565b6000611a6a82611932565b611aa9576040517f08c379a0000000000000000000000000000000000000000000000000000000008152600401611aa090613693565b60405180910390fd5b6000611ab483610fdc565b90508073ffffffffffffffffffffffffffffffffffffffff168473ffffffffffffffffffffffffffffffffffffffff161480611b2357508373ffffffffffffffffffffffffffffffffffffffff16611b0b8461087a565b73ffffffffffffffffffffffffffffffffffffffff16145b80611b345750611b33818561162e565b5b91505092915050565b8273ffffffffffffffffffffffffffffffffffffffff16611b5d82610fdc565b73ffffffffffffffffffffffffffffffffffffffff1614611bb3576040517f08c379a0000000000000000000000000000000000000000000000000000000008152600401611baa906137d3565b60405180910390fd5b600073ffffffffffffffffffffffffffffffffffffffff168273ffffffffffffffffffffffffffffffffffffffff161415611c23576040517f08c379a0000000000000000000000000000000000000000000000000000000008152600401611c1a90613613565b60405180910390fd5b611c2e838383612547565b611c396000826119a6565b6001600360008573ffffffffffffffffffffffffffffffffffffffff1673ffffffffffffffffffffffffffffffffffffffff1681526020019081526020016000206000828254611c899190613aaf565b925050819055506001600360008473ffffffffffffffffffffffffffffffffffffffff1673ffffffffffffffffffffffffffffffffffffffff1681526020019081526020016000206000828254611ce091906139ce565b92505081905550816002600083815260200190815260200160002060006101000a81548173ffffffffffffffffffffffffffffffffffffffff021916908373ffffffffffffffffffffffffffffffffffffffff160217905550808273ffffffffffffffffffffffffffffffffffffffff168473ffffffffffffffffffffffffffffffffffffffff167fddf252ad1be2c89b69c2b068fc378daa952ba7f163c4a11628f55a4df523b3ef60405160405180910390a4505050565b600073ffffffffffffffffffffffffffffffffffffffff168273ffffffffffffffffffffffffffffffffffffffff161415611e09576040517f08c379a0000000000000000000000000000000000000000000000000000000008152600401611e0090613733565b60405180910390fd5b611e1281611932565b15611e52576040517f08c379a0000000000000000000000000000000000000000000000000000000008152600401611e49906135f3565b60405180910390fd5b611e5e60008383612547565b6001600360008473ffffffffffffffffffffffffffffffffffffffff1673ffffffffffffffffffffffffffffffffffffffff1681526020019081526020016000206000828254611eae91906139ce565b92505081905550816002600083815260200190815260200160002060006101000a81548173ffffffffffffffffffffffffffffffffffffffff021916908373ffffffffffffffffffffffffffffffffffffffff160217905550808273ffffffffffffffffffffffffffffffffffffffff16600073ffffffffffffffffffffffffffffffffffffffff167fddf252ad1be2c89b69c2b068fc378daa952ba7f163c4a11628f55a4df523b3ef60405160405180910390a45050565b80471015611faa576040517f08c379a0000000000000000000000000000000000000000000000000000000008152600401611fa190613673565b60405180910390fd5b60008273ffffffffffffffffffffffffffffffffffffffff1682604051611fd0906134da565b60006040518083038185875af1925050503d806000811461200d576040519150601f19603f3d011682016040523d82523d6000602084013e612012565b606091505b5050905080612056576040517f08c379a000000000000000000000000000000000000000000000000000000000815260040161204d90613653565b60405180910390fd5b505050565b6000600b60009054906101000a900473ffffffffffffffffffffffffffffffffffffffff16905081600b60006101000a81548173ffffffffffffffffffffffffffffffffffffffff021916908373ffffffffffffffffffffffffffffffffffffffff1602179055508173ffffffffffffffffffffffffffffffffffffffff168173ffffffffffffffffffffffffffffffffffffffff167f8be0079c531659141344cd1fd0a4f28419497f9722a3daafe3b4186f6b6457e060405160405180910390a35050565b8173ffffffffffffffffffffffffffffffffffffffff168373ffffffffffffffffffffffffffffffffffffffff161415612190576040517f08c379a000000000000000000000000000000000000000000000000000000000815260040161218790613633565b60405180910390fd5b80600560008573ffffffffffffffffffffffffffffffffffffffff1673ffffffffffffffffffffffffffffffffffffffff16815260200190815260200160002060008473ffffffffffffffffffffffffffffffffffffffff1673ffffffffffffffffffffffffffffffffffffffff16815260200190815260200160002060006101000a81548160ff0219169083151502179055508173ffffffffffffffffffffffffffffffffffffffff168373ffffffffffffffffffffffffffffffffffffffff167f17307eab39ab6107e8899845ad3d59bd9653f200f220920489ca2b5937696c31836040516122819190613556565b60405180910390a3505050565b612299848484611b3d565b6122a58484848461265b565b6122e4576040517f08c379a00000000000000000000000000000000000000000000000000000000081526004016122db906135b3565b60405180910390fd5b50505050565b6060600d80546122f990613bb4565b80601f016020809104026020016040519081016040528092919081815260200182805461232590613bb4565b80156123725780601f1061234757610100808354040283529160200191612372565b820191906000526020600020905b81548152906001019060200180831161235557829003601f168201915b5050505050905090565b606060008214156123c4576040518060400160405280600181526020017f300000000000000000000000000000000000000000000000000000000000000081525090506124d8565b600082905060005b600082146123f65780806123df90613c17565b915050600a826123ef9190613a24565b91506123cc565b60008167ffffffffffffffff81111561241257612411613d7c565b5b6040519080825280601f01601f1916602001820160405280156124445781602001600182028036833780820191505090505b5090505b600085146124d15760018261245d9190613aaf565b9150600a8561246c9190613c60565b603061247891906139ce565b60f81b81838151811061248e5761248d613d4d565b5b60200101907effffffffffffffffffffffffffffffffffffffffffffffffffffffffffffff1916908160001a905350600a856124ca9190613a24565b9450612448565b8093505050505b919050565b60007f01ffc9a7000000000000000000000000000000000000000000000000000000007bffffffffffffffffffffffffffffffffffffffffffffffffffffffff1916827bffffffffffffffffffffffffffffffffffffffffffffffffffffffff1916149050919050565b6125528383836127f2565b600073ffffffffffffffffffffffffffffffffffffffff168373ffffffffffffffffffffffffffffffffffffffff16141561259557612590816127f7565b6125d4565b8173ffffffffffffffffffffffffffffffffffffffff168373ffffffffffffffffffffffffffffffffffffffff16146125d3576125d28382612840565b5b5b600073ffffffffffffffffffffffffffffffffffffffff168273ffffffffffffffffffffffffffffffffffffffff16141561261757612612816129ad565b612656565b8273ffffffffffffffffffffffffffffffffffffffff168273ffffffffffffffffffffffffffffffffffffffff1614612655576126548282612a7e565b5b5b505050565b600061267c8473ffffffffffffffffffffffffffffffffffffffff16612afd565b156127e5578373ffffffffffffffffffffffffffffffffffffffff1663150b7a026126a561199e565b8786866040518563ffffffff1660e01b81526004016126c7949392919061350a565b602060405180830381600087803b1580156126e157600080fd5b505af192505050801561271257506040513d601f19601f8201168201806040525081019061270f9190612f01565b60015b612795573d8060008114612742576040519150601f19603f3d011682016040523d82523d6000602084013e612747565b606091505b5060008151141561278d576040517f08c379a0000000000000000000000000000000000000000000000000000000008152600401612784906135b3565b60405180910390fd5b805181602001fd5b63150b7a0260e01b7bffffffffffffffffffffffffffffffffffffffffffffffffffffffff1916817bffffffffffffffffffffffffffffffffffffffffffffffffffffffff1916149150506127ea565b600190505b949350505050565b505050565b6008805490506009600083815260200190815260200160002081905550600881908060018154018082558091505060019003906000526020600020016000909190919091505550565b6000600161284d8461108e565b6128579190613aaf565b905060006007600084815260200190815260200160002054905081811461293c576000600660008673ffffffffffffffffffffffffffffffffffffffff1673ffffffffffffffffffffffffffffffffffffffff168152602001908152602001600020600084815260200190815260200160002054905080600660008773ffffffffffffffffffffffffffffffffffffffff1673ffffffffffffffffffffffffffffffffffffffff168152602001908152602001600020600084815260200190815260200160002081905550816007600083815260200190815260200160002081905550505b6007600084815260200190815260200160002060009055600660008573ffffffffffffffffffffffffffffffffffffffff1673ffffffffffffffffffffffffffffffffffffffff16815260200190815260200160002060008381526020019081526020016000206000905550505050565b600060016008805490506129c19190613aaf565b90506000600960008481526020019081526020016000205490506000600883815481106129f1576129f0613d4d565b5b906000526020600020015490508060088381548110612a1357612a12613d4d565b5b906000526020600020018190555081600960008381526020019081526020016000208190555060096000858152602001908152602001600020600090556008805480612a6257612a61613d1e565b5b6001900381819060005260206000200160009055905550505050565b6000612a898361108e565b905081600660008573ffffffffffffffffffffffffffffffffffffffff1673ffffffffffffffffffffffffffffffffffffffff168152602001908152602001600020600083815260200190815260200160002081905550806007600084815260200190815260200160002081905550505050565b600080823b905060008111915050919050565b828054612b1c90613bb4565b90600052602060002090601f016020900481019282612b3e5760008555612b85565b82601f10612b5757805160ff1916838001178555612b85565b82800160010185558215612b85579182015b82811115612b84578251825591602001919060010190612b69565b5b509050612b929190612b96565b5090565b5b80821115612baf576000816000905550600101612b97565b5090565b6000612bc6612bc184613909565b6138e4565b905082815260208101848484011115612be257612be1613db0565b5b612bed848285613b72565b509392505050565b6000612c08612c038461393a565b6138e4565b905082815260208101848484011115612c2457612c23613db0565b5b612c2f848285613b72565b509392505050565b600081359050612c468161440b565b92915050565b600081359050612c5b81614422565b92915050565b600081359050612c7081614439565b92915050565b600081519050612c8581614439565b92915050565b600082601f830112612ca057612c9f613dab565b5b8135612cb0848260208601612bb3565b91505092915050565b600082601f830112612cce57612ccd613dab565b5b8135612cde848260208601612bf5565b91505092915050565b600081359050612cf681614450565b92915050565b600081359050612d0b81614467565b92915050565b600060208284031215612d2757612d26613dba565b5b6000612d3584828501612c37565b91505092915050565b60008060408385031215612d5557612d54613dba565b5b6000612d6385828601612c37565b9250506020612d7485828601612c37565b9150509250929050565b600080600060608486031215612d9757612d96613dba565b5b6000612da586828701612c37565b9350506020612db686828701612c37565b9250506040612dc786828701612cfc565b9150509250925092565b60008060008060808587031215612deb57612dea613dba565b5b6000612df987828801612c37565b9450506020612e0a87828801612c37565b9350506040612e1b87828801612cfc565b925050606085013567ffffffffffffffff811115612e3c57612e3b613db5565b5b612e4887828801612c8b565b91505092959194509250565b60008060408385031215612e6b57612e6a613dba565b5b6000612e7985828601612c37565b9250506020612e8a85828601612c4c565b9150509250929050565b60008060408385031215612eab57612eaa613dba565b5b6000612eb985828601612c37565b9250506020612eca85828601612cfc565b9150509250929050565b600060208284031215612eea57612ee9613dba565b5b6000612ef884828501612c61565b91505092915050565b600060208284031215612f1757612f16613dba565b5b6000612f2584828501612c76565b91505092915050565b600060208284031215612f4457612f43613dba565b5b600082013567ffffffffffffffff811115612f6257612f61613db5565b5b612f6e84828501612cb9565b91505092915050565b600060208284031215612f8d57612f8c613dba565b5b6000612f9b84828501612ce7565b91505092915050565b600060208284031215612fba57612fb9613dba565b5b6000612fc884828501612cfc565b91505092915050565b612fda81613ae3565b82525050565b612fe981613af5565b82525050565b6000612ffa82613980565b6130048185613996565b9350613014818560208601613b81565b61301d81613dbf565b840191505092915050565b60006130338261398b565b61303d81856139b2565b935061304d818560208601613b81565b61305681613dbf565b840191505092915050565b600061306c8261398b565b61307681856139c3565b9350613086818560208601613b81565b80840191505092915050565b6000815461309f81613bb4565b6130a981866139c3565b945060018216600081146130c457600181146130d557613108565b60ff19831686528186019350613108565b6130de8561396b565b60005b83811015613100578154818901526001820191506020810190506130e1565b838801955050505b50505092915050565b600061311e602b836139b2565b915061312982613dd0565b604082019050919050565b60006131416032836139b2565b915061314c82613e1f565b604082019050919050565b60006131646026836139b2565b915061316f82613e6e565b604082019050919050565b6000613187601c836139b2565b915061319282613ebd565b602082019050919050565b60006131aa6024836139b2565b91506131b582613ee6565b604082019050919050565b60006131cd6019836139b2565b91506131d882613f35565b602082019050919050565b60006131f0603a836139b2565b91506131fb82613f5e565b604082019050919050565b6000613213601d836139b2565b915061321e82613fad565b602082019050919050565b6000613236602c836139b2565b915061324182613fd6565b604082019050919050565b60006132596038836139b2565b915061326482614025565b604082019050919050565b600061327c602a836139b2565b915061328782614074565b604082019050919050565b600061329f6029836139b2565b91506132aa826140c3565b604082019050919050565b60006132c26012836139b2565b91506132cd82614112565b602082019050919050565b60006132e56020836139b2565b91506132f08261413b565b602082019050919050565b6000613308602c836139b2565b915061331382614164565b604082019050919050565b600061332b6020836139b2565b9150613336826141b3565b602082019050919050565b600061334e6028836139b2565b9150613359826141dc565b604082019050919050565b60006133716018836139b2565b915061337c8261422b565b602082019050919050565b60006133946029836139b2565b915061339f82614254565b604082019050919050565b60006133b7602f836139b2565b91506133c2826142a3565b604082019050919050565b60006133da6021836139b2565b91506133e5826142f2565b604082019050919050565b60006133fd6000836139a7565b915061340882614341565b600082019050919050565b60006134206031836139b2565b915061342b82614344565b604082019050919050565b6000613443602c836139b2565b915061344e82614393565b604082019050919050565b6000613466601f836139b2565b9150613471826143e2565b602082019050919050565b61348581613b2d565b82525050565b61349481613b5b565b82525050565b6134a381613b65565b82525050565b60006134b58286613061565b91506134c18285613061565b91506134cd8284613092565b9150819050949350505050565b60006134e5826133f0565b9150819050919050565b60006020820190506135046000830184612fd1565b92915050565b600060808201905061351f6000830187612fd1565b61352c6020830186612fd1565b613539604083018561348b565b818103606083015261354b8184612fef565b905095945050505050565b600060208201905061356b6000830184612fe0565b92915050565b6000602082019050818103600083015261358b8184613028565b905092915050565b600060208201905081810360008301526135ac81613111565b9050919050565b600060208201905081810360008301526135cc81613134565b9050919050565b600060208201905081810360008301526135ec81613157565b9050919050565b6000602082019050818103600083015261360c8161317a565b9050919050565b6000602082019050818103600083015261362c8161319d565b9050919050565b6000602082019050818103600083015261364c816131c0565b9050919050565b6000602082019050818103600083015261366c816131e3565b9050919050565b6000602082019050818103600083015261368c81613206565b9050919050565b600060208201905081810360008301526136ac81613229565b9050919050565b600060208201905081810360008301526136cc8161324c565b9050919050565b600060208201905081810360008301526136ec8161326f565b9050919050565b6000602082019050818103600083015261370c81613292565b9050919050565b6000602082019050818103600083015261372c816132b5565b9050919050565b6000602082019050818103600083015261374c816132d8565b9050919050565b6000602082019050818103600083015261376c816132fb565b9050919050565b6000602082019050818103600083015261378c8161331e565b9050919050565b600060208201905081810360008301526137ac81613341565b9050919050565b600060208201905081810360008301526137cc81613364565b9050919050565b600060208201905081810360008301526137ec81613387565b9050919050565b6000602082019050818103600083015261380c816133aa565b9050919050565b6000602082019050818103600083015261382c816133cd565b9050919050565b6000602082019050818103600083015261384c81613413565b9050919050565b6000602082019050818103600083015261386c81613436565b9050919050565b6000602082019050818103600083015261388c81613459565b9050919050565b60006020820190506138a8600083018461347c565b92915050565b60006020820190506138c3600083018461348b565b92915050565b60006020820190506138de600083018461349a565b92915050565b60006138ee6138ff565b90506138fa8282613be6565b919050565b6000604051905090565b600067ffffffffffffffff82111561392457613923613d7c565b5b61392d82613dbf565b9050602081019050919050565b600067ffffffffffffffff82111561395557613954613d7c565b5b61395e82613dbf565b9050602081019050919050565b60008190508160005260206000209050919050565b600081519050919050565b600081519050919050565b600082825260208201905092915050565b600081905092915050565b600082825260208201905092915050565b600081905092915050565b60006139d982613b5b565b91506139e483613b5b565b9250827fffffffffffffffffffffffffffffffffffffffffffffffffffffffffffffffff03821115613a1957613a18613c91565b5b828201905092915050565b6000613a2f82613b5b565b9150613a3a83613b5b565b925082613a4a57613a49613cc0565b5b828204905092915050565b6000613a6082613b5b565b9150613a6b83613b5b565b9250817fffffffffffffffffffffffffffffffffffffffffffffffffffffffffffffffff0483118215151615613aa457613aa3613c91565b5b828202905092915050565b6000613aba82613b5b565b9150613ac583613b5b565b925082821015613ad857613ad7613c91565b5b828203905092915050565b6000613aee82613b3b565b9050919050565b60008115159050919050565b60007fffffffff0000000000000000000000000000000000000000000000000000000082169050919050565b600061ffff82169050919050565b600073ffffffffffffffffffffffffffffffffffffffff82169050919050565b6000819050919050565b600060ff82169050919050565b82818337600083830152505050565b60005b83811015613b9f578082015181840152602081019050613b84565b83811115613bae576000848401525b50505050565b60006002820490506001821680613bcc57607f821691505b60208210811415613be057613bdf613cef565b5b50919050565b613bef82613dbf565b810181811067ffffffffffffffff82111715613c0e57613c0d613d7c565b5b80604052505050565b6000613c2282613b5b565b91507fffffffffffffffffffffffffffffffffffffffffffffffffffffffffffffffff821415613c5557613c54613c91565b5b600182019050919050565b6000613c6b82613b5b565b9150613c7683613b5b565b925082613c8657613c85613cc0565b5b828206905092915050565b7f4e487b7100000000000000000000000000000000000000000000000000000000600052601160045260246000fd5b7f4e487b7100000000000000000000000000000000000000000000000000000000600052601260045260246000fd5b7f4e487b7100000000000000000000000000000000000000000000000000000000600052602260045260246000fd5b7f4e487b7100000000000000000000000000000000000000000000000000000000600052603160045260246000fd5b7f4e487b7100000000000000000000000000000000000000000000000000000000600052603260045260246000fd5b7f4e487b7100000000000000000000000000000000000000000000000000000000600052604160045260246000fd5b600080fd5b600080fd5b600080fd5b600080fd5b6000601f19601f8301169050919050565b7f455243373231456e756d657261626c653a206f776e657220696e646578206f7560008201527f74206f6620626f756e6473000000000000000000000000000000000000000000602082015250565b7f4552433732313a207472616e7366657220746f206e6f6e20455243373231526560008201527f63656976657220696d706c656d656e7465720000000000000000000000000000602082015250565b7f4f776e61626c653a206e6577206f776e657220697320746865207a65726f206160008201527f6464726573730000000000000000000000000000000000000000000000000000602082015250565b7f4552433732313a20746f6b656e20616c7265616479206d696e74656400000000600082015250565b7f4552433732313a207472616e7366657220746f20746865207a65726f2061646460008201527f7265737300000000000000000000000000000000000000000000000000000000602082015250565b7f4552433732313a20617070726f766520746f2063616c6c657200000000000000600082015250565b7f416464726573733a20756e61626c6520746f2073656e642076616c75652c207260008201527f6563697069656e74206d61792068617665207265766572746564000000000000602082015250565b7f416464726573733a20696e73756666696369656e742062616c616e6365000000600082015250565b7f4552433732313a206f70657261746f7220717565727920666f72206e6f6e657860008201527f697374656e7420746f6b656e0000000000000000000000000000000000000000602082015250565b7f4552433732313a20617070726f76652063616c6c6572206973206e6f74206f7760008201527f6e6572206e6f7220617070726f76656420666f7220616c6c0000000000000000602082015250565b7f4552433732313a2062616c616e636520717565727920666f7220746865207a6560008201527f726f206164647265737300000000000000000000000000000000000000000000602082015250565b7f4552433732313a206f776e657220717565727920666f72206e6f6e657869737460008201527f656e7420746f6b656e0000000000000000000000000000000000000000000000602082015250565b7f45786365656473206d617820737570706c790000000000000000000000000000600082015250565b7f4552433732313a206d696e7420746f20746865207a65726f2061646472657373600082015250565b7f4552433732313a20617070726f76656420717565727920666f72206e6f6e657860008201527f697374656e7420746f6b656e0000000000000000000000000000000000000000602082015250565b7f4f776e61626c653a2063616c6c6572206973206e6f7420746865206f776e6572600082015250565b7f496e73756666696369656e74207061796d656e742c20302e303332204554482060008201527f706572206974656d000000000000000000000000000000000000000000000000602082015250565b7f4d696e74206174206d6f7374203720617420612074696d650000000000000000600082015250565b7f4552433732313a207472616e73666572206f6620746f6b656e2074686174206960008201527f73206e6f74206f776e0000000000000000000000000000000000000000000000602082015250565b7f4552433732314d657461646174613a2055524920717565727920666f72206e6f60008201527f6e6578697374656e7420746f6b656e0000000000000000000000000000000000602082015250565b7f4552433732313a20617070726f76616c20746f2063757272656e74206f776e6560008201527f7200000000000000000000000000000000000000000000000000000000000000602082015250565b50565b7f4552433732313a207472616e736665722063616c6c6572206973206e6f74206f60008201527f776e6572206e6f7220617070726f766564000000000000000000000000000000602082015250565b7f455243373231456e756d657261626c653a20676c6f62616c20696e646578206f60008201527f7574206f6620626f756e64730000000000000000000000000000000000000000602082015250565b7f5265656e7472616e637947756172643a207265656e7472616e742063616c6c00600082015250565b61441481613ae3565b811461441f57600080fd5b50565b61442b81613af5565b811461443657600080fd5b50565b61444281613b01565b811461444d57600080fd5b50565b61445981613b2d565b811461446457600080fd5b50565b61447081613b5b565b811461447b57600080fd5b5056fea2646970667358221220589fe44863a919213f5fe6a5c5da353f3ca66fe74cf656320a981615d655cd9764736f6c63430008070033",
  "linkReferences": {},
  "deployedLinkReferences": {}
}