{
  "_format": "hh-sol-artifact-1",
  "contractName": "FrankenPhunks",
  "sourceName": "contracts/FrankenPhunks.sol",
  "abi": [
    {
      "inputs": [
        {
          "internalType": "string",
          "name": "_name",
          "type": "string"
        },
        {
          "internalType": "string",
          "name": "_symbol",
          "type": "string"
        },
        {
          "internalType": "string",
          "name": "_initNotRevealedUri",
          "type": "string"
        }
      ],
      "stateMutability": "nonpayable",
      "type": "constructor"
    },
    {
      "anonymous": false,
      "inputs": [
        {
          "indexed": true,
          "internalType": "address",
          "name": "owner",
          "type": "address"
        },
        {
          "indexed": true,
          "internalType": "address",
          "name": "approved",
          "type": "address"
        },
        {
          "indexed": true,
          "internalType": "uint256",
          "name": "tokenId",
          "type": "uint256"
        }
      ],
      "name": "Approval",
      "type": "event"
    },
    {
      "anonymous": false,
      "inputs": [
        {
          "indexed": true,
          "internalType": "address",
          "name": "owner",
          "type": "address"
        },
        {
          "indexed": true,
          "internalType": "address",
          "name": "operator",
          "type": "address"
        },
        {
          "indexed": false,
          "internalType": "bool",
          "name": "approved",
          "type": "bool"
        }
      ],
      "name": "ApprovalForAll",
      "type": "event"
    },
    {
      "anonymous": false,
      "inputs": [
        {
          "indexed": true,
          "internalType": "address",
          "name": "previousOwner",
          "type": "address"
        },
        {
          "indexed": true,
          "internalType": "address",
          "name": "newOwner",
          "type": "address"
        }
      ],
      "name": "OwnershipTransferred",
      "type": "event"
    },
    {
      "anonymous": false,
      "inputs": [
        {
          "indexed": true,
          "internalType": "address",
          "name": "from",
          "type": "address"
        },
        {
          "indexed": true,
          "internalType": "address",
          "name": "to",
          "type": "address"
        },
        {
          "indexed": true,
          "internalType": "uint256",
          "name": "tokenId",
          "type": "uint256"
        }
      ],
      "name": "Transfer",
      "type": "event"
    },
    {
      "inputs": [],
      "name": "FREE_MINTS",
      "outputs": [
        {
          "internalType": "uint16",
          "name": "",
          "type": "uint16"
        }
      ],
      "stateMutability": "view",
      "type": "function"
    },
    {
      "inputs": [],
      "name": "MAX_MULTIMINT",
      "outputs": [
        {
          "internalType": "uint8",
          "name": "",
          "type": "uint8"
        }
      ],
      "stateMutability": "view",
      "type": "function"
    },
    {
      "inputs": [],
      "name": "MAX_SUPPLY",
      "outputs": [
        {
          "internalType": "uint16",
          "name": "",
          "type": "uint16"
        }
      ],
      "stateMutability": "view",
      "type": "function"
    },
    {
      "inputs": [],
      "name": "PRICE",
      "outputs": [
        {
          "internalType": "uint256",
          "name": "",
          "type": "uint256"
        }
      ],
      "stateMutability": "view",
      "type": "function"
    },
    {
      "inputs": [
        {
          "internalType": "address",
          "name": "to",
          "type": "address"
        },
        {
          "internalType": "uint256",
          "name": "tokenId",
          "type": "uint256"
        }
      ],
      "name": "approve",
      "outputs": [],
      "stateMutability": "nonpayable",
      "type": "function"
    },
    {
      "inputs": [
        {
          "internalType": "address",
          "name": "owner",
          "type": "address"
        }
      ],
      "name": "balanceOf",
      "outputs": [
        {
          "internalType": "uint256",
          "name": "",
          "type": "uint256"
        }
      ],
      "stateMutability": "view",
      "type": "function"
    },
    {
      "inputs": [],
      "name": "baseExtension",
      "outputs": [
        {
          "internalType": "string",
          "name": "",
          "type": "string"
        }
      ],
      "stateMutability": "view",
      "type": "function"
    },
    {
      "inputs": [
        {
          "internalType": "uint256",
          "name": "tokenId",
          "type": "uint256"
        }
      ],
      "name": "getApproved",
      "outputs": [
        {
          "internalType": "address",
          "name": "",
          "type": "address"
        }
      ],
      "stateMutability": "view",
      "type": "function"
    },
    {
      "inputs": [
        {
          "internalType": "address",
          "name": "owner",
          "type": "address"
        },
        {
          "internalType": "address",
          "name": "operator",
          "type": "address"
        }
      ],
      "name": "isApprovedForAll",
      "outputs": [
        {
          "internalType": "bool",
          "name": "",
          "type": "bool"
        }
      ],
      "stateMutability": "view",
      "type": "function"
    },
    {
      "inputs": [
        {
          "internalType": "uint16",
          "name": "count",
          "type": "uint16"
        }
      ],
      "name": "mint",
      "outputs": [],
      "stateMutability": "payable",
      "type": "function"
    },
    {
      "inputs": [],
      "name": "name",
      "outputs": [
        {
          "internalType": "string",
          "name": "",
          "type": "string"
        }
      ],
      "stateMutability": "view",
      "type": "function"
    },
    {
      "inputs": [],
      "name": "notRevealedUri",
      "outputs": [
        {
          "internalType": "string",
          "name": "",
          "type": "string"
        }
      ],
      "stateMutability": "view",
      "type": "function"
    },
    {
      "inputs": [],
      "name": "owner",
      "outputs": [
        {
          "internalType": "address",
          "name": "",
          "type": "address"
        }
      ],
      "stateMutability": "view",
      "type": "function"
    },
    {
      "inputs": [
        {
          "internalType": "uint256",
          "name": "tokenId",
          "type": "uint256"
        }
      ],
      "name": "ownerOf",
      "outputs": [
        {
          "internalType": "address",
          "name": "",
          "type": "address"
        }
      ],
      "stateMutability": "view",
      "type": "function"
    },
    {
      "inputs": [],
      "name": "renounceOwnership",
      "outputs": [],
      "stateMutability": "nonpayable",
      "type": "function"
    },
    {
      "inputs": [],
      "name": "reveal",
      "outputs": [],
      "stateMutability": "nonpayable",
      "type": "function"
    },
    {
      "inputs": [],
      "name": "revealed",
      "outputs": [
        {
          "internalType": "bool",
          "name": "",
          "type": "bool"
        }
      ],
      "stateMutability": "view",
      "type": "function"
    },
    {
      "inputs": [
        {
          "internalType": "address",
          "name": "from",
          "type": "address"
        },
        {
          "internalType": "address",
          "name": "to",
          "type": "address"
        },
        {
          "internalType": "uint256",
          "name": "tokenId",
          "type": "uint256"
        }
      ],
      "name": "safeTransferFrom",
      "outputs": [],
      "stateMutability": "nonpayable",
      "type": "function"
    },
    {
      "inputs": [
        {
          "internalType": "address",
          "name": "from",
          "type": "address"
        },
        {
          "internalType": "address",
          "name": "to",
          "type": "address"
        },
        {
          "internalType": "uint256",
          "name": "tokenId",
          "type": "uint256"
        },
        {
          "internalType": "bytes",
          "name": "_data",
          "type": "bytes"
        }
      ],
      "name": "safeTransferFrom",
      "outputs": [],
      "stateMutability": "nonpayable",
      "type": "function"
    },
    {
      "inputs": [],
      "name": "saleIsActive",
      "outputs": [
        {
          "internalType": "bool",
          "name": "",
          "type": "bool"
        }
      ],
      "stateMutability": "view",
      "type": "function"
    },
    {
      "inputs": [
        {
          "internalType": "address",
          "name": "operator",
          "type": "address"
        },
        {
          "internalType": "bool",
          "name": "approved",
          "type": "bool"
        }
      ],
      "name": "setApprovalForAll",
      "outputs": [],
      "stateMutability": "nonpayable",
      "type": "function"
    },
    {
      "inputs": [
        {
          "internalType": "string",
          "name": "_newBaseExtension",
          "type": "string"
        }
      ],
      "name": "setBaseExtension",
      "outputs": [],
      "stateMutability": "nonpayable",
      "type": "function"
    },
    {
      "inputs": [
        {
          "internalType": "string",
          "name": "_newBaseURI",
          "type": "string"
        }
      ],
      "name": "setBaseURI",
      "outputs": [],
      "stateMutability": "nonpayable",
      "type": "function"
    },
    {
      "inputs": [
        {
          "internalType": "string",
          "name": "_notRevealedURI",
          "type": "string"
        }
      ],
      "name": "setNotRevealedURI",
      "outputs": [],
      "stateMutability": "nonpayable",
      "type": "function"
    },
    {
      "inputs": [
        {
          "internalType": "bool",
          "name": "saleIsActive_",
          "type": "bool"
        }
      ],
      "name": "setSaleIsActive",
      "outputs": [],
      "stateMutability": "nonpayable",
      "type": "function"
    },
    {
      "inputs": [
        {
          "internalType": "bytes4",
          "name": "interfaceId",
          "type": "bytes4"
        }
      ],
      "name": "supportsInterface",
      "outputs": [
        {
          "internalType": "bool",
          "name": "",
          "type": "bool"
        }
      ],
      "stateMutability": "view",
      "type": "function"
    },
    {
      "inputs": [],
      "name": "symbol",
      "outputs": [
        {
          "internalType": "string",
          "name": "",
          "type": "string"
        }
      ],
      "stateMutability": "view",
      "type": "function"
    },
    {
      "inputs": [
        {
          "internalType": "uint256",
          "name": "index",
          "type": "uint256"
        }
      ],
      "name": "tokenByIndex",
      "outputs": [
        {
          "internalType": "uint256",
          "name": "",
          "type": "uint256"
        }
      ],
      "stateMutability": "view",
      "type": "function"
    },
    {
      "inputs": [
        {
          "internalType": "address",
          "name": "owner",
          "type": "address"
        },
        {
          "internalType": "uint256",
          "name": "index",
          "type": "uint256"
        }
      ],
      "name": "tokenOfOwnerByIndex",
      "outputs": [
        {
          "internalType": "uint256",
          "name": "",
          "type": "uint256"
        }
      ],
      "stateMutability": "view",
      "type": "function"
    },
    {
      "inputs": [
        {
          "internalType": "uint256",
          "name": "_tokenId",
          "type": "uint256"
        }
      ],
      "name": "tokenURI",
      "outputs": [
        {
          "internalType": "string",
          "name": "",
          "type": "string"
        }
      ],
      "stateMutability": "view",
      "type": "function"
    },
    {
      "inputs": [],
      "name": "totalSupply",
      "outputs": [
        {
          "internalType": "uint256",
          "name": "",
          "type": "uint256"
        }
      ],
      "stateMutability": "view",
      "type": "function"
    },
    {
      "inputs": [
        {
          "internalType": "address",
          "name": "from",
          "type": "address"
        },
        {
          "internalType": "address",
          "name": "to",
          "type": "address"
        },
        {
          "internalType": "uint256",
          "name": "tokenId",
          "type": "uint256"
        }
      ],
      "name": "transferFrom",
      "outputs": [],
      "stateMutability": "nonpayable",
      "type": "function"
    },
    {
      "inputs": [
        {
          "internalType": "address",
          "name": "newOwner",
          "type": "address"
        }
      ],
      "name": "transferOwnership",
      "outputs": [],
      "stateMutability": "nonpayable",
      "type": "function"
    },
    {
      "inputs": [],
      "name": "withdraw",
      "outputs": [],
      "stateMutability": "payable",
      "type": "function"
    }
  ],
  "bytecode": "0x60806040526000600b60146101000a81548160ff0219169083151502179055506040518060400160405280600581526020017f2e6a736f6e000000000000000000000000000000000000000000000000000000815250600e90805190602001906200006c929190620002d6565b506001600f60006101000a81548160ff0219169083151502179055503480156200009557600080fd5b5060405162004d8638038062004d868339818101604052810190620000bb919062000404565b82828160009080519060200190620000d5929190620002d6565b508060019080519060200190620000ee929190620002d6565b5050506001600a81905550620001196200010d6200013360201b60201c565b6200013b60201b60201c565b6200012a816200020160201b60201c565b505050620006c4565b600033905090565b6000600b60009054906101000a900473ffffffffffffffffffffffffffffffffffffffff16905081600b60006101000a81548173ffffffffffffffffffffffffffffffffffffffff021916908373ffffffffffffffffffffffffffffffffffffffff1602179055508173ffffffffffffffffffffffffffffffffffffffff168173ffffffffffffffffffffffffffffffffffffffff167f8be0079c531659141344cd1fd0a4f28419497f9722a3daafe3b4186f6b6457e060405160405180910390a35050565b620002116200013360201b60201c565b73ffffffffffffffffffffffffffffffffffffffff1662000237620002ac60201b60201c565b73ffffffffffffffffffffffffffffffffffffffff161462000290576040517f08c379a00000000000000000000000000000000000000000000000000000000081526004016200028790620004e4565b60405180910390fd5b80600c9080519060200190620002a8929190620002d6565b5050565b6000600b60009054906101000a900473ffffffffffffffffffffffffffffffffffffffff16905090565b828054620002e490620005ac565b90600052602060002090601f01602090048101928262000308576000855562000354565b82601f106200032357805160ff191683800117855562000354565b8280016001018555821562000354579182015b828111156200035357825182559160200191906001019062000336565b5b50905062000363919062000367565b5090565b5b808211156200038257600081600090555060010162000368565b5090565b60006200039d62000397846200052f565b62000506565b905082815260208101848484011115620003bc57620003bb6200067b565b5b620003c984828562000576565b509392505050565b600082601f830112620003e957620003e862000676565b5b8151620003fb84826020860162000386565b91505092915050565b60008060006060848603121562000420576200041f62000685565b5b600084015167ffffffffffffffff81111562000441576200044062000680565b5b6200044f86828701620003d1565b935050602084015167ffffffffffffffff81111562000473576200047262000680565b5b6200048186828701620003d1565b925050604084015167ffffffffffffffff811115620004a557620004a462000680565b5b620004b386828701620003d1565b9150509250925092565b6000620004cc60208362000565565b9150620004d9826200069b565b602082019050919050565b60006020820190508181036000830152620004ff81620004bd565b9050919050565b60006200051262000525565b9050620005208282620005e2565b919050565b6000604051905090565b600067ffffffffffffffff8211156200054d576200054c62000647565b5b62000558826200068a565b9050602081019050919050565b600082825260208201905092915050565b60005b838110156200059657808201518184015260208101905062000579565b83811115620005a6576000848401525b50505050565b60006002820490506001821680620005c557607f821691505b60208210811415620005dc57620005db62000618565b5b50919050565b620005ed826200068a565b810181811067ffffffffffffffff821117156200060f576200060e62000647565b5b80604052505050565b7f4e487b7100000000000000000000000000000000000000000000000000000000600052602260045260246000fd5b7f4e487b7100000000000000000000000000000000000000000000000000000000600052604160045260246000fd5b600080fd5b600080fd5b600080fd5b600080fd5b6000601f19601f8301169050919050565b7f4f776e61626c653a2063616c6c6572206973206e6f7420746865206f776e6572600082015250565b6146b280620006d46000396000f3fe6080604052600436106101f95760003560e01c806370a082311161010d578063b88d4fde116100a0578063da3ef23f1161006f578063da3ef23f146106f5578063e985e9c51461071e578063eb8d24441461075b578063f2c4ce1e14610786578063f2fde38b146107af576101f9565b8063b88d4fde14610639578063b8fc105114610662578063c66828621461068d578063c87b56dd146106b8576101f9565b80638da5cb5b116100dc5780638da5cb5b146105a357806395d89b41146105ce578063a22cb465146105f9578063a475b5dd14610622576101f9565b806370a08231146104f9578063715018a614610536578063764267b61461054d5780638d859f3e14610578576101f9565b806323cf0a221161019057806342842e0e1161015f57806342842e0e146104025780634f6ccce71461042b578063518302271461046857806355f804b3146104935780636352211e146104bc576101f9565b806323cf0a22146103745780632f745c591461039057806332cb6b0c146103cd5780633ccfd60b146103f8576101f9565b8063081c8c44116101cc578063081c8c44146102cc578063095ea7b3146102f757806318160ddd1461032057806323b872dd1461034b576101f9565b806301ffc9a7146101fe57806302c889891461023b57806306fdde0314610264578063081812fc1461028f575b600080fd5b34801561020a57600080fd5b5061022560048036038101906102209190613066565b6107d8565b604051610232919061370b565b60405180910390f35b34801561024757600080fd5b50610262600480360381019061025d9190613039565b610852565b005b34801561027057600080fd5b506102796108eb565b6040516102869190613726565b60405180910390f35b34801561029b57600080fd5b506102b660048036038101906102b19190613136565b61097d565b6040516102c391906136a4565b60405180910390f35b3480156102d857600080fd5b506102e1610a02565b6040516102ee9190613726565b60405180910390f35b34801561030357600080fd5b5061031e60048036038101906103199190612ff9565b610a90565b005b34801561032c57600080fd5b50610335610ba8565b6040516103429190613a83565b60405180910390f35b34801561035757600080fd5b50610372600480360381019061036d9190612ee3565b610bb5565b005b61038e60048036038101906103899190613109565b610c15565b005b34801561039c57600080fd5b506103b760048036038101906103b29190612ff9565b610e5e565b6040516103c49190613a83565b60405180910390f35b3480156103d957600080fd5b506103e2610f03565b6040516103ef9190613a68565b60405180910390f35b610400610f09565b005b34801561040e57600080fd5b5061042960048036038101906104249190612ee3565b610ff4565b005b34801561043757600080fd5b50610452600480360381019061044d9190613136565b611014565b60405161045f9190613a83565b60405180910390f35b34801561047457600080fd5b5061047d611085565b60405161048a919061370b565b60405180910390f35b34801561049f57600080fd5b506104ba60048036038101906104b591906130c0565b611098565b005b3480156104c857600080fd5b506104e360048036038101906104de9190613136565b61112e565b6040516104f091906136a4565b60405180910390f35b34801561050557600080fd5b50610520600480360381019061051b9190612e76565b6111e0565b60405161052d9190613a83565b60405180910390f35b34801561054257600080fd5b5061054b611298565b005b34801561055957600080fd5b50610562611320565b60405161056f9190613a68565b60405180910390f35b34801561058457600080fd5b5061058d611326565b60405161059a9190613a83565b60405180910390f35b3480156105af57600080fd5b506105b8611331565b6040516105c591906136a4565b60405180910390f35b3480156105da57600080fd5b506105e361135b565b6040516105f09190613726565b60405180910390f35b34801561060557600080fd5b50610620600480360381019061061b9190612fb9565b6113ed565b005b34801561062e57600080fd5b50610637611403565b005b34801561064557600080fd5b50610660600480360381019061065b9190612f36565b61149c565b005b34801561066e57600080fd5b506106776114fe565b6040516106849190613a9e565b60405180910390f35b34801561069957600080fd5b506106a2611503565b6040516106af9190613726565b60405180910390f35b3480156106c457600080fd5b506106df60048036038101906106da9190613136565b611591565b6040516106ec9190613726565b60405180910390f35b34801561070157600080fd5b5061071c600480360381019061071791906130c0565b6116ea565b005b34801561072a57600080fd5b5061074560048036038101906107409190612ea3565b611780565b604051610752919061370b565b60405180910390f35b34801561076757600080fd5b50610770611814565b60405161077d919061370b565b60405180910390f35b34801561079257600080fd5b506107ad60048036038101906107a891906130c0565b611827565b005b3480156107bb57600080fd5b506107d660048036038101906107d19190612e76565b6118bd565b005b60007f780e9d63000000000000000000000000000000000000000000000000000000007bffffffffffffffffffffffffffffffffffffffffffffffffffffffff1916827bffffffffffffffffffffffffffffffffffffffffffffffffffffffff1916148061084b575061084a826119b5565b5b9050919050565b61085a611a97565b73ffffffffffffffffffffffffffffffffffffffff16610878611331565b73ffffffffffffffffffffffffffffffffffffffff16146108ce576040517f08c379a00000000000000000000000000000000000000000000000000000000081526004016108c590613948565b60405180910390fd5b80600f60006101000a81548160ff02191690831515021790555050565b6060600080546108fa90613d89565b80601f016020809104026020016040519081016040528092919081815260200182805461092690613d89565b80156109735780601f1061094857610100808354040283529160200191610973565b820191906000526020600020905b81548152906001019060200180831161095657829003601f168201915b5050505050905090565b600061098882611a9f565b6109c7576040517f08c379a00000000000000000000000000000000000000000000000000000000081526004016109be90613928565b60405180910390fd5b6004600083815260200190815260200160002060009054906101000a900473ffffffffffffffffffffffffffffffffffffffff169050919050565b600c8054610a0f90613d89565b80601f0160208091040260200160405190810160405280929190818152602001828054610a3b90613d89565b8015610a885780601f10610a5d57610100808354040283529160200191610a88565b820191906000526020600020905b815481529060010190602001808311610a6b57829003601f168201915b505050505081565b6000610a9b8261112e565b90508073ffffffffffffffffffffffffffffffffffffffff168373ffffffffffffffffffffffffffffffffffffffff161415610b0c576040517f08c379a0000000000000000000000000000000000000000000000000000000008152600401610b03906139e8565b60405180910390fd5b8073ffffffffffffffffffffffffffffffffffffffff16610b2b611a97565b73ffffffffffffffffffffffffffffffffffffffff161480610b5a5750610b5981610b54611a97565b611780565b5b610b99576040517f08c379a0000000000000000000000000000000000000000000000000000000008152600401610b9090613888565b60405180910390fd5b610ba38383611b0b565b505050565b6000600880549050905090565b610bc6610bc0611a97565b82611bc4565b610c05576040517f08c379a0000000000000000000000000000000000000000000000000000000008152600401610bfc90613a08565b60405180910390fd5b610c10838383611ca2565b505050565b6002600a541415610c5b576040517f08c379a0000000000000000000000000000000000000000000000000000000008152600401610c5290613a48565b60405180910390fd5b6002600a81905550600f60009054906101000a900460ff16610cb2576040517f08c379a0000000000000000000000000000000000000000000000000000000008152600401610ca990613868565b60405180910390fd5b610d0561ffff1660018261ffff16610cc8610ba8565b610cd29190613ba3565b610cdc9190613c84565b10610d1c576040517f08c379a0000000000000000000000000000000000000000000000000000000008152600401610d13906138e8565b60405180910390fd5b600760ff168161ffff161115610d67576040517f08c379a0000000000000000000000000000000000000000000000000000000008152600401610d5e90613988565b60405180910390fd5b61045761ffff16610d76610ba8565b11610db05760005b8161ffff16811015610dae57610d9b33610d96610ba8565b611efe565b8080610da690613dec565b915050610d7e565b505b61045761ffff16610dbf610ba8565b1115610e53578061ffff166671afd498d00000610ddc9190613c2a565b341015610e1e576040517f08c379a0000000000000000000000000000000000000000000000000000000008152600401610e1590613968565b60405180910390fd5b60005b8161ffff16811015610e5157610e3e33610e39610ba8565b611efe565b8080610e4990613dec565b915050610e21565b505b6001600a8190555050565b6000610e69836111e0565b8210610eaa576040517f08c379a0000000000000000000000000000000000000000000000000000000008152600401610ea190613748565b60405180910390fd5b600660008473ffffffffffffffffffffffffffffffffffffffff1673ffffffffffffffffffffffffffffffffffffffff168152602001908152602001600020600083815260200190815260200160002054905092915050565b610d0581565b6002600a541415610f4f576040517f08c379a0000000000000000000000000000000000000000000000000000000008152600401610f4690613a48565b60405180910390fd5b6002600a81905550610f5f611a97565b73ffffffffffffffffffffffffffffffffffffffff16610f7d611331565b73ffffffffffffffffffffffffffffffffffffffff1614610fd3576040517f08c379a0000000000000000000000000000000000000000000000000000000008152600401610fca90613948565b60405180910390fd5b6000479050610fe9610fe3611331565b826120cc565b506001600a81905550565b61100f8383836040518060200160405280600081525061149c565b505050565b600061101e610ba8565b821061105f576040517f08c379a000000000000000000000000000000000000000000000000000000000815260040161105690613a28565b60405180910390fd5b6008828154811061107357611072613f22565b5b90600052602060002001549050919050565b600b60149054906101000a900460ff1681565b6110a0611a97565b73ffffffffffffffffffffffffffffffffffffffff166110be611331565b73ffffffffffffffffffffffffffffffffffffffff1614611114576040517f08c379a000000000000000000000000000000000000000000000000000000000815260040161110b90613948565b60405180910390fd5b80600d908051906020019061112a929190612c75565b5050565b6000806002600084815260200190815260200160002060009054906101000a900473ffffffffffffffffffffffffffffffffffffffff169050600073ffffffffffffffffffffffffffffffffffffffff168173ffffffffffffffffffffffffffffffffffffffff1614156111d7576040517f08c379a00000000000000000000000000000000000000000000000000000000081526004016111ce906138c8565b60405180910390fd5b80915050919050565b60008073ffffffffffffffffffffffffffffffffffffffff168273ffffffffffffffffffffffffffffffffffffffff161415611251576040517f08c379a0000000000000000000000000000000000000000000000000000000008152600401611248906138a8565b60405180910390fd5b600360008373ffffffffffffffffffffffffffffffffffffffff1673ffffffffffffffffffffffffffffffffffffffff168152602001908152602001600020549050919050565b6112a0611a97565b73ffffffffffffffffffffffffffffffffffffffff166112be611331565b73ffffffffffffffffffffffffffffffffffffffff1614611314576040517f08c379a000000000000000000000000000000000000000000000000000000000815260040161130b90613948565b60405180910390fd5b61131e60006121c0565b565b61045781565b6671afd498d0000081565b6000600b60009054906101000a900473ffffffffffffffffffffffffffffffffffffffff16905090565b60606001805461136a90613d89565b80601f016020809104026020016040519081016040528092919081815260200182805461139690613d89565b80156113e35780601f106113b8576101008083540402835291602001916113e3565b820191906000526020600020905b8154815290600101906020018083116113c657829003601f168201915b5050505050905090565b6113ff6113f8611a97565b8383612286565b5050565b61140b611a97565b73ffffffffffffffffffffffffffffffffffffffff16611429611331565b73ffffffffffffffffffffffffffffffffffffffff161461147f576040517f08c379a000000000000000000000000000000000000000000000000000000000815260040161147690613948565b60405180910390fd5b6001600b60146101000a81548160ff021916908315150217905550565b6114ad6114a7611a97565b83611bc4565b6114ec576040517f08c379a00000000000000000000000000000000000000000000000000000000081526004016114e390613a08565b60405180910390fd5b6114f8848484846123f3565b50505050565b600781565b600e805461151090613d89565b80601f016020809104026020016040519081016040528092919081815260200182805461153c90613d89565b80156115895780601f1061155e57610100808354040283529160200191611589565b820191906000526020600020905b81548152906001019060200180831161156c57829003601f168201915b505050505081565b606061159c82611a9f565b6115db576040517f08c379a00000000000000000000000000000000000000000000000000000000081526004016115d2906139c8565b60405180910390fd5b60001515600b60149054906101000a900460ff161515141561168957600c805461160490613d89565b80601f016020809104026020016040519081016040528092919081815260200182805461163090613d89565b801561167d5780601f106116525761010080835404028352916020019161167d565b820191906000526020600020905b81548152906001019060200180831161166057829003601f168201915b505050505090506116e5565b600061169361244f565b905060008151116116b357604051806020016040528060008152506116e1565b806116bd846124e1565b600e6040516020016116d19392919061365e565b6040516020818303038152906040525b9150505b919050565b6116f2611a97565b73ffffffffffffffffffffffffffffffffffffffff16611710611331565b73ffffffffffffffffffffffffffffffffffffffff1614611766576040517f08c379a000000000000000000000000000000000000000000000000000000000815260040161175d90613948565b60405180910390fd5b80600e908051906020019061177c929190612c75565b5050565b6000600560008473ffffffffffffffffffffffffffffffffffffffff1673ffffffffffffffffffffffffffffffffffffffff16815260200190815260200160002060008373ffffffffffffffffffffffffffffffffffffffff1673ffffffffffffffffffffffffffffffffffffffff16815260200190815260200160002060009054906101000a900460ff16905092915050565b600f60009054906101000a900460ff1681565b61182f611a97565b73ffffffffffffffffffffffffffffffffffffffff1661184d611331565b73ffffffffffffffffffffffffffffffffffffffff16146118a3576040517f08c379a000000000000000000000000000000000000000000000000000000000815260040161189a90613948565b60405180910390fd5b80600c90805190602001906118b9929190612c75565b5050565b6118c5611a97565b73ffffffffffffffffffffffffffffffffffffffff166118e3611331565b73ffffffffffffffffffffffffffffffffffffffff1614611939576040517f08c379a000000000000000000000000000000000000000000000000000000000815260040161193090613948565b60405180910390fd5b600073ffffffffffffffffffffffffffffffffffffffff168173ffffffffffffffffffffffffffffffffffffffff1614156119a9576040517f08c379a00000000000000000000000000000000000000000000000000000000081526004016119a090613788565b60405180910390fd5b6119b2816121c0565b50565b60007f80ac58cd000000000000000000000000000000000000000000000000000000007bffffffffffffffffffffffffffffffffffffffffffffffffffffffff1916827bffffffffffffffffffffffffffffffffffffffffffffffffffffffff19161480611a8057507f5b5e139f000000000000000000000000000000000000000000000000000000007bffffffffffffffffffffffffffffffffffffffffffffffffffffffff1916827bffffffffffffffffffffffffffffffffffffffffffffffffffffffff1916145b80611a905750611a8f82612642565b5b9050919050565b600033905090565b60008073ffffffffffffffffffffffffffffffffffffffff166002600084815260200190815260200160002060009054906101000a900473ffffffffffffffffffffffffffffffffffffffff1673ffffffffffffffffffffffffffffffffffffffff1614159050919050565b816004600083815260200190815260200160002060006101000a81548173ffffffffffffffffffffffffffffffffffffffff021916908373ffffffffffffffffffffffffffffffffffffffff160217905550808273ffffffffffffffffffffffffffffffffffffffff16611b7e8361112e565b73ffffffffffffffffffffffffffffffffffffffff167f8c5be1e5ebec7d5bd14f71427d1e84f3dd0314c0f7b2291e5b200ac8c7c3b92560405160405180910390a45050565b6000611bcf82611a9f565b611c0e576040517f08c379a0000000000000000000000000000000000000000000000000000000008152600401611c0590613848565b60405180910390fd5b6000611c198361112e565b90508073ffffffffffffffffffffffffffffffffffffffff168473ffffffffffffffffffffffffffffffffffffffff161480611c8857508373ffffffffffffffffffffffffffffffffffffffff16611c708461097d565b73ffffffffffffffffffffffffffffffffffffffff16145b80611c995750611c988185611780565b5b91505092915050565b8273ffffffffffffffffffffffffffffffffffffffff16611cc28261112e565b73ffffffffffffffffffffffffffffffffffffffff1614611d18576040517f08c379a0000000000000000000000000000000000000000000000000000000008152600401611d0f906139a8565b60405180910390fd5b600073ffffffffffffffffffffffffffffffffffffffff168273ffffffffffffffffffffffffffffffffffffffff161415611d88576040517f08c379a0000000000000000000000000000000000000000000000000000000008152600401611d7f906137c8565b60405180910390fd5b611d938383836126ac565b611d9e600082611b0b565b6001600360008573ffffffffffffffffffffffffffffffffffffffff1673ffffffffffffffffffffffffffffffffffffffff1681526020019081526020016000206000828254611dee9190613c84565b925050819055506001600360008473ffffffffffffffffffffffffffffffffffffffff1673ffffffffffffffffffffffffffffffffffffffff1681526020019081526020016000206000828254611e459190613ba3565b92505081905550816002600083815260200190815260200160002060006101000a81548173ffffffffffffffffffffffffffffffffffffffff021916908373ffffffffffffffffffffffffffffffffffffffff160217905550808273ffffffffffffffffffffffffffffffffffffffff168473ffffffffffffffffffffffffffffffffffffffff167fddf252ad1be2c89b69c2b068fc378daa952ba7f163c4a11628f55a4df523b3ef60405160405180910390a4505050565b600073ffffffffffffffffffffffffffffffffffffffff168273ffffffffffffffffffffffffffffffffffffffff161415611f6e576040517f08c379a0000000000000000000000000000000000000000000000000000000008152600401611f6590613908565b60405180910390fd5b611f7781611a9f565b15611fb7576040517f08c379a0000000000000000000000000000000000000000000000000000000008152600401611fae906137a8565b60405180910390fd5b611fc3600083836126ac565b6001600360008473ffffffffffffffffffffffffffffffffffffffff1673ffffffffffffffffffffffffffffffffffffffff16815260200190815260200160002060008282546120139190613ba3565b92505081905550816002600083815260200190815260200160002060006101000a81548173ffffffffffffffffffffffffffffffffffffffff021916908373ffffffffffffffffffffffffffffffffffffffff160217905550808273ffffffffffffffffffffffffffffffffffffffff16600073ffffffffffffffffffffffffffffffffffffffff167fddf252ad1be2c89b69c2b068fc378daa952ba7f163c4a11628f55a4df523b3ef60405160405180910390a45050565b8047101561210f576040517f08c379a000000000000000000000000000000000000000000000000000000000815260040161210690613828565b60405180910390fd5b60008273ffffffffffffffffffffffffffffffffffffffff16826040516121359061368f565b60006040518083038185875af1925050503d8060008114612172576040519150601f19603f3d011682016040523d82523d6000602084013e612177565b606091505b50509050806121bb576040517f08c379a00000000000000000000000000000000000000000000000000000000081526004016121b290613808565b60405180910390fd5b505050565b6000600b60009054906101000a900473ffffffffffffffffffffffffffffffffffffffff16905081600b60006101000a81548173ffffffffffffffffffffffffffffffffffffffff021916908373ffffffffffffffffffffffffffffffffffffffff1602179055508173ffffffffffffffffffffffffffffffffffffffff168173ffffffffffffffffffffffffffffffffffffffff167f8be0079c531659141344cd1fd0a4f28419497f9722a3daafe3b4186f6b6457e060405160405180910390a35050565b8173ffffffffffffffffffffffffffffffffffffffff168373ffffffffffffffffffffffffffffffffffffffff1614156122f5576040517f08c379a00000000000000000000000000000000000000000000000000000000081526004016122ec906137e8565b60405180910390fd5b80600560008573ffffffffffffffffffffffffffffffffffffffff1673ffffffffffffffffffffffffffffffffffffffff16815260200190815260200160002060008473ffffffffffffffffffffffffffffffffffffffff1673ffffffffffffffffffffffffffffffffffffffff16815260200190815260200160002060006101000a81548160ff0219169083151502179055508173ffffffffffffffffffffffffffffffffffffffff168373ffffffffffffffffffffffffffffffffffffffff167f17307eab39ab6107e8899845ad3d59bd9653f200f220920489ca2b5937696c31836040516123e6919061370b565b60405180910390a3505050565b6123fe848484611ca2565b61240a848484846127c0565b612449576040517f08c379a000000000000000000000000000000000000000000000000000000000815260040161244090613768565b60405180910390fd5b50505050565b6060600d805461245e90613d89565b80601f016020809104026020016040519081016040528092919081815260200182805461248a90613d89565b80156124d75780601f106124ac576101008083540402835291602001916124d7565b820191906000526020600020905b8154815290600101906020018083116124ba57829003601f168201915b5050505050905090565b60606000821415612529576040518060400160405280600181526020017f3000000000000000000000000000000000000000000000000000000000000000815250905061263d565b600082905060005b6000821461255b57808061254490613dec565b915050600a826125549190613bf9565b9150612531565b60008167ffffffffffffffff81111561257757612576613f51565b5b6040519080825280601f01601f1916602001820160405280156125a95781602001600182028036833780820191505090505b5090505b60008514612636576001826125c29190613c84565b9150600a856125d19190613e35565b60306125dd9190613ba3565b60f81b8183815181106125f3576125f2613f22565b5b60200101907effffffffffffffffffffffffffffffffffffffffffffffffffffffffffffff1916908160001a905350600a8561262f9190613bf9565b94506125ad565b8093505050505b919050565b60007f01ffc9a7000000000000000000000000000000000000000000000000000000007bffffffffffffffffffffffffffffffffffffffffffffffffffffffff1916827bffffffffffffffffffffffffffffffffffffffffffffffffffffffff1916149050919050565b6126b7838383612957565b600073ffffffffffffffffffffffffffffffffffffffff168373ffffffffffffffffffffffffffffffffffffffff1614156126fa576126f58161295c565b612739565b8173ffffffffffffffffffffffffffffffffffffffff168373ffffffffffffffffffffffffffffffffffffffff16146127385761273783826129a5565b5b5b600073ffffffffffffffffffffffffffffffffffffffff168273ffffffffffffffffffffffffffffffffffffffff16141561277c5761277781612b12565b6127bb565b8273ffffffffffffffffffffffffffffffffffffffff168273ffffffffffffffffffffffffffffffffffffffff16146127ba576127b98282612be3565b5b5b505050565b60006127e18473ffffffffffffffffffffffffffffffffffffffff16612c62565b1561294a578373ffffffffffffffffffffffffffffffffffffffff1663150b7a0261280a611a97565b8786866040518563ffffffff1660e01b815260040161282c94939291906136bf565b602060405180830381600087803b15801561284657600080fd5b505af192505050801561287757506040513d601f19601f820116820180604052508101906128749190613093565b60015b6128fa573d80600081146128a7576040519150601f19603f3d011682016040523d82523d6000602084013e6128ac565b606091505b506000815114156128f2576040517f08c379a00000000000000000000000000000000000000000000000000000000081526004016128e990613768565b60405180910390fd5b805181602001fd5b63150b7a0260e01b7bffffffffffffffffffffffffffffffffffffffffffffffffffffffff1916817bffffffffffffffffffffffffffffffffffffffffffffffffffffffff19161491505061294f565b600190505b949350505050565b505050565b6008805490506009600083815260200190815260200160002081905550600881908060018154018082558091505060019003906000526020600020016000909190919091505550565b600060016129b2846111e0565b6129bc9190613c84565b9050600060076000848152602001908152602001600020549050818114612aa1576000600660008673ffffffffffffffffffffffffffffffffffffffff1673ffffffffffffffffffffffffffffffffffffffff168152602001908152602001600020600084815260200190815260200160002054905080600660008773ffffffffffffffffffffffffffffffffffffffff1673ffffffffffffffffffffffffffffffffffffffff168152602001908152602001600020600084815260200190815260200160002081905550816007600083815260200190815260200160002081905550505b6007600084815260200190815260200160002060009055600660008573ffffffffffffffffffffffffffffffffffffffff1673ffffffffffffffffffffffffffffffffffffffff16815260200190815260200160002060008381526020019081526020016000206000905550505050565b60006001600880549050612b269190613c84565b9050600060096000848152602001908152602001600020549050600060088381548110612b5657612b55613f22565b5b906000526020600020015490508060088381548110612b7857612b77613f22565b5b906000526020600020018190555081600960008381526020019081526020016000208190555060096000858152602001908152602001600020600090556008805480612bc757612bc6613ef3565b5b6001900381819060005260206000200160009055905550505050565b6000612bee836111e0565b905081600660008573ffffffffffffffffffffffffffffffffffffffff1673ffffffffffffffffffffffffffffffffffffffff168152602001908152602001600020600083815260200190815260200160002081905550806007600084815260200190815260200160002081905550505050565b600080823b905060008111915050919050565b828054612c8190613d89565b90600052602060002090601f016020900481019282612ca35760008555612cea565b82601f10612cbc57805160ff1916838001178555612cea565b82800160010185558215612cea579182015b82811115612ce9578251825591602001919060010190612cce565b5b509050612cf79190612cfb565b5090565b5b80821115612d14576000816000905550600101612cfc565b5090565b6000612d2b612d2684613ade565b613ab9565b905082815260208101848484011115612d4757612d46613f85565b5b612d52848285613d47565b509392505050565b6000612d6d612d6884613b0f565b613ab9565b905082815260208101848484011115612d8957612d88613f85565b5b612d94848285613d47565b509392505050565b600081359050612dab81614609565b92915050565b600081359050612dc081614620565b92915050565b600081359050612dd581614637565b92915050565b600081519050612dea81614637565b92915050565b600082601f830112612e0557612e04613f80565b5b8135612e15848260208601612d18565b91505092915050565b600082601f830112612e3357612e32613f80565b5b8135612e43848260208601612d5a565b91505092915050565b600081359050612e5b8161464e565b92915050565b600081359050612e7081614665565b92915050565b600060208284031215612e8c57612e8b613f8f565b5b6000612e9a84828501612d9c565b91505092915050565b60008060408385031215612eba57612eb9613f8f565b5b6000612ec885828601612d9c565b9250506020612ed985828601612d9c565b9150509250929050565b600080600060608486031215612efc57612efb613f8f565b5b6000612f0a86828701612d9c565b9350506020612f1b86828701612d9c565b9250506040612f2c86828701612e61565b9150509250925092565b60008060008060808587031215612f5057612f4f613f8f565b5b6000612f5e87828801612d9c565b9450506020612f6f87828801612d9c565b9350506040612f8087828801612e61565b925050606085013567ffffffffffffffff811115612fa157612fa0613f8a565b5b612fad87828801612df0565b91505092959194509250565b60008060408385031215612fd057612fcf613f8f565b5b6000612fde85828601612d9c565b9250506020612fef85828601612db1565b9150509250929050565b600080604083850312156130105761300f613f8f565b5b600061301e85828601612d9c565b925050602061302f85828601612e61565b9150509250929050565b60006020828403121561304f5761304e613f8f565b5b600061305d84828501612db1565b91505092915050565b60006020828403121561307c5761307b613f8f565b5b600061308a84828501612dc6565b91505092915050565b6000602082840312156130a9576130a8613f8f565b5b60006130b784828501612ddb565b91505092915050565b6000602082840312156130d6576130d5613f8f565b5b600082013567ffffffffffffffff8111156130f4576130f3613f8a565b5b61310084828501612e1e565b91505092915050565b60006020828403121561311f5761311e613f8f565b5b600061312d84828501612e4c565b91505092915050565b60006020828403121561314c5761314b613f8f565b5b600061315a84828501612e61565b91505092915050565b61316c81613cb8565b82525050565b61317b81613cca565b82525050565b600061318c82613b55565b6131968185613b6b565b93506131a6818560208601613d56565b6131af81613f94565b840191505092915050565b60006131c582613b60565b6131cf8185613b87565b93506131df818560208601613d56565b6131e881613f94565b840191505092915050565b60006131fe82613b60565b6132088185613b98565b9350613218818560208601613d56565b80840191505092915050565b6000815461323181613d89565b61323b8186613b98565b9450600182166000811461325657600181146132675761329a565b60ff1983168652818601935061329a565b61327085613b40565b60005b8381101561329257815481890152600182019150602081019050613273565b838801955050505b50505092915050565b60006132b0602b83613b87565b91506132bb82613fa5565b604082019050919050565b60006132d3603283613b87565b91506132de82613ff4565b604082019050919050565b60006132f6602683613b87565b915061330182614043565b604082019050919050565b6000613319601c83613b87565b915061332482614092565b602082019050919050565b600061333c602483613b87565b9150613347826140bb565b604082019050919050565b600061335f601983613b87565b915061336a8261410a565b602082019050919050565b6000613382603a83613b87565b915061338d82614133565b604082019050919050565b60006133a5601d83613b87565b91506133b082614182565b602082019050919050565b60006133c8602c83613b87565b91506133d3826141ab565b604082019050919050565b60006133eb600f83613b87565b91506133f6826141fa565b602082019050919050565b600061340e603883613b87565b915061341982614223565b604082019050919050565b6000613431602a83613b87565b915061343c82614272565b604082019050919050565b6000613454602983613b87565b915061345f826142c1565b604082019050919050565b6000613477601283613b87565b915061348282614310565b602082019050919050565b600061349a602083613b87565b91506134a582614339565b602082019050919050565b60006134bd602c83613b87565b91506134c882614362565b604082019050919050565b60006134e0602083613b87565b91506134eb826143b1565b602082019050919050565b6000613503602883613b87565b915061350e826143da565b604082019050919050565b6000613526601883613b87565b915061353182614429565b602082019050919050565b6000613549602983613b87565b915061355482614452565b604082019050919050565b600061356c602f83613b87565b9150613577826144a1565b604082019050919050565b600061358f602183613b87565b915061359a826144f0565b604082019050919050565b60006135b2600083613b7c565b91506135bd8261453f565b600082019050919050565b60006135d5603183613b87565b91506135e082614542565b604082019050919050565b60006135f8602c83613b87565b915061360382614591565b604082019050919050565b600061361b601f83613b87565b9150613626826145e0565b602082019050919050565b61363a81613d02565b82525050565b61364981613d30565b82525050565b61365881613d3a565b82525050565b600061366a82866131f3565b915061367682856131f3565b91506136828284613224565b9150819050949350505050565b600061369a826135a5565b9150819050919050565b60006020820190506136b96000830184613163565b92915050565b60006080820190506136d46000830187613163565b6136e16020830186613163565b6136ee6040830185613640565b81810360608301526137008184613181565b905095945050505050565b60006020820190506137206000830184613172565b92915050565b6000602082019050818103600083015261374081846131ba565b905092915050565b60006020820190508181036000830152613761816132a3565b9050919050565b60006020820190508181036000830152613781816132c6565b9050919050565b600060208201905081810360008301526137a1816132e9565b9050919050565b600060208201905081810360008301526137c18161330c565b9050919050565b600060208201905081810360008301526137e18161332f565b9050919050565b6000602082019050818103600083015261380181613352565b9050919050565b6000602082019050818103600083015261382181613375565b9050919050565b6000602082019050818103600083015261384181613398565b9050919050565b60006020820190508181036000830152613861816133bb565b9050919050565b60006020820190508181036000830152613881816133de565b9050919050565b600060208201905081810360008301526138a181613401565b9050919050565b600060208201905081810360008301526138c181613424565b9050919050565b600060208201905081810360008301526138e181613447565b9050919050565b600060208201905081810360008301526139018161346a565b9050919050565b600060208201905081810360008301526139218161348d565b9050919050565b60006020820190508181036000830152613941816134b0565b9050919050565b60006020820190508181036000830152613961816134d3565b9050919050565b60006020820190508181036000830152613981816134f6565b9050919050565b600060208201905081810360008301526139a181613519565b9050919050565b600060208201905081810360008301526139c18161353c565b9050919050565b600060208201905081810360008301526139e18161355f565b9050919050565b60006020820190508181036000830152613a0181613582565b9050919050565b60006020820190508181036000830152613a21816135c8565b9050919050565b60006020820190508181036000830152613a41816135eb565b9050919050565b60006020820190508181036000830152613a618161360e565b9050919050565b6000602082019050613a7d6000830184613631565b92915050565b6000602082019050613a986000830184613640565b92915050565b6000602082019050613ab3600083018461364f565b92915050565b6000613ac3613ad4565b9050613acf8282613dbb565b919050565b6000604051905090565b600067ffffffffffffffff821115613af957613af8613f51565b5b613b0282613f94565b9050602081019050919050565b600067ffffffffffffffff821115613b2a57613b29613f51565b5b613b3382613f94565b9050602081019050919050565b60008190508160005260206000209050919050565b600081519050919050565b600081519050919050565b600082825260208201905092915050565b600081905092915050565b600082825260208201905092915050565b600081905092915050565b6000613bae82613d30565b9150613bb983613d30565b9250827fffffffffffffffffffffffffffffffffffffffffffffffffffffffffffffffff03821115613bee57613bed613e66565b5b828201905092915050565b6000613c0482613d30565b9150613c0f83613d30565b925082613c1f57613c1e613e95565b5b828204905092915050565b6000613c3582613d30565b9150613c4083613d30565b9250817fffffffffffffffffffffffffffffffffffffffffffffffffffffffffffffffff0483118215151615613c7957613c78613e66565b5b828202905092915050565b6000613c8f82613d30565b9150613c9a83613d30565b925082821015613cad57613cac613e66565b5b828203905092915050565b6000613cc382613d10565b9050919050565b60008115159050919050565b60007fffffffff0000000000000000000000000000000000000000000000000000000082169050919050565b600061ffff82169050919050565b600073ffffffffffffffffffffffffffffffffffffffff82169050919050565b6000819050919050565b600060ff82169050919050565b82818337600083830152505050565b60005b83811015613d74578082015181840152602081019050613d59565b83811115613d83576000848401525b50505050565b60006002820490506001821680613da157607f821691505b60208210811415613db557613db4613ec4565b5b50919050565b613dc482613f94565b810181811067ffffffffffffffff82111715613de357613de2613f51565b5b80604052505050565b6000613df782613d30565b91507fffffffffffffffffffffffffffffffffffffffffffffffffffffffffffffffff821415613e2a57613e29613e66565b5b600182019050919050565b6000613e4082613d30565b9150613e4b83613d30565b925082613e5b57613e5a613e95565b5b828206905092915050565b7f4e487b7100000000000000000000000000000000000000000000000000000000600052601160045260246000fd5b7f4e487b7100000000000000000000000000000000000000000000000000000000600052601260045260246000fd5b7f4e487b7100000000000000000000000000000000000000000000000000000000600052602260045260246000fd5b7f4e487b7100000000000000000000000000000000000000000000000000000000600052603160045260246000fd5b7f4e487b7100000000000000000000000000000000000000000000000000000000600052603260045260246000fd5b7f4e487b7100000000000000000000000000000000000000000000000000000000600052604160045260246000fd5b600080fd5b600080fd5b600080fd5b600080fd5b6000601f19601f8301169050919050565b7f455243373231456e756d657261626c653a206f776e657220696e646578206f7560008201527f74206f6620626f756e6473000000000000000000000000000000000000000000602082015250565b7f4552433732313a207472616e7366657220746f206e6f6e20455243373231526560008201527f63656976657220696d706c656d656e7465720000000000000000000000000000602082015250565b7f4f776e61626c653a206e6577206f776e657220697320746865207a65726f206160008201527f6464726573730000000000000000000000000000000000000000000000000000602082015250565b7f4552433732313a20746f6b656e20616c7265616479206d696e74656400000000600082015250565b7f4552433732313a207472616e7366657220746f20746865207a65726f2061646460008201527f7265737300000000000000000000000000000000000000000000000000000000602082015250565b7f4552433732313a20617070726f766520746f2063616c6c657200000000000000600082015250565b7f416464726573733a20756e61626c6520746f2073656e642076616c75652c207260008201527f6563697069656e74206d61792068617665207265766572746564000000000000602082015250565b7f416464726573733a20696e73756666696369656e742062616c616e6365000000600082015250565b7f4552433732313a206f70657261746f7220717565727920666f72206e6f6e657860008201527f697374656e7420746f6b656e0000000000000000000000000000000000000000602082015250565b7f53616c65206e6f74206163746976650000000000000000000000000000000000600082015250565b7f4552433732313a20617070726f76652063616c6c6572206973206e6f74206f7760008201527f6e6572206e6f7220617070726f76656420666f7220616c6c0000000000000000602082015250565b7f4552433732313a2062616c616e636520717565727920666f7220746865207a6560008201527f726f206164647265737300000000000000000000000000000000000000000000602082015250565b7f4552433732313a206f776e657220717565727920666f72206e6f6e657869737460008201527f656e7420746f6b656e0000000000000000000000000000000000000000000000602082015250565b7f45786365656473206d617820737570706c790000000000000000000000000000600082015250565b7f4552433732313a206d696e7420746f20746865207a65726f2061646472657373600082015250565b7f4552433732313a20617070726f76656420717565727920666f72206e6f6e657860008201527f697374656e7420746f6b656e0000000000000000000000000000000000000000602082015250565b7f4f776e61626c653a2063616c6c6572206973206e6f7420746865206f776e6572600082015250565b7f496e73756666696369656e74207061796d656e742c20302e303332204554482060008201527f706572206974656d000000000000000000000000000000000000000000000000602082015250565b7f4d696e74206174206d6f7374203720617420612074696d650000000000000000600082015250565b7f4552433732313a207472616e73666572206f6620746f6b656e2074686174206960008201527f73206e6f74206f776e0000000000000000000000000000000000000000000000602082015250565b7f4552433732314d657461646174613a2055524920717565727920666f72206e6f60008201527f6e6578697374656e7420746f6b656e0000000000000000000000000000000000602082015250565b7f4552433732313a20617070726f76616c20746f2063757272656e74206f776e6560008201527f7200000000000000000000000000000000000000000000000000000000000000602082015250565b50565b7f4552433732313a207472616e736665722063616c6c6572206973206e6f74206f60008201527f776e6572206e6f7220617070726f766564000000000000000000000000000000602082015250565b7f455243373231456e756d657261626c653a20676c6f62616c20696e646578206f60008201527f7574206f6620626f756e64730000000000000000000000000000000000000000602082015250565b7f5265656e7472616e637947756172643a207265656e7472616e742063616c6c00600082015250565b61461281613cb8565b811461461d57600080fd5b50565b61462981613cca565b811461463457600080fd5b50565b61464081613cd6565b811461464b57600080fd5b50565b61465781613d02565b811461466257600080fd5b50565b61466e81613d30565b811461467957600080fd5b5056fea26469706673582212207869eed8c51c3f44b545db56d3f60b297c5e2683bfaedbfd20a414ec4134cf0464736f6c63430008070033",
  "linkReferences": {},
  "deployedLinkReferences": {}
}