{
  "_format": "hh-sol-artifact-1",
  "contractName": "FrankenPhunks",
  "sourceName": "contracts/FrankenPhunks.sol",
  "abi": [
    {
      "inputs": [
        {
          "internalType": "string",
          "name": "_name",
          "type": "string"
        },
        {
          "internalType": "string",
          "name": "_symbol",
          "type": "string"
        },
        {
          "internalType": "address",
          "name": "_multisig",
          "type": "address"
        },
        {
          "internalType": "address",
          "name": "_initdevWallet",
          "type": "address"
        },
        {
          "internalType": "string",
          "name": "_initNotRevealedUri",
          "type": "string"
        }
      ],
      "stateMutability": "nonpayable",
      "type": "constructor"
    },
    {
      "anonymous": false,
      "inputs": [
        {
          "indexed": true,
          "internalType": "address",
          "name": "owner",
          "type": "address"
        },
        {
          "indexed": true,
          "internalType": "address",
          "name": "approved",
          "type": "address"
        },
        {
          "indexed": true,
          "internalType": "uint256",
          "name": "tokenId",
          "type": "uint256"
        }
      ],
      "name": "Approval",
      "type": "event"
    },
    {
      "anonymous": false,
      "inputs": [
        {
          "indexed": true,
          "internalType": "address",
          "name": "owner",
          "type": "address"
        },
        {
          "indexed": true,
          "internalType": "address",
          "name": "operator",
          "type": "address"
        },
        {
          "indexed": false,
          "internalType": "bool",
          "name": "approved",
          "type": "bool"
        }
      ],
      "name": "ApprovalForAll",
      "type": "event"
    },
    {
      "anonymous": false,
      "inputs": [
        {
          "indexed": true,
          "internalType": "address",
          "name": "previousOwner",
          "type": "address"
        },
        {
          "indexed": true,
          "internalType": "address",
          "name": "newOwner",
          "type": "address"
        }
      ],
      "name": "OwnershipTransferred",
      "type": "event"
    },
    {
      "anonymous": false,
      "inputs": [
        {
          "indexed": true,
          "internalType": "address",
          "name": "from",
          "type": "address"
        },
        {
          "indexed": true,
          "internalType": "address",
          "name": "to",
          "type": "address"
        },
        {
          "indexed": true,
          "internalType": "uint256",
          "name": "tokenId",
          "type": "uint256"
        }
      ],
      "name": "Transfer",
      "type": "event"
    },
    {
      "inputs": [],
      "name": "FREE_MINTS",
      "outputs": [
        {
          "internalType": "uint16",
          "name": "",
          "type": "uint16"
        }
      ],
      "stateMutability": "view",
      "type": "function"
    },
    {
      "inputs": [],
      "name": "MAX_MULTIMINT",
      "outputs": [
        {
          "internalType": "uint8",
          "name": "",
          "type": "uint8"
        }
      ],
      "stateMutability": "view",
      "type": "function"
    },
    {
      "inputs": [],
      "name": "MAX_SUPPLY",
      "outputs": [
        {
          "internalType": "uint16",
          "name": "",
          "type": "uint16"
        }
      ],
      "stateMutability": "view",
      "type": "function"
    },
    {
      "inputs": [],
      "name": "PRICE",
      "outputs": [
        {
          "internalType": "uint256",
          "name": "",
          "type": "uint256"
        }
      ],
      "stateMutability": "view",
      "type": "function"
    },
    {
      "inputs": [
        {
          "internalType": "address",
          "name": "to",
          "type": "address"
        },
        {
          "internalType": "uint256",
          "name": "tokenId",
          "type": "uint256"
        }
      ],
      "name": "approve",
      "outputs": [],
      "stateMutability": "nonpayable",
      "type": "function"
    },
    {
      "inputs": [
        {
          "internalType": "address",
          "name": "owner",
          "type": "address"
        }
      ],
      "name": "balanceOf",
      "outputs": [
        {
          "internalType": "uint256",
          "name": "",
          "type": "uint256"
        }
      ],
      "stateMutability": "view",
      "type": "function"
    },
    {
      "inputs": [],
      "name": "baseExtension",
      "outputs": [
        {
          "internalType": "string",
          "name": "",
          "type": "string"
        }
      ],
      "stateMutability": "view",
      "type": "function"
    },
    {
      "inputs": [
        {
          "internalType": "uint256",
          "name": "tokenId",
          "type": "uint256"
        }
      ],
      "name": "getApproved",
      "outputs": [
        {
          "internalType": "address",
          "name": "",
          "type": "address"
        }
      ],
      "stateMutability": "view",
      "type": "function"
    },
    {
      "inputs": [],
      "name": "getBalance",
      "outputs": [
        {
          "internalType": "uint256",
          "name": "",
          "type": "uint256"
        }
      ],
      "stateMutability": "view",
      "type": "function"
    },
    {
      "inputs": [
        {
          "internalType": "address",
          "name": "owner",
          "type": "address"
        },
        {
          "internalType": "address",
          "name": "operator",
          "type": "address"
        }
      ],
      "name": "isApprovedForAll",
      "outputs": [
        {
          "internalType": "bool",
          "name": "",
          "type": "bool"
        }
      ],
      "stateMutability": "view",
      "type": "function"
    },
    {
      "inputs": [
        {
          "internalType": "uint16",
          "name": "count",
          "type": "uint16"
        }
      ],
      "name": "mint",
      "outputs": [],
      "stateMutability": "payable",
      "type": "function"
    },
    {
      "inputs": [],
      "name": "name",
      "outputs": [
        {
          "internalType": "string",
          "name": "",
          "type": "string"
        }
      ],
      "stateMutability": "view",
      "type": "function"
    },
    {
      "inputs": [],
      "name": "notRevealedUri",
      "outputs": [
        {
          "internalType": "string",
          "name": "",
          "type": "string"
        }
      ],
      "stateMutability": "view",
      "type": "function"
    },
    {
      "inputs": [],
      "name": "owner",
      "outputs": [
        {
          "internalType": "address",
          "name": "",
          "type": "address"
        }
      ],
      "stateMutability": "view",
      "type": "function"
    },
    {
      "inputs": [
        {
          "internalType": "uint256",
          "name": "tokenId",
          "type": "uint256"
        }
      ],
      "name": "ownerOf",
      "outputs": [
        {
          "internalType": "address",
          "name": "",
          "type": "address"
        }
      ],
      "stateMutability": "view",
      "type": "function"
    },
    {
      "inputs": [],
      "name": "renounceOwnership",
      "outputs": [],
      "stateMutability": "nonpayable",
      "type": "function"
    },
    {
      "inputs": [],
      "name": "reveal",
      "outputs": [],
      "stateMutability": "nonpayable",
      "type": "function"
    },
    {
      "inputs": [],
      "name": "revealed",
      "outputs": [
        {
          "internalType": "bool",
          "name": "",
          "type": "bool"
        }
      ],
      "stateMutability": "view",
      "type": "function"
    },
    {
      "inputs": [
        {
          "internalType": "address",
          "name": "from",
          "type": "address"
        },
        {
          "internalType": "address",
          "name": "to",
          "type": "address"
        },
        {
          "internalType": "uint256",
          "name": "tokenId",
          "type": "uint256"
        }
      ],
      "name": "safeTransferFrom",
      "outputs": [],
      "stateMutability": "nonpayable",
      "type": "function"
    },
    {
      "inputs": [
        {
          "internalType": "address",
          "name": "from",
          "type": "address"
        },
        {
          "internalType": "address",
          "name": "to",
          "type": "address"
        },
        {
          "internalType": "uint256",
          "name": "tokenId",
          "type": "uint256"
        },
        {
          "internalType": "bytes",
          "name": "_data",
          "type": "bytes"
        }
      ],
      "name": "safeTransferFrom",
      "outputs": [],
      "stateMutability": "nonpayable",
      "type": "function"
    },
    {
      "inputs": [
        {
          "internalType": "address",
          "name": "operator",
          "type": "address"
        },
        {
          "internalType": "bool",
          "name": "approved",
          "type": "bool"
        }
      ],
      "name": "setApprovalForAll",
      "outputs": [],
      "stateMutability": "nonpayable",
      "type": "function"
    },
    {
      "inputs": [
        {
          "internalType": "string",
          "name": "_newBaseExtension",
          "type": "string"
        }
      ],
      "name": "setBaseExtension",
      "outputs": [],
      "stateMutability": "nonpayable",
      "type": "function"
    },
    {
      "inputs": [
        {
          "internalType": "string",
          "name": "_newBaseURI",
          "type": "string"
        }
      ],
      "name": "setBaseURI",
      "outputs": [],
      "stateMutability": "nonpayable",
      "type": "function"
    },
    {
      "inputs": [
        {
          "internalType": "address",
          "name": "_newDevWallet",
          "type": "address"
        }
      ],
      "name": "setDevWallet",
      "outputs": [],
      "stateMutability": "view",
      "type": "function"
    },
    {
      "inputs": [
        {
          "internalType": "string",
          "name": "_notRevealedURI",
          "type": "string"
        }
      ],
      "name": "setNotRevealedURI",
      "outputs": [],
      "stateMutability": "nonpayable",
      "type": "function"
    },
    {
      "inputs": [
        {
          "internalType": "bytes4",
          "name": "interfaceId",
          "type": "bytes4"
        }
      ],
      "name": "supportsInterface",
      "outputs": [
        {
          "internalType": "bool",
          "name": "",
          "type": "bool"
        }
      ],
      "stateMutability": "view",
      "type": "function"
    },
    {
      "inputs": [],
      "name": "symbol",
      "outputs": [
        {
          "internalType": "string",
          "name": "",
          "type": "string"
        }
      ],
      "stateMutability": "view",
      "type": "function"
    },
    {
      "inputs": [
        {
          "internalType": "uint256",
          "name": "index",
          "type": "uint256"
        }
      ],
      "name": "tokenByIndex",
      "outputs": [
        {
          "internalType": "uint256",
          "name": "",
          "type": "uint256"
        }
      ],
      "stateMutability": "view",
      "type": "function"
    },
    {
      "inputs": [
        {
          "internalType": "address",
          "name": "owner",
          "type": "address"
        },
        {
          "internalType": "uint256",
          "name": "index",
          "type": "uint256"
        }
      ],
      "name": "tokenOfOwnerByIndex",
      "outputs": [
        {
          "internalType": "uint256",
          "name": "",
          "type": "uint256"
        }
      ],
      "stateMutability": "view",
      "type": "function"
    },
    {
      "inputs": [
        {
          "internalType": "uint256",
          "name": "_tokenId",
          "type": "uint256"
        }
      ],
      "name": "tokenURI",
      "outputs": [
        {
          "internalType": "string",
          "name": "",
          "type": "string"
        }
      ],
      "stateMutability": "view",
      "type": "function"
    },
    {
      "inputs": [],
      "name": "totalSupply",
      "outputs": [
        {
          "internalType": "uint256",
          "name": "",
          "type": "uint256"
        }
      ],
      "stateMutability": "view",
      "type": "function"
    },
    {
      "inputs": [
        {
          "internalType": "address",
          "name": "from",
          "type": "address"
        },
        {
          "internalType": "address",
          "name": "to",
          "type": "address"
        },
        {
          "internalType": "uint256",
          "name": "tokenId",
          "type": "uint256"
        }
      ],
      "name": "transferFrom",
      "outputs": [],
      "stateMutability": "nonpayable",
      "type": "function"
    },
    {
      "inputs": [
        {
          "internalType": "address",
          "name": "newOwner",
          "type": "address"
        }
      ],
      "name": "transferOwnership",
      "outputs": [],
      "stateMutability": "nonpayable",
      "type": "function"
    },
    {
      "inputs": [],
      "name": "withdraw",
      "outputs": [],
      "stateMutability": "payable",
      "type": "function"
    },
    {
      "stateMutability": "payable",
      "type": "receive"
    }
  ],
  "bytecode": "0x600b805460ff60a01b1916905560c06040526005608081905264173539b7b760d91b60a09081526200003591600e919062000244565b503480156200004357600080fd5b5060405162002e5b38038062002e5b8339810160408190526200006691620003be565b8451859085906200007f90600090602085019062000244565b5080516200009590600190602084019062000244565b50506001600a5550620000a833620000ca565b620000b3816200011c565b620000be8362000184565b50620004c89350505050565b600b80546001600160a01b038381166001600160a01b0319831681179093556040519116919082907f8be0079c531659141344cd1fd0a4f28419497f9722a3daafe3b4186f6b6457e090600090a35050565b600b546001600160a01b031633146200016b5760405162461bcd60e51b8152602060048201819052602482015260008051602062002e3b83398151915260448201526064015b60405180910390fd5b80516200018090600c90602084019062000244565b5050565b600b546001600160a01b03163314620001cf5760405162461bcd60e51b8152602060048201819052602482015260008051602062002e3b833981519152604482015260640162000162565b6001600160a01b038116620002365760405162461bcd60e51b815260206004820152602660248201527f4f776e61626c653a206e6577206f776e657220697320746865207a65726f206160448201526564647265737360d01b606482015260840162000162565b6200024181620000ca565b50565b828054620002529062000475565b90600052602060002090601f016020900481019282620002765760008555620002c1565b82601f106200029157805160ff1916838001178555620002c1565b82800160010185558215620002c1579182015b82811115620002c1578251825591602001919060010190620002a4565b50620002cf929150620002d3565b5090565b5b80821115620002cf5760008155600101620002d4565b80516001600160a01b03811681146200030257600080fd5b919050565b600082601f8301126200031957600080fd5b81516001600160401b0380821115620003365762000336620004b2565b604051601f8301601f19908116603f01168101908282118183101715620003615762000361620004b2565b816040528381526020925086838588010111156200037e57600080fd5b600091505b83821015620003a2578582018301518183018401529082019062000383565b83821115620003b45760008385830101525b9695505050505050565b600080600080600060a08688031215620003d757600080fd5b85516001600160401b0380821115620003ef57600080fd5b620003fd89838a0162000307565b965060208801519150808211156200041457600080fd5b6200042289838a0162000307565b95506200043260408901620002ea565b94506200044260608901620002ea565b935060808801519150808211156200045957600080fd5b50620004688882890162000307565b9150509295509295909350565b600181811c908216806200048a57607f821691505b60208210811415620004ac57634e487b7160e01b600052602260045260246000fd5b50919050565b634e487b7160e01b600052604160045260246000fd5b61296380620004d86000396000f3fe60806040526004361061021d5760003560e01c80636352211e1161011d578063a475b5dd116100b0578063c87b56dd1161007f578063e985e9c511610064578063e985e9c5146105d6578063f2c4ce1e1461061f578063f2fde38b1461063f57600080fd5b8063c87b56dd14610596578063da3ef23f146105b657600080fd5b8063a475b5dd14610525578063b88d4fde1461053a578063b8fc10511461055a578063c66828621461058157600080fd5b80638d859f3e116100ec5780638d859f3e146104b75780638da5cb5b146104d257806395d89b41146104f0578063a22cb4651461050557600080fd5b80636352211e1461044c57806370a082311461046c578063715018a61461048c578063764267b6146104a157600080fd5b806323b872dd116101b05780633ccfd60b1161017f5780634f6ccce7116101645780634f6ccce7146103eb578063518302271461040b57806355f804b31461042c57600080fd5b80633ccfd60b146103c357806342842e0e146103cb57600080fd5b806323b872dd1461034757806323cf0a22146103675780632f745c591461037a57806332cb6b0c1461039a57600080fd5b8063095ea7b3116101ec578063095ea7b3146102cd57806312065fe0146102ef57806318160ddd146103125780631f53ac021461032757600080fd5b806301ffc9a71461022957806306fdde031461025e578063081812fc14610280578063081c8c44146102b857600080fd5b3661022457005b600080fd5b34801561023557600080fd5b506102496102443660046125b2565b61065f565b60405190151581526020015b60405180910390f35b34801561026a57600080fd5b506102736106a3565b604051610255919061279e565b34801561028c57600080fd5b506102a061029b366004612659565b610735565b6040516001600160a01b039091168152602001610255565b3480156102c457600080fd5b506102736107cf565b3480156102d957600080fd5b506102ed6102e8366004612588565b61085d565b005b3480156102fb57600080fd5b5061030461098f565b604051908152602001610255565b34801561031e57600080fd5b50600854610304565b34801561033357600080fd5b506102ed610342366004612446565b6109f1565b34801561035357600080fd5b506102ed610362366004612494565b610a4e565b6102ed610375366004612635565b610ad5565b34801561038657600080fd5b50610304610395366004612588565b610d10565b3480156103a657600080fd5b506103b0610d0581565b60405161ffff9091168152602001610255565b6102ed610db8565b3480156103d757600080fd5b506102ed6103e6366004612494565b610ed0565b3480156103f757600080fd5b50610304610406366004612659565b610eeb565b34801561041757600080fd5b50600b5461024990600160a01b900460ff1681565b34801561043857600080fd5b506102ed6104473660046125ec565b610f8f565b34801561045857600080fd5b506102a0610467366004612659565b611000565b34801561047857600080fd5b50610304610487366004612446565b61108b565b34801561049857600080fd5b506102ed611125565b3480156104ad57600080fd5b506103b061045781565b3480156104c357600080fd5b506103046671afd498d0000081565b3480156104de57600080fd5b50600b546001600160a01b03166102a0565b3480156104fc57600080fd5b5061027361118b565b34801561051157600080fd5b506102ed61052036600461254c565b61119a565b34801561053157600080fd5b506102ed6111a5565b34801561054657600080fd5b506102ed6105553660046124d0565b61122f565b34801561056657600080fd5b5061056f600781565b60405160ff9091168152602001610255565b34801561058d57600080fd5b506102736112bd565b3480156105a257600080fd5b506102736105b1366004612659565b6112ca565b3480156105c257600080fd5b506102ed6105d13660046125ec565b611459565b3480156105e257600080fd5b506102496105f1366004612461565b6001600160a01b03918216600090815260056020908152604080832093909416825291909152205460ff1690565b34801561062b57600080fd5b506102ed61063a3660046125ec565b6114c6565b34801561064b57600080fd5b506102ed61065a366004612446565b611533565b60006001600160e01b031982167f780e9d6300000000000000000000000000000000000000000000000000000000148061069d575061069d82611612565b92915050565b6060600080546106b29061283f565b80601f01602080910402602001604051908101604052809291908181526020018280546106de9061283f565b801561072b5780601f106107005761010080835404028352916020019161072b565b820191906000526020600020905b81548152906001019060200180831161070e57829003601f168201915b5050505050905090565b6000818152600260205260408120546001600160a01b03166107b35760405162461bcd60e51b815260206004820152602c60248201527f4552433732313a20617070726f76656420717565727920666f72206e6f6e657860448201526b34b9ba32b73a103a37b5b2b760a11b60648201526084015b60405180910390fd5b506000908152600460205260409020546001600160a01b031690565b600c80546107dc9061283f565b80601f01602080910402602001604051908101604052809291908181526020018280546108089061283f565b80156108555780601f1061082a57610100808354040283529160200191610855565b820191906000526020600020905b81548152906001019060200180831161083857829003601f168201915b505050505081565b600061086882611000565b9050806001600160a01b0316836001600160a01b031614156108f25760405162461bcd60e51b815260206004820152602160248201527f4552433732313a20617070726f76616c20746f2063757272656e74206f776e6560448201527f720000000000000000000000000000000000000000000000000000000000000060648201526084016107aa565b336001600160a01b038216148061090e575061090e81336105f1565b6109805760405162461bcd60e51b815260206004820152603860248201527f4552433732313a20617070726f76652063616c6c6572206973206e6f74206f7760448201527f6e6572206e6f7220617070726f76656420666f7220616c6c000000000000000060648201526084016107aa565b61098a83836116ad565b505050565b600b546000906001600160a01b031633146109ec5760405162461bcd60e51b815260206004820181905260248201527f4f776e61626c653a2063616c6c6572206973206e6f7420746865206f776e657260448201526064016107aa565b504790565b600b546001600160a01b03163314610a4b5760405162461bcd60e51b815260206004820181905260248201527f4f776e61626c653a2063616c6c6572206973206e6f7420746865206f776e657260448201526064016107aa565b50565b610a583382611728565b610aca5760405162461bcd60e51b815260206004820152603160248201527f4552433732313a207472616e736665722063616c6c6572206973206e6f74206f60448201527f776e6572206e6f7220617070726f76656400000000000000000000000000000060648201526084016107aa565b61098a83838361181f565b6002600a541415610b285760405162461bcd60e51b815260206004820152601f60248201527f5265656e7472616e637947756172643a207265656e7472616e742063616c6c0060448201526064016107aa565b6002600a55610d05600161ffff8316610b4060085490565b610b4a91906127b1565b610b5491906127fc565b10610ba15760405162461bcd60e51b815260206004820152601260248201527f45786365656473206d617820737570706c79000000000000000000000000000060448201526064016107aa565b600761ffff82161115610bf65760405162461bcd60e51b815260206004820152601860248201527f4d696e74206174206d6f7374203720617420612074696d65000000000000000060448201526064016107aa565b610457610c0260085490565b11610c3c5760005b8161ffff16811015610c3a57610c2833610c2360085490565b611a04565b80610c328161287a565b915050610c0a565b505b610457610c4860085490565b1115610d0857610c6361ffff82166671afd498d000006127dd565b341015610cd85760405162461bcd60e51b815260206004820152602860248201527f496e73756666696369656e74207061796d656e742c20302e303332204554482060448201527f706572206974656d00000000000000000000000000000000000000000000000060648201526084016107aa565b60005b8161ffff16811015610d0657610cf433610c2360085490565b80610cfe8161287a565b915050610cdb565b505b506001600a55565b6000610d1b8361108b565b8210610d8f5760405162461bcd60e51b815260206004820152602b60248201527f455243373231456e756d657261626c653a206f776e657220696e646578206f7560448201527f74206f6620626f756e647300000000000000000000000000000000000000000060648201526084016107aa565b506001600160a01b03919091166000908152600660209081526040808320938352929052205490565b600b546001600160a01b03163314610e125760405162461bcd60e51b815260206004820181905260248201527f4f776e61626c653a2063616c6c6572206973206e6f7420746865206f776e657260448201526064016107aa565b6002600a541415610e655760405162461bcd60e51b815260206004820152601f60248201527f5265656e7472616e637947756172643a207265656e7472616e742063616c6c0060448201526064016107aa565b6002600a554760006064610e7a83600f6127dd565b610e8491906127c9565b90506000610e9282846127fc565b600f54909150610eab906001600160a01b031683611b5f565b610ec6610ec0600b546001600160a01b031690565b82611b5f565b50506001600a5550565b61098a8383836040518060200160405280600081525061122f565b6000610ef660085490565b8210610f6a5760405162461bcd60e51b815260206004820152602c60248201527f455243373231456e756d657261626c653a20676c6f62616c20696e646578206f60448201527f7574206f6620626f756e6473000000000000000000000000000000000000000060648201526084016107aa565b60088281548110610f7d57610f7d6128eb565b90600052602060002001549050919050565b600b546001600160a01b03163314610fe95760405162461bcd60e51b815260206004820181905260248201527f4f776e61626c653a2063616c6c6572206973206e6f7420746865206f776e657260448201526064016107aa565b8051610ffc90600d90602084019061231b565b5050565b6000818152600260205260408120546001600160a01b03168061069d5760405162461bcd60e51b815260206004820152602960248201527f4552433732313a206f776e657220717565727920666f72206e6f6e657869737460448201527f656e7420746f6b656e000000000000000000000000000000000000000000000060648201526084016107aa565b60006001600160a01b0382166111095760405162461bcd60e51b815260206004820152602a60248201527f4552433732313a2062616c616e636520717565727920666f7220746865207a6560448201527f726f20616464726573730000000000000000000000000000000000000000000060648201526084016107aa565b506001600160a01b031660009081526003602052604090205490565b600b546001600160a01b0316331461117f5760405162461bcd60e51b815260206004820181905260248201527f4f776e61626c653a2063616c6c6572206973206e6f7420746865206f776e657260448201526064016107aa565b6111896000611c78565b565b6060600180546106b29061283f565b610ffc338383611cd7565b600b546001600160a01b031633146111ff5760405162461bcd60e51b815260206004820181905260248201527f4f776e61626c653a2063616c6c6572206973206e6f7420746865206f776e657260448201526064016107aa565b600b80547fffffffffffffffffffffff00ffffffffffffffffffffffffffffffffffffffff16600160a01b179055565b6112393383611728565b6112ab5760405162461bcd60e51b815260206004820152603160248201527f4552433732313a207472616e736665722063616c6c6572206973206e6f74206f60448201527f776e6572206e6f7220617070726f76656400000000000000000000000000000060648201526084016107aa565b6112b784848484611da6565b50505050565b600e80546107dc9061283f565b6000818152600260205260409020546060906001600160a01b03166113575760405162461bcd60e51b815260206004820152602f60248201527f4552433732314d657461646174613a2055524920717565727920666f72206e6f60448201527f6e6578697374656e7420746f6b656e000000000000000000000000000000000060648201526084016107aa565b600b54600160a01b900460ff166113fa57600c80546113759061283f565b80601f01602080910402602001604051908101604052809291908181526020018280546113a19061283f565b80156113ee5780601f106113c3576101008083540402835291602001916113ee565b820191906000526020600020905b8154815290600101906020018083116113d157829003601f168201915b50505050509050919050565b6000611404611e2f565b905060008151116114245760405180602001604052806000815250611452565b8061142e84611e3e565b600e6040516020016114429392919061269e565b6040516020818303038152906040525b9392505050565b600b546001600160a01b031633146114b35760405162461bcd60e51b815260206004820181905260248201527f4f776e61626c653a2063616c6c6572206973206e6f7420746865206f776e657260448201526064016107aa565b8051610ffc90600e90602084019061231b565b600b546001600160a01b031633146115205760405162461bcd60e51b815260206004820181905260248201527f4f776e61626c653a2063616c6c6572206973206e6f7420746865206f776e657260448201526064016107aa565b8051610ffc90600c90602084019061231b565b600b546001600160a01b0316331461158d5760405162461bcd60e51b815260206004820181905260248201527f4f776e61626c653a2063616c6c6572206973206e6f7420746865206f776e657260448201526064016107aa565b6001600160a01b0381166116095760405162461bcd60e51b815260206004820152602660248201527f4f776e61626c653a206e6577206f776e657220697320746865207a65726f206160448201527f646472657373000000000000000000000000000000000000000000000000000060648201526084016107aa565b610a4b81611c78565b60006001600160e01b031982167f80ac58cd00000000000000000000000000000000000000000000000000000000148061167557506001600160e01b031982167f5b5e139f00000000000000000000000000000000000000000000000000000000145b8061069d57507f01ffc9a7000000000000000000000000000000000000000000000000000000006001600160e01b031983161461069d565b6000818152600460205260409020805473ffffffffffffffffffffffffffffffffffffffff19166001600160a01b03841690811790915581906116ef82611000565b6001600160a01b03167f8c5be1e5ebec7d5bd14f71427d1e84f3dd0314c0f7b2291e5b200ac8c7c3b92560405160405180910390a45050565b6000818152600260205260408120546001600160a01b03166117a15760405162461bcd60e51b815260206004820152602c60248201527f4552433732313a206f70657261746f7220717565727920666f72206e6f6e657860448201526b34b9ba32b73a103a37b5b2b760a11b60648201526084016107aa565b60006117ac83611000565b9050806001600160a01b0316846001600160a01b031614806117e75750836001600160a01b03166117dc84610735565b6001600160a01b0316145b8061181757506001600160a01b0380821660009081526005602090815260408083209388168352929052205460ff165b949350505050565b826001600160a01b031661183282611000565b6001600160a01b0316146118ae5760405162461bcd60e51b815260206004820152602960248201527f4552433732313a207472616e73666572206f6620746f6b656e2074686174206960448201527f73206e6f74206f776e000000000000000000000000000000000000000000000060648201526084016107aa565b6001600160a01b0382166119295760405162461bcd60e51b8152602060048201526024808201527f4552433732313a207472616e7366657220746f20746865207a65726f2061646460448201527f726573730000000000000000000000000000000000000000000000000000000060648201526084016107aa565b611934838383611f70565b61193f6000826116ad565b6001600160a01b03831660009081526003602052604081208054600192906119689084906127fc565b90915550506001600160a01b03821660009081526003602052604081208054600192906119969084906127b1565b9091555050600081815260026020526040808220805473ffffffffffffffffffffffffffffffffffffffff19166001600160a01b0386811691821790925591518493918716917fddf252ad1be2c89b69c2b068fc378daa952ba7f163c4a11628f55a4df523b3ef91a4505050565b6001600160a01b038216611a5a5760405162461bcd60e51b815260206004820181905260248201527f4552433732313a206d696e7420746f20746865207a65726f206164647265737360448201526064016107aa565b6000818152600260205260409020546001600160a01b031615611abf5760405162461bcd60e51b815260206004820152601c60248201527f4552433732313a20746f6b656e20616c7265616479206d696e7465640000000060448201526064016107aa565b611acb60008383611f70565b6001600160a01b0382166000908152600360205260408120805460019290611af49084906127b1565b9091555050600081815260026020526040808220805473ffffffffffffffffffffffffffffffffffffffff19166001600160a01b03861690811790915590518392907fddf252ad1be2c89b69c2b068fc378daa952ba7f163c4a11628f55a4df523b3ef908290a45050565b80471015611baf5760405162461bcd60e51b815260206004820152601d60248201527f416464726573733a20696e73756666696369656e742062616c616e636500000060448201526064016107aa565b6000826001600160a01b03168260405160006040518083038185875af1925050503d8060008114611bfc576040519150601f19603f3d011682016040523d82523d6000602084013e611c01565b606091505b505090508061098a5760405162461bcd60e51b815260206004820152603a60248201527f416464726573733a20756e61626c6520746f2073656e642076616c75652c207260448201527f6563697069656e74206d6179206861766520726576657274656400000000000060648201526084016107aa565b600b80546001600160a01b0383811673ffffffffffffffffffffffffffffffffffffffff19831681179093556040519116919082907f8be0079c531659141344cd1fd0a4f28419497f9722a3daafe3b4186f6b6457e090600090a35050565b816001600160a01b0316836001600160a01b03161415611d395760405162461bcd60e51b815260206004820152601960248201527f4552433732313a20617070726f766520746f2063616c6c65720000000000000060448201526064016107aa565b6001600160a01b03838116600081815260056020908152604080832094871680845294825291829020805460ff191686151590811790915591519182527f17307eab39ab6107e8899845ad3d59bd9653f200f220920489ca2b5937696c31910160405180910390a3505050565b611db184848461181f565b611dbd84848484612028565b6112b75760405162461bcd60e51b815260206004820152603260248201527f4552433732313a207472616e7366657220746f206e6f6e20455243373231526560448201527f63656976657220696d706c656d656e746572000000000000000000000000000060648201526084016107aa565b6060600d80546106b29061283f565b606081611e7e57505060408051808201909152600181527f3000000000000000000000000000000000000000000000000000000000000000602082015290565b8160005b8115611ea85780611e928161287a565b9150611ea19050600a836127c9565b9150611e82565b60008167ffffffffffffffff811115611ec357611ec3612901565b6040519080825280601f01601f191660200182016040528015611eed576020820181803683370190505b5090505b841561181757611f026001836127fc565b9150611f0f600a86612895565b611f1a9060306127b1565b60f81b818381518110611f2f57611f2f6128eb565b60200101907effffffffffffffffffffffffffffffffffffffffffffffffffffffffffffff1916908160001a905350611f69600a866127c9565b9450611ef1565b6001600160a01b038316611fcb57611fc681600880546000838152600960205260408120829055600182018355919091527ff3f7a9fe364faab93b216da50a3214154f22a0a2b415b23a84c8169e8b636ee30155565b611fee565b816001600160a01b0316836001600160a01b031614611fee57611fee838261218b565b6001600160a01b0382166120055761098a81612228565b826001600160a01b0316826001600160a01b03161461098a5761098a82826122d7565b60006001600160a01b0384163b1561218057604051630a85bd0160e11b81526001600160a01b0385169063150b7a029061206c903390899088908890600401612762565b602060405180830381600087803b15801561208657600080fd5b505af19250505080156120b6575060408051601f3d908101601f191682019092526120b3918101906125cf565b60015b612166573d8080156120e4576040519150601f19603f3d011682016040523d82523d6000602084013e6120e9565b606091505b50805161215e5760405162461bcd60e51b815260206004820152603260248201527f4552433732313a207472616e7366657220746f206e6f6e20455243373231526560448201527f63656976657220696d706c656d656e746572000000000000000000000000000060648201526084016107aa565b805181602001fd5b6001600160e01b031916630a85bd0160e11b149050611817565b506001949350505050565b600060016121988461108b565b6121a291906127fc565b6000838152600760205260409020549091508082146121f5576001600160a01b03841660009081526006602090815260408083208584528252808320548484528184208190558352600790915290208190555b5060009182526007602090815260408084208490556001600160a01b039094168352600681528383209183525290812055565b60085460009061223a906001906127fc565b60008381526009602052604081205460088054939450909284908110612262576122626128eb565b906000526020600020015490508060088381548110612283576122836128eb565b60009182526020808320909101929092558281526009909152604080822084905585825281205560088054806122bb576122bb6128d5565b6001900381819060005260206000200160009055905550505050565b60006122e28361108b565b6001600160a01b039093166000908152600660209081526040808320868452825280832085905593825260079052919091209190915550565b8280546123279061283f565b90600052602060002090601f016020900481019282612349576000855561238f565b82601f1061236257805160ff191683800117855561238f565b8280016001018555821561238f579182015b8281111561238f578251825591602001919060010190612374565b5061239b92915061239f565b5090565b5b8082111561239b57600081556001016123a0565b600067ffffffffffffffff808411156123cf576123cf612901565b604051601f8501601f19908116603f011681019082821181831017156123f7576123f7612901565b8160405280935085815286868601111561241057600080fd5b858560208301376000602087830101525050509392505050565b80356001600160a01b038116811461244157600080fd5b919050565b60006020828403121561245857600080fd5b6114528261242a565b6000806040838503121561247457600080fd5b61247d8361242a565b915061248b6020840161242a565b90509250929050565b6000806000606084860312156124a957600080fd5b6124b28461242a565b92506124c06020850161242a565b9150604084013590509250925092565b600080600080608085870312156124e657600080fd5b6124ef8561242a565b93506124fd6020860161242a565b925060408501359150606085013567ffffffffffffffff81111561252057600080fd5b8501601f8101871361253157600080fd5b612540878235602084016123b4565b91505092959194509250565b6000806040838503121561255f57600080fd5b6125688361242a565b91506020830135801515811461257d57600080fd5b809150509250929050565b6000806040838503121561259b57600080fd5b6125a48361242a565b946020939093013593505050565b6000602082840312156125c457600080fd5b813561145281612917565b6000602082840312156125e157600080fd5b815161145281612917565b6000602082840312156125fe57600080fd5b813567ffffffffffffffff81111561261557600080fd5b8201601f8101841361262657600080fd5b611817848235602084016123b4565b60006020828403121561264757600080fd5b813561ffff8116811461145257600080fd5b60006020828403121561266b57600080fd5b5035919050565b6000815180845261268a816020860160208601612813565b601f01601f19169290920160200192915050565b6000845160206126b18285838a01612813565b8551918401916126c48184848a01612813565b8554920191600090600181811c90808316806126e157607f831692505b8583108114156126ff57634e487b7160e01b85526022600452602485fd5b808015612713576001811461272457612751565b60ff19851688528388019550612751565b60008b81526020902060005b858110156127495781548a820152908401908801612730565b505083880195505b50939b9a5050505050505050505050565b60006001600160a01b038087168352808616602084015250836040830152608060608301526127946080830184612672565b9695505050505050565b6020815260006114526020830184612672565b600082198211156127c4576127c46128a9565b500190565b6000826127d8576127d86128bf565b500490565b60008160001904831182151516156127f7576127f76128a9565b500290565b60008282101561280e5761280e6128a9565b500390565b60005b8381101561282e578181015183820152602001612816565b838111156112b75750506000910152565b600181811c9082168061285357607f821691505b6020821081141561287457634e487b7160e01b600052602260045260246000fd5b50919050565b600060001982141561288e5761288e6128a9565b5060010190565b6000826128a4576128a46128bf565b500690565b634e487b7160e01b600052601160045260246000fd5b634e487b7160e01b600052601260045260246000fd5b634e487b7160e01b600052603160045260246000fd5b634e487b7160e01b600052603260045260246000fd5b634e487b7160e01b600052604160045260246000fd5b6001600160e01b031981168114610a4b57600080fdfea2646970667358221220fae8792decca2961f7e9deeb9ab6ba02b12dbae58629acba39c0ca1f1f65dd4364736f6c634300080700334f776e61626c653a2063616c6c6572206973206e6f7420746865206f776e6572",
  "linkReferences": {},
  "deployedLinkReferences": {}
}