{
  "_format": "hh-sol-artifact-1",
  "contractName": "FrankenPhunks",
  "sourceName": "contracts/FrankenPhunks.sol",
  "abi": [
    {
      "inputs": [
        {
          "internalType": "string",
          "name": "_name",
          "type": "string"
        },
        {
          "internalType": "string",
          "name": "_symbol",
          "type": "string"
        },
        {
          "internalType": "address",
          "name": "_multisig",
          "type": "address"
        },
        {
          "internalType": "string",
          "name": "_initNotRevealedUri",
          "type": "string"
        }
      ],
      "stateMutability": "nonpayable",
      "type": "constructor"
    },
    {
      "anonymous": false,
      "inputs": [
        {
          "indexed": true,
          "internalType": "address",
          "name": "owner",
          "type": "address"
        },
        {
          "indexed": true,
          "internalType": "address",
          "name": "approved",
          "type": "address"
        },
        {
          "indexed": true,
          "internalType": "uint256",
          "name": "tokenId",
          "type": "uint256"
        }
      ],
      "name": "Approval",
      "type": "event"
    },
    {
      "anonymous": false,
      "inputs": [
        {
          "indexed": true,
          "internalType": "address",
          "name": "owner",
          "type": "address"
        },
        {
          "indexed": true,
          "internalType": "address",
          "name": "operator",
          "type": "address"
        },
        {
          "indexed": false,
          "internalType": "bool",
          "name": "approved",
          "type": "bool"
        }
      ],
      "name": "ApprovalForAll",
      "type": "event"
    },
    {
      "anonymous": false,
      "inputs": [
        {
          "indexed": true,
          "internalType": "address",
          "name": "previousOwner",
          "type": "address"
        },
        {
          "indexed": true,
          "internalType": "address",
          "name": "newOwner",
          "type": "address"
        }
      ],
      "name": "OwnershipTransferred",
      "type": "event"
    },
    {
      "anonymous": false,
      "inputs": [
        {
          "indexed": true,
          "internalType": "address",
          "name": "from",
          "type": "address"
        },
        {
          "indexed": true,
          "internalType": "address",
          "name": "to",
          "type": "address"
        },
        {
          "indexed": true,
          "internalType": "uint256",
          "name": "tokenId",
          "type": "uint256"
        }
      ],
      "name": "Transfer",
      "type": "event"
    },
    {
      "inputs": [],
      "name": "FREE_MINTS",
      "outputs": [
        {
          "internalType": "uint16",
          "name": "",
          "type": "uint16"
        }
      ],
      "stateMutability": "view",
      "type": "function"
    },
    {
      "inputs": [],
      "name": "MAX_MULTIMINT",
      "outputs": [
        {
          "internalType": "uint8",
          "name": "",
          "type": "uint8"
        }
      ],
      "stateMutability": "view",
      "type": "function"
    },
    {
      "inputs": [],
      "name": "MAX_SUPPLY",
      "outputs": [
        {
          "internalType": "uint16",
          "name": "",
          "type": "uint16"
        }
      ],
      "stateMutability": "view",
      "type": "function"
    },
    {
      "inputs": [],
      "name": "PRICE",
      "outputs": [
        {
          "internalType": "uint256",
          "name": "",
          "type": "uint256"
        }
      ],
      "stateMutability": "view",
      "type": "function"
    },
    {
      "inputs": [
        {
          "internalType": "address",
          "name": "to",
          "type": "address"
        },
        {
          "internalType": "uint256",
          "name": "tokenId",
          "type": "uint256"
        }
      ],
      "name": "approve",
      "outputs": [],
      "stateMutability": "nonpayable",
      "type": "function"
    },
    {
      "inputs": [
        {
          "internalType": "address",
          "name": "owner",
          "type": "address"
        }
      ],
      "name": "balanceOf",
      "outputs": [
        {
          "internalType": "uint256",
          "name": "",
          "type": "uint256"
        }
      ],
      "stateMutability": "view",
      "type": "function"
    },
    {
      "inputs": [],
      "name": "baseExtension",
      "outputs": [
        {
          "internalType": "string",
          "name": "",
          "type": "string"
        }
      ],
      "stateMutability": "view",
      "type": "function"
    },
    {
      "inputs": [
        {
          "internalType": "uint256",
          "name": "tokenId",
          "type": "uint256"
        }
      ],
      "name": "getApproved",
      "outputs": [
        {
          "internalType": "address",
          "name": "",
          "type": "address"
        }
      ],
      "stateMutability": "view",
      "type": "function"
    },
    {
      "inputs": [],
      "name": "getBalance",
      "outputs": [
        {
          "internalType": "uint256",
          "name": "",
          "type": "uint256"
        }
      ],
      "stateMutability": "view",
      "type": "function"
    },
    {
      "inputs": [
        {
          "internalType": "address",
          "name": "owner",
          "type": "address"
        },
        {
          "internalType": "address",
          "name": "operator",
          "type": "address"
        }
      ],
      "name": "isApprovedForAll",
      "outputs": [
        {
          "internalType": "bool",
          "name": "",
          "type": "bool"
        }
      ],
      "stateMutability": "view",
      "type": "function"
    },
    {
      "inputs": [
        {
          "internalType": "uint16",
          "name": "count",
          "type": "uint16"
        }
      ],
      "name": "mint",
      "outputs": [],
      "stateMutability": "payable",
      "type": "function"
    },
    {
      "inputs": [],
      "name": "name",
      "outputs": [
        {
          "internalType": "string",
          "name": "",
          "type": "string"
        }
      ],
      "stateMutability": "view",
      "type": "function"
    },
    {
      "inputs": [],
      "name": "notRevealedUri",
      "outputs": [
        {
          "internalType": "string",
          "name": "",
          "type": "string"
        }
      ],
      "stateMutability": "view",
      "type": "function"
    },
    {
      "inputs": [],
      "name": "owner",
      "outputs": [
        {
          "internalType": "address",
          "name": "",
          "type": "address"
        }
      ],
      "stateMutability": "view",
      "type": "function"
    },
    {
      "inputs": [
        {
          "internalType": "uint256",
          "name": "tokenId",
          "type": "uint256"
        }
      ],
      "name": "ownerOf",
      "outputs": [
        {
          "internalType": "address",
          "name": "",
          "type": "address"
        }
      ],
      "stateMutability": "view",
      "type": "function"
    },
    {
      "inputs": [],
      "name": "renounceOwnership",
      "outputs": [],
      "stateMutability": "nonpayable",
      "type": "function"
    },
    {
      "inputs": [],
      "name": "reveal",
      "outputs": [],
      "stateMutability": "nonpayable",
      "type": "function"
    },
    {
      "inputs": [],
      "name": "revealed",
      "outputs": [
        {
          "internalType": "bool",
          "name": "",
          "type": "bool"
        }
      ],
      "stateMutability": "view",
      "type": "function"
    },
    {
      "inputs": [
        {
          "internalType": "address",
          "name": "from",
          "type": "address"
        },
        {
          "internalType": "address",
          "name": "to",
          "type": "address"
        },
        {
          "internalType": "uint256",
          "name": "tokenId",
          "type": "uint256"
        }
      ],
      "name": "safeTransferFrom",
      "outputs": [],
      "stateMutability": "nonpayable",
      "type": "function"
    },
    {
      "inputs": [
        {
          "internalType": "address",
          "name": "from",
          "type": "address"
        },
        {
          "internalType": "address",
          "name": "to",
          "type": "address"
        },
        {
          "internalType": "uint256",
          "name": "tokenId",
          "type": "uint256"
        },
        {
          "internalType": "bytes",
          "name": "_data",
          "type": "bytes"
        }
      ],
      "name": "safeTransferFrom",
      "outputs": [],
      "stateMutability": "nonpayable",
      "type": "function"
    },
    {
      "inputs": [
        {
          "internalType": "address",
          "name": "operator",
          "type": "address"
        },
        {
          "internalType": "bool",
          "name": "approved",
          "type": "bool"
        }
      ],
      "name": "setApprovalForAll",
      "outputs": [],
      "stateMutability": "nonpayable",
      "type": "function"
    },
    {
      "inputs": [
        {
          "internalType": "string",
          "name": "_newBaseExtension",
          "type": "string"
        }
      ],
      "name": "setBaseExtension",
      "outputs": [],
      "stateMutability": "nonpayable",
      "type": "function"
    },
    {
      "inputs": [
        {
          "internalType": "string",
          "name": "_newBaseURI",
          "type": "string"
        }
      ],
      "name": "setBaseURI",
      "outputs": [],
      "stateMutability": "nonpayable",
      "type": "function"
    },
    {
      "inputs": [
        {
          "internalType": "string",
          "name": "_notRevealedURI",
          "type": "string"
        }
      ],
      "name": "setNotRevealedURI",
      "outputs": [],
      "stateMutability": "nonpayable",
      "type": "function"
    },
    {
      "inputs": [
        {
          "internalType": "bytes4",
          "name": "interfaceId",
          "type": "bytes4"
        }
      ],
      "name": "supportsInterface",
      "outputs": [
        {
          "internalType": "bool",
          "name": "",
          "type": "bool"
        }
      ],
      "stateMutability": "view",
      "type": "function"
    },
    {
      "inputs": [],
      "name": "symbol",
      "outputs": [
        {
          "internalType": "string",
          "name": "",
          "type": "string"
        }
      ],
      "stateMutability": "view",
      "type": "function"
    },
    {
      "inputs": [
        {
          "internalType": "uint256",
          "name": "index",
          "type": "uint256"
        }
      ],
      "name": "tokenByIndex",
      "outputs": [
        {
          "internalType": "uint256",
          "name": "",
          "type": "uint256"
        }
      ],
      "stateMutability": "view",
      "type": "function"
    },
    {
      "inputs": [
        {
          "internalType": "address",
          "name": "owner",
          "type": "address"
        },
        {
          "internalType": "uint256",
          "name": "index",
          "type": "uint256"
        }
      ],
      "name": "tokenOfOwnerByIndex",
      "outputs": [
        {
          "internalType": "uint256",
          "name": "",
          "type": "uint256"
        }
      ],
      "stateMutability": "view",
      "type": "function"
    },
    {
      "inputs": [
        {
          "internalType": "uint256",
          "name": "_tokenId",
          "type": "uint256"
        }
      ],
      "name": "tokenURI",
      "outputs": [
        {
          "internalType": "string",
          "name": "",
          "type": "string"
        }
      ],
      "stateMutability": "view",
      "type": "function"
    },
    {
      "inputs": [],
      "name": "totalSupply",
      "outputs": [
        {
          "internalType": "uint256",
          "name": "",
          "type": "uint256"
        }
      ],
      "stateMutability": "view",
      "type": "function"
    },
    {
      "inputs": [
        {
          "internalType": "address",
          "name": "from",
          "type": "address"
        },
        {
          "internalType": "address",
          "name": "to",
          "type": "address"
        },
        {
          "internalType": "uint256",
          "name": "tokenId",
          "type": "uint256"
        }
      ],
      "name": "transferFrom",
      "outputs": [],
      "stateMutability": "nonpayable",
      "type": "function"
    },
    {
      "inputs": [
        {
          "internalType": "address",
          "name": "newOwner",
          "type": "address"
        }
      ],
      "name": "transferOwnership",
      "outputs": [],
      "stateMutability": "nonpayable",
      "type": "function"
    },
    {
      "inputs": [],
      "name": "withdraw",
      "outputs": [],
      "stateMutability": "payable",
      "type": "function"
    }
  ],
  "bytecode": "0x600b805460ff60a01b1916905560c06040526005608081905264173539b7b760d91b60a09081526200003591600e919062000242565b503480156200004357600080fd5b5060405162002d4e38038062002d4e83398101604081905262000066916200039f565b8351849084906200007f90600090602085019062000242565b5080516200009590600190602084019062000242565b50506001600a5550620000a833620000c8565b620000b3816200011a565b620000be8262000182565b50505050620004a5565b600b80546001600160a01b038381166001600160a01b0319831681179093556040519116919082907f8be0079c531659141344cd1fd0a4f28419497f9722a3daafe3b4186f6b6457e090600090a35050565b600b546001600160a01b03163314620001695760405162461bcd60e51b8152602060048201819052602482015260008051602062002d2e83398151915260448201526064015b60405180910390fd5b80516200017e90600c90602084019062000242565b5050565b600b546001600160a01b03163314620001cd5760405162461bcd60e51b8152602060048201819052602482015260008051602062002d2e833981519152604482015260640162000160565b6001600160a01b038116620002345760405162461bcd60e51b815260206004820152602660248201527f4f776e61626c653a206e6577206f776e657220697320746865207a65726f206160448201526564647265737360d01b606482015260840162000160565b6200023f81620000c8565b50565b828054620002509062000452565b90600052602060002090601f016020900481019282620002745760008555620002bf565b82601f106200028f57805160ff1916838001178555620002bf565b82800160010185558215620002bf579182015b82811115620002bf578251825591602001919060010190620002a2565b50620002cd929150620002d1565b5090565b5b80821115620002cd5760008155600101620002d2565b600082601f830112620002fa57600080fd5b81516001600160401b03808211156200031757620003176200048f565b604051601f8301601f19908116603f011681019082821181831017156200034257620003426200048f565b816040528381526020925086838588010111156200035f57600080fd5b600091505b8382101562000383578582018301518183018401529082019062000364565b83821115620003955760008385830101525b9695505050505050565b60008060008060808587031215620003b657600080fd5b84516001600160401b0380821115620003ce57600080fd5b620003dc88838901620002e8565b95506020870151915080821115620003f357600080fd5b6200040188838901620002e8565b604088015190955091506001600160a01b03821682146200042157600080fd5b6060870151919350808211156200043757600080fd5b506200044687828801620002e8565b91505092959194509250565b600181811c908216806200046757607f821691505b602082108114156200048957634e487b7160e01b600052602260045260246000fd5b50919050565b634e487b7160e01b600052604160045260246000fd5b61287980620004b56000396000f3fe6080604052600436106101fe5760003560e01c80636352211e1161011d578063a475b5dd116100b0578063c87b56dd1161007f578063e985e9c511610064578063e985e9c514610590578063f2c4ce1e146105d9578063f2fde38b146105f957600080fd5b8063c87b56dd14610550578063da3ef23f1461057057600080fd5b8063a475b5dd146104df578063b88d4fde146104f4578063b8fc105114610514578063c66828621461053b57600080fd5b80638d859f3e116100ec5780638d859f3e146104715780638da5cb5b1461048c57806395d89b41146104aa578063a22cb465146104bf57600080fd5b80636352211e1461040657806370a0823114610426578063715018a614610446578063764267b61461045b57600080fd5b806323cf0a221161019557806342842e0e1161016457806342842e0e146103855780634f6ccce7146103a557806351830227146103c557806355f804b3146103e657600080fd5b806323cf0a22146103215780632f745c591461033457806332cb6b0c146103545780633ccfd60b1461037d57600080fd5b8063095ea7b3116101d1578063095ea7b3146102a757806312065fe0146102c957806318160ddd146102ec57806323b872dd1461030157600080fd5b806301ffc9a71461020357806306fdde0314610238578063081812fc1461025a578063081c8c4414610292575b600080fd5b34801561020f57600080fd5b5061022361021e3660046124c8565b610619565b60405190151581526020015b60405180910390f35b34801561024457600080fd5b5061024d61065d565b60405161022f91906126b4565b34801561026657600080fd5b5061027a61027536600461256f565b6106ef565b6040516001600160a01b03909116815260200161022f565b34801561029e57600080fd5b5061024d610789565b3480156102b357600080fd5b506102c76102c236600461249e565b610817565b005b3480156102d557600080fd5b506102de610949565b60405190815260200161022f565b3480156102f857600080fd5b506008546102de565b34801561030d57600080fd5b506102c761031c3660046123aa565b6109ab565b6102c761032f36600461254b565b610a32565b34801561034057600080fd5b506102de61034f36600461249e565b610c6d565b34801561036057600080fd5b5061036a610d0581565b60405161ffff909116815260200161022f565b6102c7610d15565b34801561039157600080fd5b506102c76103a03660046123aa565b610de3565b3480156103b157600080fd5b506102de6103c036600461256f565b610dfe565b3480156103d157600080fd5b50600b5461022390600160a01b900460ff1681565b3480156103f257600080fd5b506102c7610401366004612502565b610ea2565b34801561041257600080fd5b5061027a61042136600461256f565b610f13565b34801561043257600080fd5b506102de61044136600461235c565b610f9e565b34801561045257600080fd5b506102c7611038565b34801561046757600080fd5b5061036a61045781565b34801561047d57600080fd5b506102de6671afd498d0000081565b34801561049857600080fd5b50600b546001600160a01b031661027a565b3480156104b657600080fd5b5061024d61109e565b3480156104cb57600080fd5b506102c76104da366004612462565b6110ad565b3480156104eb57600080fd5b506102c76110b8565b34801561050057600080fd5b506102c761050f3660046123e6565b611142565b34801561052057600080fd5b50610529600781565b60405160ff909116815260200161022f565b34801561054757600080fd5b5061024d6111d0565b34801561055c57600080fd5b5061024d61056b36600461256f565b6111dd565b34801561057c57600080fd5b506102c761058b366004612502565b61136c565b34801561059c57600080fd5b506102236105ab366004612377565b6001600160a01b03918216600090815260056020908152604080832093909416825291909152205460ff1690565b3480156105e557600080fd5b506102c76105f4366004612502565b6113d9565b34801561060557600080fd5b506102c761061436600461235c565b611446565b60006001600160e01b031982167f780e9d63000000000000000000000000000000000000000000000000000000001480610657575061065782611528565b92915050565b60606000805461066c90612755565b80601f016020809104026020016040519081016040528092919081815260200182805461069890612755565b80156106e55780601f106106ba576101008083540402835291602001916106e5565b820191906000526020600020905b8154815290600101906020018083116106c857829003601f168201915b5050505050905090565b6000818152600260205260408120546001600160a01b031661076d5760405162461bcd60e51b815260206004820152602c60248201527f4552433732313a20617070726f76656420717565727920666f72206e6f6e657860448201526b34b9ba32b73a103a37b5b2b760a11b60648201526084015b60405180910390fd5b506000908152600460205260409020546001600160a01b031690565b600c805461079690612755565b80601f01602080910402602001604051908101604052809291908181526020018280546107c290612755565b801561080f5780601f106107e45761010080835404028352916020019161080f565b820191906000526020600020905b8154815290600101906020018083116107f257829003601f168201915b505050505081565b600061082282610f13565b9050806001600160a01b0316836001600160a01b031614156108ac5760405162461bcd60e51b815260206004820152602160248201527f4552433732313a20617070726f76616c20746f2063757272656e74206f776e6560448201527f72000000000000000000000000000000000000000000000000000000000000006064820152608401610764565b336001600160a01b03821614806108c857506108c881336105ab565b61093a5760405162461bcd60e51b815260206004820152603860248201527f4552433732313a20617070726f76652063616c6c6572206973206e6f74206f7760448201527f6e6572206e6f7220617070726f76656420666f7220616c6c00000000000000006064820152608401610764565b61094483836115c3565b505050565b600b546000906001600160a01b031633146109a65760405162461bcd60e51b815260206004820181905260248201527f4f776e61626c653a2063616c6c6572206973206e6f7420746865206f776e65726044820152606401610764565b504790565b6109b5338261163e565b610a275760405162461bcd60e51b815260206004820152603160248201527f4552433732313a207472616e736665722063616c6c6572206973206e6f74206f60448201527f776e6572206e6f7220617070726f7665640000000000000000000000000000006064820152608401610764565b610944838383611735565b6002600a541415610a855760405162461bcd60e51b815260206004820152601f60248201527f5265656e7472616e637947756172643a207265656e7472616e742063616c6c006044820152606401610764565b6002600a55610d05600161ffff8316610a9d60085490565b610aa791906126c7565b610ab19190612712565b10610afe5760405162461bcd60e51b815260206004820152601260248201527f45786365656473206d617820737570706c7900000000000000000000000000006044820152606401610764565b600761ffff82161115610b535760405162461bcd60e51b815260206004820152601860248201527f4d696e74206174206d6f7374203720617420612074696d6500000000000000006044820152606401610764565b610457610b5f60085490565b11610b995760005b8161ffff16811015610b9757610b8533610b8060085490565b61191a565b80610b8f81612790565b915050610b67565b505b610457610ba560085490565b1115610c6557610bc061ffff82166671afd498d000006126f3565b341015610c355760405162461bcd60e51b815260206004820152602860248201527f496e73756666696369656e74207061796d656e742c20302e303332204554482060448201527f706572206974656d0000000000000000000000000000000000000000000000006064820152608401610764565b60005b8161ffff16811015610c6357610c5133610b8060085490565b80610c5b81612790565b915050610c38565b505b506001600a55565b6000610c7883610f9e565b8210610cec5760405162461bcd60e51b815260206004820152602b60248201527f455243373231456e756d657261626c653a206f776e657220696e646578206f7560448201527f74206f6620626f756e64730000000000000000000000000000000000000000006064820152608401610764565b506001600160a01b03919091166000908152600660209081526040808320938352929052205490565b600b546001600160a01b03163314610d6f5760405162461bcd60e51b815260206004820181905260248201527f4f776e61626c653a2063616c6c6572206973206e6f7420746865206f776e65726044820152606401610764565b6002600a541415610dc25760405162461bcd60e51b815260206004820152601f60248201527f5265656e7472616e637947756172643a207265656e7472616e742063616c6c006044820152606401610764565b6002600a5547610c65610ddd600b546001600160a01b031690565b82611a75565b61094483838360405180602001604052806000815250611142565b6000610e0960085490565b8210610e7d5760405162461bcd60e51b815260206004820152602c60248201527f455243373231456e756d657261626c653a20676c6f62616c20696e646578206f60448201527f7574206f6620626f756e647300000000000000000000000000000000000000006064820152608401610764565b60088281548110610e9057610e90612801565b90600052602060002001549050919050565b600b546001600160a01b03163314610efc5760405162461bcd60e51b815260206004820181905260248201527f4f776e61626c653a2063616c6c6572206973206e6f7420746865206f776e65726044820152606401610764565b8051610f0f90600d906020840190612231565b5050565b6000818152600260205260408120546001600160a01b0316806106575760405162461bcd60e51b815260206004820152602960248201527f4552433732313a206f776e657220717565727920666f72206e6f6e657869737460448201527f656e7420746f6b656e00000000000000000000000000000000000000000000006064820152608401610764565b60006001600160a01b03821661101c5760405162461bcd60e51b815260206004820152602a60248201527f4552433732313a2062616c616e636520717565727920666f7220746865207a6560448201527f726f2061646472657373000000000000000000000000000000000000000000006064820152608401610764565b506001600160a01b031660009081526003602052604090205490565b600b546001600160a01b031633146110925760405162461bcd60e51b815260206004820181905260248201527f4f776e61626c653a2063616c6c6572206973206e6f7420746865206f776e65726044820152606401610764565b61109c6000611b8e565b565b60606001805461066c90612755565b610f0f338383611bed565b600b546001600160a01b031633146111125760405162461bcd60e51b815260206004820181905260248201527f4f776e61626c653a2063616c6c6572206973206e6f7420746865206f776e65726044820152606401610764565b600b80547fffffffffffffffffffffff00ffffffffffffffffffffffffffffffffffffffff16600160a01b179055565b61114c338361163e565b6111be5760405162461bcd60e51b815260206004820152603160248201527f4552433732313a207472616e736665722063616c6c6572206973206e6f74206f60448201527f776e6572206e6f7220617070726f7665640000000000000000000000000000006064820152608401610764565b6111ca84848484611cbc565b50505050565b600e805461079690612755565b6000818152600260205260409020546060906001600160a01b031661126a5760405162461bcd60e51b815260206004820152602f60248201527f4552433732314d657461646174613a2055524920717565727920666f72206e6f60448201527f6e6578697374656e7420746f6b656e00000000000000000000000000000000006064820152608401610764565b600b54600160a01b900460ff1661130d57600c805461128890612755565b80601f01602080910402602001604051908101604052809291908181526020018280546112b490612755565b80156113015780601f106112d657610100808354040283529160200191611301565b820191906000526020600020905b8154815290600101906020018083116112e457829003601f168201915b50505050509050919050565b6000611317611d45565b905060008151116113375760405180602001604052806000815250611365565b8061134184611d54565b600e604051602001611355939291906125b4565b6040516020818303038152906040525b9392505050565b600b546001600160a01b031633146113c65760405162461bcd60e51b815260206004820181905260248201527f4f776e61626c653a2063616c6c6572206973206e6f7420746865206f776e65726044820152606401610764565b8051610f0f90600e906020840190612231565b600b546001600160a01b031633146114335760405162461bcd60e51b815260206004820181905260248201527f4f776e61626c653a2063616c6c6572206973206e6f7420746865206f776e65726044820152606401610764565b8051610f0f90600c906020840190612231565b600b546001600160a01b031633146114a05760405162461bcd60e51b815260206004820181905260248201527f4f776e61626c653a2063616c6c6572206973206e6f7420746865206f776e65726044820152606401610764565b6001600160a01b03811661151c5760405162461bcd60e51b815260206004820152602660248201527f4f776e61626c653a206e6577206f776e657220697320746865207a65726f206160448201527f64647265737300000000000000000000000000000000000000000000000000006064820152608401610764565b61152581611b8e565b50565b60006001600160e01b031982167f80ac58cd00000000000000000000000000000000000000000000000000000000148061158b57506001600160e01b031982167f5b5e139f00000000000000000000000000000000000000000000000000000000145b8061065757507f01ffc9a7000000000000000000000000000000000000000000000000000000006001600160e01b0319831614610657565b6000818152600460205260409020805473ffffffffffffffffffffffffffffffffffffffff19166001600160a01b038416908117909155819061160582610f13565b6001600160a01b03167f8c5be1e5ebec7d5bd14f71427d1e84f3dd0314c0f7b2291e5b200ac8c7c3b92560405160405180910390a45050565b6000818152600260205260408120546001600160a01b03166116b75760405162461bcd60e51b815260206004820152602c60248201527f4552433732313a206f70657261746f7220717565727920666f72206e6f6e657860448201526b34b9ba32b73a103a37b5b2b760a11b6064820152608401610764565b60006116c283610f13565b9050806001600160a01b0316846001600160a01b031614806116fd5750836001600160a01b03166116f2846106ef565b6001600160a01b0316145b8061172d57506001600160a01b0380821660009081526005602090815260408083209388168352929052205460ff165b949350505050565b826001600160a01b031661174882610f13565b6001600160a01b0316146117c45760405162461bcd60e51b815260206004820152602960248201527f4552433732313a207472616e73666572206f6620746f6b656e2074686174206960448201527f73206e6f74206f776e00000000000000000000000000000000000000000000006064820152608401610764565b6001600160a01b03821661183f5760405162461bcd60e51b8152602060048201526024808201527f4552433732313a207472616e7366657220746f20746865207a65726f2061646460448201527f72657373000000000000000000000000000000000000000000000000000000006064820152608401610764565b61184a838383611e86565b6118556000826115c3565b6001600160a01b038316600090815260036020526040812080546001929061187e908490612712565b90915550506001600160a01b03821660009081526003602052604081208054600192906118ac9084906126c7565b9091555050600081815260026020526040808220805473ffffffffffffffffffffffffffffffffffffffff19166001600160a01b0386811691821790925591518493918716917fddf252ad1be2c89b69c2b068fc378daa952ba7f163c4a11628f55a4df523b3ef91a4505050565b6001600160a01b0382166119705760405162461bcd60e51b815260206004820181905260248201527f4552433732313a206d696e7420746f20746865207a65726f20616464726573736044820152606401610764565b6000818152600260205260409020546001600160a01b0316156119d55760405162461bcd60e51b815260206004820152601c60248201527f4552433732313a20746f6b656e20616c7265616479206d696e746564000000006044820152606401610764565b6119e160008383611e86565b6001600160a01b0382166000908152600360205260408120805460019290611a0a9084906126c7565b9091555050600081815260026020526040808220805473ffffffffffffffffffffffffffffffffffffffff19166001600160a01b03861690811790915590518392907fddf252ad1be2c89b69c2b068fc378daa952ba7f163c4a11628f55a4df523b3ef908290a45050565b80471015611ac55760405162461bcd60e51b815260206004820152601d60248201527f416464726573733a20696e73756666696369656e742062616c616e63650000006044820152606401610764565b6000826001600160a01b03168260405160006040518083038185875af1925050503d8060008114611b12576040519150601f19603f3d011682016040523d82523d6000602084013e611b17565b606091505b50509050806109445760405162461bcd60e51b815260206004820152603a60248201527f416464726573733a20756e61626c6520746f2073656e642076616c75652c207260448201527f6563697069656e74206d617920686176652072657665727465640000000000006064820152608401610764565b600b80546001600160a01b0383811673ffffffffffffffffffffffffffffffffffffffff19831681179093556040519116919082907f8be0079c531659141344cd1fd0a4f28419497f9722a3daafe3b4186f6b6457e090600090a35050565b816001600160a01b0316836001600160a01b03161415611c4f5760405162461bcd60e51b815260206004820152601960248201527f4552433732313a20617070726f766520746f2063616c6c6572000000000000006044820152606401610764565b6001600160a01b03838116600081815260056020908152604080832094871680845294825291829020805460ff191686151590811790915591519182527f17307eab39ab6107e8899845ad3d59bd9653f200f220920489ca2b5937696c31910160405180910390a3505050565b611cc7848484611735565b611cd384848484611f3e565b6111ca5760405162461bcd60e51b815260206004820152603260248201527f4552433732313a207472616e7366657220746f206e6f6e20455243373231526560448201527f63656976657220696d706c656d656e74657200000000000000000000000000006064820152608401610764565b6060600d805461066c90612755565b606081611d9457505060408051808201909152600181527f3000000000000000000000000000000000000000000000000000000000000000602082015290565b8160005b8115611dbe5780611da881612790565b9150611db79050600a836126df565b9150611d98565b60008167ffffffffffffffff811115611dd957611dd9612817565b6040519080825280601f01601f191660200182016040528015611e03576020820181803683370190505b5090505b841561172d57611e18600183612712565b9150611e25600a866127ab565b611e309060306126c7565b60f81b818381518110611e4557611e45612801565b60200101907effffffffffffffffffffffffffffffffffffffffffffffffffffffffffffff1916908160001a905350611e7f600a866126df565b9450611e07565b6001600160a01b038316611ee157611edc81600880546000838152600960205260408120829055600182018355919091527ff3f7a9fe364faab93b216da50a3214154f22a0a2b415b23a84c8169e8b636ee30155565b611f04565b816001600160a01b0316836001600160a01b031614611f0457611f0483826120a1565b6001600160a01b038216611f1b576109448161213e565b826001600160a01b0316826001600160a01b0316146109445761094482826121ed565b60006001600160a01b0384163b1561209657604051630a85bd0160e11b81526001600160a01b0385169063150b7a0290611f82903390899088908890600401612678565b602060405180830381600087803b158015611f9c57600080fd5b505af1925050508015611fcc575060408051601f3d908101601f19168201909252611fc9918101906124e5565b60015b61207c573d808015611ffa576040519150601f19603f3d011682016040523d82523d6000602084013e611fff565b606091505b5080516120745760405162461bcd60e51b815260206004820152603260248201527f4552433732313a207472616e7366657220746f206e6f6e20455243373231526560448201527f63656976657220696d706c656d656e74657200000000000000000000000000006064820152608401610764565b805181602001fd5b6001600160e01b031916630a85bd0160e11b14905061172d565b506001949350505050565b600060016120ae84610f9e565b6120b89190612712565b60008381526007602052604090205490915080821461210b576001600160a01b03841660009081526006602090815260408083208584528252808320548484528184208190558352600790915290208190555b5060009182526007602090815260408084208490556001600160a01b039094168352600681528383209183525290812055565b60085460009061215090600190612712565b6000838152600960205260408120546008805493945090928490811061217857612178612801565b90600052602060002001549050806008838154811061219957612199612801565b60009182526020808320909101929092558281526009909152604080822084905585825281205560088054806121d1576121d16127eb565b6001900381819060005260206000200160009055905550505050565b60006121f883610f9e565b6001600160a01b039093166000908152600660209081526040808320868452825280832085905593825260079052919091209190915550565b82805461223d90612755565b90600052602060002090601f01602090048101928261225f57600085556122a5565b82601f1061227857805160ff19168380011785556122a5565b828001600101855582156122a5579182015b828111156122a557825182559160200191906001019061228a565b506122b19291506122b5565b5090565b5b808211156122b157600081556001016122b6565b600067ffffffffffffffff808411156122e5576122e5612817565b604051601f8501601f19908116603f0116810190828211818310171561230d5761230d612817565b8160405280935085815286868601111561232657600080fd5b858560208301376000602087830101525050509392505050565b80356001600160a01b038116811461235757600080fd5b919050565b60006020828403121561236e57600080fd5b61136582612340565b6000806040838503121561238a57600080fd5b61239383612340565b91506123a160208401612340565b90509250929050565b6000806000606084860312156123bf57600080fd5b6123c884612340565b92506123d660208501612340565b9150604084013590509250925092565b600080600080608085870312156123fc57600080fd5b61240585612340565b935061241360208601612340565b925060408501359150606085013567ffffffffffffffff81111561243657600080fd5b8501601f8101871361244757600080fd5b612456878235602084016122ca565b91505092959194509250565b6000806040838503121561247557600080fd5b61247e83612340565b91506020830135801515811461249357600080fd5b809150509250929050565b600080604083850312156124b157600080fd5b6124ba83612340565b946020939093013593505050565b6000602082840312156124da57600080fd5b81356113658161282d565b6000602082840312156124f757600080fd5b81516113658161282d565b60006020828403121561251457600080fd5b813567ffffffffffffffff81111561252b57600080fd5b8201601f8101841361253c57600080fd5b61172d848235602084016122ca565b60006020828403121561255d57600080fd5b813561ffff8116811461136557600080fd5b60006020828403121561258157600080fd5b5035919050565b600081518084526125a0816020860160208601612729565b601f01601f19169290920160200192915050565b6000845160206125c78285838a01612729565b8551918401916125da8184848a01612729565b8554920191600090600181811c90808316806125f757607f831692505b85831081141561261557634e487b7160e01b85526022600452602485fd5b808015612629576001811461263a57612667565b60ff19851688528388019550612667565b60008b81526020902060005b8581101561265f5781548a820152908401908801612646565b505083880195505b50939b9a5050505050505050505050565b60006001600160a01b038087168352808616602084015250836040830152608060608301526126aa6080830184612588565b9695505050505050565b6020815260006113656020830184612588565b600082198211156126da576126da6127bf565b500190565b6000826126ee576126ee6127d5565b500490565b600081600019048311821515161561270d5761270d6127bf565b500290565b600082821015612724576127246127bf565b500390565b60005b8381101561274457818101518382015260200161272c565b838111156111ca5750506000910152565b600181811c9082168061276957607f821691505b6020821081141561278a57634e487b7160e01b600052602260045260246000fd5b50919050565b60006000198214156127a4576127a46127bf565b5060010190565b6000826127ba576127ba6127d5565b500690565b634e487b7160e01b600052601160045260246000fd5b634e487b7160e01b600052601260045260246000fd5b634e487b7160e01b600052603160045260246000fd5b634e487b7160e01b600052603260045260246000fd5b634e487b7160e01b600052604160045260246000fd5b6001600160e01b03198116811461152557600080fdfea26469706673582212204d9101445fd2702b00df39a2ef0fa2cc4164004bf03fcfc6a60b8f256d875a3b64736f6c634300080700334f776e61626c653a2063616c6c6572206973206e6f7420746865206f776e6572",
  "linkReferences": {},
  "deployedLinkReferences": {}
}