{
  "_format": "hh-sol-artifact-1",
  "contractName": "FrankenPhunks",
  "sourceName": "contracts/FrankenPhunks.sol",
  "abi": [
    {
      "inputs": [
        {
          "internalType": "string",
          "name": "_name",
          "type": "string"
        },
        {
          "internalType": "string",
          "name": "_symbol",
          "type": "string"
        },
        {
          "internalType": "address",
          "name": "_multisig",
          "type": "address"
        },
        {
          "internalType": "address",
          "name": "_initdevWallet",
          "type": "address"
        },
        {
          "internalType": "string",
          "name": "_initNotRevealedUri",
          "type": "string"
        }
      ],
      "stateMutability": "nonpayable",
      "type": "constructor"
    },
    {
      "anonymous": false,
      "inputs": [
        {
          "indexed": true,
          "internalType": "address",
          "name": "owner",
          "type": "address"
        },
        {
          "indexed": true,
          "internalType": "address",
          "name": "approved",
          "type": "address"
        },
        {
          "indexed": true,
          "internalType": "uint256",
          "name": "tokenId",
          "type": "uint256"
        }
      ],
      "name": "Approval",
      "type": "event"
    },
    {
      "anonymous": false,
      "inputs": [
        {
          "indexed": true,
          "internalType": "address",
          "name": "owner",
          "type": "address"
        },
        {
          "indexed": true,
          "internalType": "address",
          "name": "operator",
          "type": "address"
        },
        {
          "indexed": false,
          "internalType": "bool",
          "name": "approved",
          "type": "bool"
        }
      ],
      "name": "ApprovalForAll",
      "type": "event"
    },
    {
      "anonymous": false,
      "inputs": [
        {
          "indexed": true,
          "internalType": "address",
          "name": "previousOwner",
          "type": "address"
        },
        {
          "indexed": true,
          "internalType": "address",
          "name": "newOwner",
          "type": "address"
        }
      ],
      "name": "OwnershipTransferred",
      "type": "event"
    },
    {
      "anonymous": false,
      "inputs": [
        {
          "indexed": true,
          "internalType": "address",
          "name": "from",
          "type": "address"
        },
        {
          "indexed": true,
          "internalType": "address",
          "name": "to",
          "type": "address"
        },
        {
          "indexed": true,
          "internalType": "uint256",
          "name": "tokenId",
          "type": "uint256"
        }
      ],
      "name": "Transfer",
      "type": "event"
    },
    {
      "inputs": [],
      "name": "FREE_MINTS",
      "outputs": [
        {
          "internalType": "uint16",
          "name": "",
          "type": "uint16"
        }
      ],
      "stateMutability": "view",
      "type": "function"
    },
    {
      "inputs": [],
      "name": "MAX_MULTIMINT",
      "outputs": [
        {
          "internalType": "uint8",
          "name": "",
          "type": "uint8"
        }
      ],
      "stateMutability": "view",
      "type": "function"
    },
    {
      "inputs": [],
      "name": "MAX_SUPPLY",
      "outputs": [
        {
          "internalType": "uint16",
          "name": "",
          "type": "uint16"
        }
      ],
      "stateMutability": "view",
      "type": "function"
    },
    {
      "inputs": [],
      "name": "PRICE",
      "outputs": [
        {
          "internalType": "uint256",
          "name": "",
          "type": "uint256"
        }
      ],
      "stateMutability": "view",
      "type": "function"
    },
    {
      "inputs": [
        {
          "internalType": "address",
          "name": "to",
          "type": "address"
        },
        {
          "internalType": "uint256",
          "name": "tokenId",
          "type": "uint256"
        }
      ],
      "name": "approve",
      "outputs": [],
      "stateMutability": "nonpayable",
      "type": "function"
    },
    {
      "inputs": [
        {
          "internalType": "address",
          "name": "owner",
          "type": "address"
        }
      ],
      "name": "balanceOf",
      "outputs": [
        {
          "internalType": "uint256",
          "name": "",
          "type": "uint256"
        }
      ],
      "stateMutability": "view",
      "type": "function"
    },
    {
      "inputs": [],
      "name": "baseExtension",
      "outputs": [
        {
          "internalType": "string",
          "name": "",
          "type": "string"
        }
      ],
      "stateMutability": "view",
      "type": "function"
    },
    {
      "inputs": [
        {
          "internalType": "uint256",
          "name": "tokenId",
          "type": "uint256"
        }
      ],
      "name": "getApproved",
      "outputs": [
        {
          "internalType": "address",
          "name": "",
          "type": "address"
        }
      ],
      "stateMutability": "view",
      "type": "function"
    },
    {
      "inputs": [],
      "name": "getBalance",
      "outputs": [
        {
          "internalType": "uint256",
          "name": "",
          "type": "uint256"
        }
      ],
      "stateMutability": "view",
      "type": "function"
    },
    {
      "inputs": [
        {
          "internalType": "address",
          "name": "owner",
          "type": "address"
        },
        {
          "internalType": "address",
          "name": "operator",
          "type": "address"
        }
      ],
      "name": "isApprovedForAll",
      "outputs": [
        {
          "internalType": "bool",
          "name": "",
          "type": "bool"
        }
      ],
      "stateMutability": "view",
      "type": "function"
    },
    {
      "inputs": [
        {
          "internalType": "uint16",
          "name": "count",
          "type": "uint16"
        }
      ],
      "name": "mint",
      "outputs": [],
      "stateMutability": "payable",
      "type": "function"
    },
    {
      "inputs": [],
      "name": "name",
      "outputs": [
        {
          "internalType": "string",
          "name": "",
          "type": "string"
        }
      ],
      "stateMutability": "view",
      "type": "function"
    },
    {
      "inputs": [],
      "name": "notRevealedUri",
      "outputs": [
        {
          "internalType": "string",
          "name": "",
          "type": "string"
        }
      ],
      "stateMutability": "view",
      "type": "function"
    },
    {
      "inputs": [],
      "name": "owner",
      "outputs": [
        {
          "internalType": "address",
          "name": "",
          "type": "address"
        }
      ],
      "stateMutability": "view",
      "type": "function"
    },
    {
      "inputs": [
        {
          "internalType": "uint256",
          "name": "tokenId",
          "type": "uint256"
        }
      ],
      "name": "ownerOf",
      "outputs": [
        {
          "internalType": "address",
          "name": "",
          "type": "address"
        }
      ],
      "stateMutability": "view",
      "type": "function"
    },
    {
      "inputs": [],
      "name": "renounceOwnership",
      "outputs": [],
      "stateMutability": "nonpayable",
      "type": "function"
    },
    {
      "inputs": [],
      "name": "reveal",
      "outputs": [],
      "stateMutability": "nonpayable",
      "type": "function"
    },
    {
      "inputs": [],
      "name": "revealed",
      "outputs": [
        {
          "internalType": "bool",
          "name": "",
          "type": "bool"
        }
      ],
      "stateMutability": "view",
      "type": "function"
    },
    {
      "inputs": [
        {
          "internalType": "address",
          "name": "from",
          "type": "address"
        },
        {
          "internalType": "address",
          "name": "to",
          "type": "address"
        },
        {
          "internalType": "uint256",
          "name": "tokenId",
          "type": "uint256"
        }
      ],
      "name": "safeTransferFrom",
      "outputs": [],
      "stateMutability": "nonpayable",
      "type": "function"
    },
    {
      "inputs": [
        {
          "internalType": "address",
          "name": "from",
          "type": "address"
        },
        {
          "internalType": "address",
          "name": "to",
          "type": "address"
        },
        {
          "internalType": "uint256",
          "name": "tokenId",
          "type": "uint256"
        },
        {
          "internalType": "bytes",
          "name": "_data",
          "type": "bytes"
        }
      ],
      "name": "safeTransferFrom",
      "outputs": [],
      "stateMutability": "nonpayable",
      "type": "function"
    },
    {
      "inputs": [
        {
          "internalType": "address",
          "name": "operator",
          "type": "address"
        },
        {
          "internalType": "bool",
          "name": "approved",
          "type": "bool"
        }
      ],
      "name": "setApprovalForAll",
      "outputs": [],
      "stateMutability": "nonpayable",
      "type": "function"
    },
    {
      "inputs": [
        {
          "internalType": "string",
          "name": "_newBaseExtension",
          "type": "string"
        }
      ],
      "name": "setBaseExtension",
      "outputs": [],
      "stateMutability": "nonpayable",
      "type": "function"
    },
    {
      "inputs": [
        {
          "internalType": "string",
          "name": "_newBaseURI",
          "type": "string"
        }
      ],
      "name": "setBaseURI",
      "outputs": [],
      "stateMutability": "nonpayable",
      "type": "function"
    },
    {
      "inputs": [
        {
          "internalType": "address",
          "name": "_newDevWallet",
          "type": "address"
        }
      ],
      "name": "setDevWallet",
      "outputs": [],
      "stateMutability": "view",
      "type": "function"
    },
    {
      "inputs": [
        {
          "internalType": "string",
          "name": "_notRevealedURI",
          "type": "string"
        }
      ],
      "name": "setNotRevealedURI",
      "outputs": [],
      "stateMutability": "nonpayable",
      "type": "function"
    },
    {
      "inputs": [
        {
          "internalType": "bytes4",
          "name": "interfaceId",
          "type": "bytes4"
        }
      ],
      "name": "supportsInterface",
      "outputs": [
        {
          "internalType": "bool",
          "name": "",
          "type": "bool"
        }
      ],
      "stateMutability": "view",
      "type": "function"
    },
    {
      "inputs": [],
      "name": "symbol",
      "outputs": [
        {
          "internalType": "string",
          "name": "",
          "type": "string"
        }
      ],
      "stateMutability": "view",
      "type": "function"
    },
    {
      "inputs": [
        {
          "internalType": "uint256",
          "name": "index",
          "type": "uint256"
        }
      ],
      "name": "tokenByIndex",
      "outputs": [
        {
          "internalType": "uint256",
          "name": "",
          "type": "uint256"
        }
      ],
      "stateMutability": "view",
      "type": "function"
    },
    {
      "inputs": [
        {
          "internalType": "address",
          "name": "owner",
          "type": "address"
        },
        {
          "internalType": "uint256",
          "name": "index",
          "type": "uint256"
        }
      ],
      "name": "tokenOfOwnerByIndex",
      "outputs": [
        {
          "internalType": "uint256",
          "name": "",
          "type": "uint256"
        }
      ],
      "stateMutability": "view",
      "type": "function"
    },
    {
      "inputs": [
        {
          "internalType": "uint256",
          "name": "_tokenId",
          "type": "uint256"
        }
      ],
      "name": "tokenURI",
      "outputs": [
        {
          "internalType": "string",
          "name": "",
          "type": "string"
        }
      ],
      "stateMutability": "view",
      "type": "function"
    },
    {
      "inputs": [],
      "name": "totalSupply",
      "outputs": [
        {
          "internalType": "uint256",
          "name": "",
          "type": "uint256"
        }
      ],
      "stateMutability": "view",
      "type": "function"
    },
    {
      "inputs": [
        {
          "internalType": "address",
          "name": "from",
          "type": "address"
        },
        {
          "internalType": "address",
          "name": "to",
          "type": "address"
        },
        {
          "internalType": "uint256",
          "name": "tokenId",
          "type": "uint256"
        }
      ],
      "name": "transferFrom",
      "outputs": [],
      "stateMutability": "nonpayable",
      "type": "function"
    },
    {
      "inputs": [
        {
          "internalType": "address",
          "name": "newOwner",
          "type": "address"
        }
      ],
      "name": "transferOwnership",
      "outputs": [],
      "stateMutability": "nonpayable",
      "type": "function"
    },
    {
      "inputs": [],
      "name": "withdraw",
      "outputs": [],
      "stateMutability": "payable",
      "type": "function"
    },
    {
      "stateMutability": "payable",
      "type": "receive"
    }
  ],
  "bytecode": "0x600b805460ff60a01b1916905560c06040526005608081905264173539b7b760d91b60a09081526200003591600e919062000263565b503480156200004357600080fd5b5060405162002ed338038062002ed38339810160408190526200006691620003dd565b8451859085906200007f90600090602085019062000263565b5080516200009590600190602084019062000263565b50506001600a5550620000a833620000e9565b620000b3816200013b565b620000be83620001a3565b50600f80546001600160a01b0319166001600160a01b039290921691909117905550620004e7915050565b600b80546001600160a01b038381166001600160a01b0319831681179093556040519116919082907f8be0079c531659141344cd1fd0a4f28419497f9722a3daafe3b4186f6b6457e090600090a35050565b600b546001600160a01b031633146200018a5760405162461bcd60e51b8152602060048201819052602482015260008051602062002eb383398151915260448201526064015b60405180910390fd5b80516200019f90600c90602084019062000263565b5050565b600b546001600160a01b03163314620001ee5760405162461bcd60e51b8152602060048201819052602482015260008051602062002eb3833981519152604482015260640162000181565b6001600160a01b038116620002555760405162461bcd60e51b815260206004820152602660248201527f4f776e61626c653a206e6577206f776e657220697320746865207a65726f206160448201526564647265737360d01b606482015260840162000181565b6200026081620000e9565b50565b828054620002719062000494565b90600052602060002090601f016020900481019282620002955760008555620002e0565b82601f10620002b057805160ff1916838001178555620002e0565b82800160010185558215620002e0579182015b82811115620002e0578251825591602001919060010190620002c3565b50620002ee929150620002f2565b5090565b5b80821115620002ee5760008155600101620002f3565b80516001600160a01b03811681146200032157600080fd5b919050565b600082601f8301126200033857600080fd5b81516001600160401b0380821115620003555762000355620004d1565b604051601f8301601f19908116603f01168101908282118183101715620003805762000380620004d1565b816040528381526020925086838588010111156200039d57600080fd5b600091505b83821015620003c15785820183015181830184015290820190620003a2565b83821115620003d35760008385830101525b9695505050505050565b600080600080600060a08688031215620003f657600080fd5b85516001600160401b03808211156200040e57600080fd5b6200041c89838a0162000326565b965060208801519150808211156200043357600080fd5b6200044189838a0162000326565b9550620004516040890162000309565b9450620004616060890162000309565b935060808801519150808211156200047857600080fd5b50620004878882890162000326565b9150509295509295909350565b600181811c90821680620004a957607f821691505b60208210811415620004cb57634e487b7160e01b600052602260045260246000fd5b50919050565b634e487b7160e01b600052604160045260246000fd5b6129bc80620004f76000396000f3fe60806040526004361061021d5760003560e01c80636352211e1161011d578063a475b5dd116100b0578063c87b56dd1161007f578063e985e9c511610064578063e985e9c5146105d6578063f2c4ce1e1461061f578063f2fde38b1461063f57600080fd5b8063c87b56dd14610596578063da3ef23f146105b657600080fd5b8063a475b5dd14610525578063b88d4fde1461053a578063b8fc10511461055a578063c66828621461058157600080fd5b80638d859f3e116100ec5780638d859f3e146104b75780638da5cb5b146104d257806395d89b41146104f0578063a22cb4651461050557600080fd5b80636352211e1461044c57806370a082311461046c578063715018a61461048c578063764267b6146104a157600080fd5b806323b872dd116101b05780633ccfd60b1161017f5780634f6ccce7116101645780634f6ccce7146103eb578063518302271461040b57806355f804b31461042c57600080fd5b80633ccfd60b146103c357806342842e0e146103cb57600080fd5b806323b872dd1461034757806323cf0a22146103675780632f745c591461037a57806332cb6b0c1461039a57600080fd5b8063095ea7b3116101ec578063095ea7b3146102cd57806312065fe0146102ef57806318160ddd146103125780631f53ac021461032757600080fd5b806301ffc9a71461022957806306fdde031461025e578063081812fc14610280578063081c8c44146102b857600080fd5b3661022457005b600080fd5b34801561023557600080fd5b5061024961024436600461260b565b61065f565b60405190151581526020015b60405180910390f35b34801561026a57600080fd5b506102736106a3565b60405161025591906127f7565b34801561028c57600080fd5b506102a061029b3660046126b2565b610735565b6040516001600160a01b039091168152602001610255565b3480156102c457600080fd5b506102736107cf565b3480156102d957600080fd5b506102ed6102e83660046125e1565b61085d565b005b3480156102fb57600080fd5b5061030461098f565b604051908152602001610255565b34801561031e57600080fd5b50600854610304565b34801561033357600080fd5b506102ed61034236600461249f565b6109f1565b34801561035357600080fd5b506102ed6103623660046124ed565b610a4e565b6102ed61037536600461268e565b610ad5565b34801561038657600080fd5b506103046103953660046125e1565b610cbb565b3480156103a657600080fd5b506103b0610d0581565b60405161ffff9091168152602001610255565b6102ed610d63565b3480156103d757600080fd5b506102ed6103e63660046124ed565b610e92565b3480156103f757600080fd5b506103046104063660046126b2565b610ead565b34801561041757600080fd5b50600b5461024990600160a01b900460ff1681565b34801561043857600080fd5b506102ed610447366004612645565b610f51565b34801561045857600080fd5b506102a06104673660046126b2565b610fc2565b34801561047857600080fd5b5061030461048736600461249f565b61104d565b34801561049857600080fd5b506102ed6110e7565b3480156104ad57600080fd5b506103b061045781565b3480156104c357600080fd5b506103046671afd498d0000081565b3480156104de57600080fd5b50600b546001600160a01b03166102a0565b3480156104fc57600080fd5b5061027361114d565b34801561051157600080fd5b506102ed6105203660046125a5565b61115c565b34801561053157600080fd5b506102ed611167565b34801561054657600080fd5b506102ed610555366004612529565b6111f1565b34801561056657600080fd5b5061056f600781565b60405160ff9091168152602001610255565b34801561058d57600080fd5b5061027361127f565b3480156105a257600080fd5b506102736105b13660046126b2565b61128c565b3480156105c257600080fd5b506102ed6105d1366004612645565b61141b565b3480156105e257600080fd5b506102496105f13660046124ba565b6001600160a01b03918216600090815260056020908152604080832093909416825291909152205460ff1690565b34801561062b57600080fd5b506102ed61063a366004612645565b611488565b34801561064b57600080fd5b506102ed61065a36600461249f565b6114f5565b60006001600160e01b031982167f780e9d6300000000000000000000000000000000000000000000000000000000148061069d575061069d826115d4565b92915050565b6060600080546106b290612898565b80601f01602080910402602001604051908101604052809291908181526020018280546106de90612898565b801561072b5780601f106107005761010080835404028352916020019161072b565b820191906000526020600020905b81548152906001019060200180831161070e57829003601f168201915b5050505050905090565b6000818152600260205260408120546001600160a01b03166107b35760405162461bcd60e51b815260206004820152602c60248201527f4552433732313a20617070726f76656420717565727920666f72206e6f6e657860448201526b34b9ba32b73a103a37b5b2b760a11b60648201526084015b60405180910390fd5b506000908152600460205260409020546001600160a01b031690565b600c80546107dc90612898565b80601f016020809104026020016040519081016040528092919081815260200182805461080890612898565b80156108555780601f1061082a57610100808354040283529160200191610855565b820191906000526020600020905b81548152906001019060200180831161083857829003601f168201915b505050505081565b600061086882610fc2565b9050806001600160a01b0316836001600160a01b031614156108f25760405162461bcd60e51b815260206004820152602160248201527f4552433732313a20617070726f76616c20746f2063757272656e74206f776e6560448201527f720000000000000000000000000000000000000000000000000000000000000060648201526084016107aa565b336001600160a01b038216148061090e575061090e81336105f1565b6109805760405162461bcd60e51b815260206004820152603860248201527f4552433732313a20617070726f76652063616c6c6572206973206e6f74206f7760448201527f6e6572206e6f7220617070726f76656420666f7220616c6c000000000000000060648201526084016107aa565b61098a838361166f565b505050565b600b546000906001600160a01b031633146109ec5760405162461bcd60e51b815260206004820181905260248201527f4f776e61626c653a2063616c6c6572206973206e6f7420746865206f776e657260448201526064016107aa565b504790565b600b546001600160a01b03163314610a4b5760405162461bcd60e51b815260206004820181905260248201527f4f776e61626c653a2063616c6c6572206973206e6f7420746865206f776e657260448201526064016107aa565b50565b610a5833826116ea565b610aca5760405162461bcd60e51b815260206004820152603160248201527f4552433732313a207472616e736665722063616c6c6572206973206e6f74206f60448201527f776e6572206e6f7220617070726f76656400000000000000000000000000000060648201526084016107aa565b61098a8383836117e1565b6002600a541415610b285760405162461bcd60e51b815260206004820152601f60248201527f5265656e7472616e637947756172643a207265656e7472616e742063616c6c0060448201526064016107aa565b6002600a55610d05600161ffff8316610b4060085490565b610b4a919061280a565b610b549190612855565b10610ba15760405162461bcd60e51b815260206004820152601260248201527f45786365656473206d617820737570706c79000000000000000000000000000060448201526064016107aa565b610457610bad60085490565b11610be75760005b8161ffff16811015610be557610bd333610bce60085490565b6119c6565b80610bdd816128d3565b915050610bb5565b505b610457610bf360085490565b1115610cb357610c0e61ffff82166671afd498d00000612836565b341015610c835760405162461bcd60e51b815260206004820152602860248201527f496e73756666696369656e74207061796d656e742c20302e303332204554482060448201527f706572206974656d00000000000000000000000000000000000000000000000060648201526084016107aa565b60005b8161ffff16811015610cb157610c9f33610bce60085490565b80610ca9816128d3565b915050610c86565b505b506001600a55565b6000610cc68361104d565b8210610d3a5760405162461bcd60e51b815260206004820152602b60248201527f455243373231456e756d657261626c653a206f776e657220696e646578206f7560448201527f74206f6620626f756e647300000000000000000000000000000000000000000060648201526084016107aa565b506001600160a01b03919091166000908152600660209081526040808320938352929052205490565b600b546001600160a01b03163314610dbd5760405162461bcd60e51b815260206004820181905260248201527f4f776e61626c653a2063616c6c6572206973206e6f7420746865206f776e657260448201526064016107aa565b6002600a541415610e105760405162461bcd60e51b815260206004820152601f60248201527f5265656e7472616e637947756172643a207265656e7472616e742063616c6c0060448201526064016107aa565b6002600a554760006064610e2583600f612836565b610e2f9190612822565b600f54909150610e47906001600160a01b0316611b21565b610e61610e5c600b546001600160a01b031690565b611b21565b600f54610e77906001600160a01b031682611b97565b610cb1610e8c600b546001600160a01b031690565b47611b97565b61098a838383604051806020016040528060008152506111f1565b6000610eb860085490565b8210610f2c5760405162461bcd60e51b815260206004820152602c60248201527f455243373231456e756d657261626c653a20676c6f62616c20696e646578206f60448201527f7574206f6620626f756e6473000000000000000000000000000000000000000060648201526084016107aa565b60088281548110610f3f57610f3f612944565b90600052602060002001549050919050565b600b546001600160a01b03163314610fab5760405162461bcd60e51b815260206004820181905260248201527f4f776e61626c653a2063616c6c6572206973206e6f7420746865206f776e657260448201526064016107aa565b8051610fbe90600d906020840190612374565b5050565b6000818152600260205260408120546001600160a01b03168061069d5760405162461bcd60e51b815260206004820152602960248201527f4552433732313a206f776e657220717565727920666f72206e6f6e657869737460448201527f656e7420746f6b656e000000000000000000000000000000000000000000000060648201526084016107aa565b60006001600160a01b0382166110cb5760405162461bcd60e51b815260206004820152602a60248201527f4552433732313a2062616c616e636520717565727920666f7220746865207a6560448201527f726f20616464726573730000000000000000000000000000000000000000000060648201526084016107aa565b506001600160a01b031660009081526003602052604090205490565b600b546001600160a01b031633146111415760405162461bcd60e51b815260206004820181905260248201527f4f776e61626c653a2063616c6c6572206973206e6f7420746865206f776e657260448201526064016107aa565b61114b6000611cb0565b565b6060600180546106b290612898565b610fbe338383611d0f565b600b546001600160a01b031633146111c15760405162461bcd60e51b815260206004820181905260248201527f4f776e61626c653a2063616c6c6572206973206e6f7420746865206f776e657260448201526064016107aa565b600b80547fffffffffffffffffffffff00ffffffffffffffffffffffffffffffffffffffff16600160a01b179055565b6111fb33836116ea565b61126d5760405162461bcd60e51b815260206004820152603160248201527f4552433732313a207472616e736665722063616c6c6572206973206e6f74206f60448201527f776e6572206e6f7220617070726f76656400000000000000000000000000000060648201526084016107aa565b61127984848484611dde565b50505050565b600e80546107dc90612898565b6000818152600260205260409020546060906001600160a01b03166113195760405162461bcd60e51b815260206004820152602f60248201527f4552433732314d657461646174613a2055524920717565727920666f72206e6f60448201527f6e6578697374656e7420746f6b656e000000000000000000000000000000000060648201526084016107aa565b600b54600160a01b900460ff166113bc57600c805461133790612898565b80601f016020809104026020016040519081016040528092919081815260200182805461136390612898565b80156113b05780601f10611385576101008083540402835291602001916113b0565b820191906000526020600020905b81548152906001019060200180831161139357829003601f168201915b50505050509050919050565b60006113c6611e67565b905060008151116113e65760405180602001604052806000815250611414565b806113f084611e76565b600e604051602001611404939291906126f7565b6040516020818303038152906040525b9392505050565b600b546001600160a01b031633146114755760405162461bcd60e51b815260206004820181905260248201527f4f776e61626c653a2063616c6c6572206973206e6f7420746865206f776e657260448201526064016107aa565b8051610fbe90600e906020840190612374565b600b546001600160a01b031633146114e25760405162461bcd60e51b815260206004820181905260248201527f4f776e61626c653a2063616c6c6572206973206e6f7420746865206f776e657260448201526064016107aa565b8051610fbe90600c906020840190612374565b600b546001600160a01b0316331461154f5760405162461bcd60e51b815260206004820181905260248201527f4f776e61626c653a2063616c6c6572206973206e6f7420746865206f776e657260448201526064016107aa565b6001600160a01b0381166115cb5760405162461bcd60e51b815260206004820152602660248201527f4f776e61626c653a206e6577206f776e657220697320746865207a65726f206160448201527f646472657373000000000000000000000000000000000000000000000000000060648201526084016107aa565b610a4b81611cb0565b60006001600160e01b031982167f80ac58cd00000000000000000000000000000000000000000000000000000000148061163757506001600160e01b031982167f5b5e139f00000000000000000000000000000000000000000000000000000000145b8061069d57507f01ffc9a7000000000000000000000000000000000000000000000000000000006001600160e01b031983161461069d565b6000818152600460205260409020805473ffffffffffffffffffffffffffffffffffffffff19166001600160a01b03841690811790915581906116b182610fc2565b6001600160a01b03167f8c5be1e5ebec7d5bd14f71427d1e84f3dd0314c0f7b2291e5b200ac8c7c3b92560405160405180910390a45050565b6000818152600260205260408120546001600160a01b03166117635760405162461bcd60e51b815260206004820152602c60248201527f4552433732313a206f70657261746f7220717565727920666f72206e6f6e657860448201526b34b9ba32b73a103a37b5b2b760a11b60648201526084016107aa565b600061176e83610fc2565b9050806001600160a01b0316846001600160a01b031614806117a95750836001600160a01b031661179e84610735565b6001600160a01b0316145b806117d957506001600160a01b0380821660009081526005602090815260408083209388168352929052205460ff165b949350505050565b826001600160a01b03166117f482610fc2565b6001600160a01b0316146118705760405162461bcd60e51b815260206004820152602960248201527f4552433732313a207472616e73666572206f6620746f6b656e2074686174206960448201527f73206e6f74206f776e000000000000000000000000000000000000000000000060648201526084016107aa565b6001600160a01b0382166118eb5760405162461bcd60e51b8152602060048201526024808201527f4552433732313a207472616e7366657220746f20746865207a65726f2061646460448201527f726573730000000000000000000000000000000000000000000000000000000060648201526084016107aa565b6118f6838383611fa8565b61190160008261166f565b6001600160a01b038316600090815260036020526040812080546001929061192a908490612855565b90915550506001600160a01b038216600090815260036020526040812080546001929061195890849061280a565b9091555050600081815260026020526040808220805473ffffffffffffffffffffffffffffffffffffffff19166001600160a01b0386811691821790925591518493918716917fddf252ad1be2c89b69c2b068fc378daa952ba7f163c4a11628f55a4df523b3ef91a4505050565b6001600160a01b038216611a1c5760405162461bcd60e51b815260206004820181905260248201527f4552433732313a206d696e7420746f20746865207a65726f206164647265737360448201526064016107aa565b6000818152600260205260409020546001600160a01b031615611a815760405162461bcd60e51b815260206004820152601c60248201527f4552433732313a20746f6b656e20616c7265616479206d696e7465640000000060448201526064016107aa565b611a8d60008383611fa8565b6001600160a01b0382166000908152600360205260408120805460019290611ab690849061280a565b9091555050600081815260026020526040808220805473ffffffffffffffffffffffffffffffffffffffff19166001600160a01b03861690811790915590518392907fddf252ad1be2c89b69c2b068fc378daa952ba7f163c4a11628f55a4df523b3ef908290a45050565b6040516001600160a01b0382166024820152610a4b9060440160408051601f198184030181529190526020810180517bffffffffffffffffffffffffffffffffffffffffffffffffffffffff167f2c2ecbc200000000000000000000000000000000000000000000000000000000179052612060565b80471015611be75760405162461bcd60e51b815260206004820152601d60248201527f416464726573733a20696e73756666696369656e742062616c616e636500000060448201526064016107aa565b6000826001600160a01b03168260405160006040518083038185875af1925050503d8060008114611c34576040519150601f19603f3d011682016040523d82523d6000602084013e611c39565b606091505b505090508061098a5760405162461bcd60e51b815260206004820152603a60248201527f416464726573733a20756e61626c6520746f2073656e642076616c75652c207260448201527f6563697069656e74206d6179206861766520726576657274656400000000000060648201526084016107aa565b600b80546001600160a01b0383811673ffffffffffffffffffffffffffffffffffffffff19831681179093556040519116919082907f8be0079c531659141344cd1fd0a4f28419497f9722a3daafe3b4186f6b6457e090600090a35050565b816001600160a01b0316836001600160a01b03161415611d715760405162461bcd60e51b815260206004820152601960248201527f4552433732313a20617070726f766520746f2063616c6c65720000000000000060448201526064016107aa565b6001600160a01b03838116600081815260056020908152604080832094871680845294825291829020805460ff191686151590811790915591519182527f17307eab39ab6107e8899845ad3d59bd9653f200f220920489ca2b5937696c31910160405180910390a3505050565b611de98484846117e1565b611df584848484612081565b6112795760405162461bcd60e51b815260206004820152603260248201527f4552433732313a207472616e7366657220746f206e6f6e20455243373231526560448201527f63656976657220696d706c656d656e746572000000000000000000000000000060648201526084016107aa565b6060600d80546106b290612898565b606081611eb657505060408051808201909152600181527f3000000000000000000000000000000000000000000000000000000000000000602082015290565b8160005b8115611ee05780611eca816128d3565b9150611ed99050600a83612822565b9150611eba565b60008167ffffffffffffffff811115611efb57611efb61295a565b6040519080825280601f01601f191660200182016040528015611f25576020820181803683370190505b5090505b84156117d957611f3a600183612855565b9150611f47600a866128ee565b611f5290603061280a565b60f81b818381518110611f6757611f67612944565b60200101907effffffffffffffffffffffffffffffffffffffffffffffffffffffffffffff1916908160001a905350611fa1600a86612822565b9450611f29565b6001600160a01b03831661200357611ffe81600880546000838152600960205260408120829055600182018355919091527ff3f7a9fe364faab93b216da50a3214154f22a0a2b415b23a84c8169e8b636ee30155565b612026565b816001600160a01b0316836001600160a01b0316146120265761202683826121e4565b6001600160a01b03821661203d5761098a81612281565b826001600160a01b0316826001600160a01b03161461098a5761098a8282612330565b80516a636f6e736f6c652e6c6f67602083016000808483855afa5050505050565b60006001600160a01b0384163b156121d957604051630a85bd0160e11b81526001600160a01b0385169063150b7a02906120c59033908990889088906004016127bb565b602060405180830381600087803b1580156120df57600080fd5b505af192505050801561210f575060408051601f3d908101601f1916820190925261210c91810190612628565b60015b6121bf573d80801561213d576040519150601f19603f3d011682016040523d82523d6000602084013e612142565b606091505b5080516121b75760405162461bcd60e51b815260206004820152603260248201527f4552433732313a207472616e7366657220746f206e6f6e20455243373231526560448201527f63656976657220696d706c656d656e746572000000000000000000000000000060648201526084016107aa565b805181602001fd5b6001600160e01b031916630a85bd0160e11b1490506117d9565b506001949350505050565b600060016121f18461104d565b6121fb9190612855565b60008381526007602052604090205490915080821461224e576001600160a01b03841660009081526006602090815260408083208584528252808320548484528184208190558352600790915290208190555b5060009182526007602090815260408084208490556001600160a01b039094168352600681528383209183525290812055565b60085460009061229390600190612855565b600083815260096020526040812054600880549394509092849081106122bb576122bb612944565b9060005260206000200154905080600883815481106122dc576122dc612944565b60009182526020808320909101929092558281526009909152604080822084905585825281205560088054806123145761231461292e565b6001900381819060005260206000200160009055905550505050565b600061233b8361104d565b6001600160a01b039093166000908152600660209081526040808320868452825280832085905593825260079052919091209190915550565b82805461238090612898565b90600052602060002090601f0160209004810192826123a257600085556123e8565b82601f106123bb57805160ff19168380011785556123e8565b828001600101855582156123e8579182015b828111156123e85782518255916020019190600101906123cd565b506123f49291506123f8565b5090565b5b808211156123f457600081556001016123f9565b600067ffffffffffffffff808411156124285761242861295a565b604051601f8501601f19908116603f011681019082821181831017156124505761245061295a565b8160405280935085815286868601111561246957600080fd5b858560208301376000602087830101525050509392505050565b80356001600160a01b038116811461249a57600080fd5b919050565b6000602082840312156124b157600080fd5b61141482612483565b600080604083850312156124cd57600080fd5b6124d683612483565b91506124e460208401612483565b90509250929050565b60008060006060848603121561250257600080fd5b61250b84612483565b925061251960208501612483565b9150604084013590509250925092565b6000806000806080858703121561253f57600080fd5b61254885612483565b935061255660208601612483565b925060408501359150606085013567ffffffffffffffff81111561257957600080fd5b8501601f8101871361258a57600080fd5b6125998782356020840161240d565b91505092959194509250565b600080604083850312156125b857600080fd5b6125c183612483565b9150602083013580151581146125d657600080fd5b809150509250929050565b600080604083850312156125f457600080fd5b6125fd83612483565b946020939093013593505050565b60006020828403121561261d57600080fd5b813561141481612970565b60006020828403121561263a57600080fd5b815161141481612970565b60006020828403121561265757600080fd5b813567ffffffffffffffff81111561266e57600080fd5b8201601f8101841361267f57600080fd5b6117d98482356020840161240d565b6000602082840312156126a057600080fd5b813561ffff8116811461141457600080fd5b6000602082840312156126c457600080fd5b5035919050565b600081518084526126e381602086016020860161286c565b601f01601f19169290920160200192915050565b60008451602061270a8285838a0161286c565b85519184019161271d8184848a0161286c565b8554920191600090600181811c908083168061273a57607f831692505b85831081141561275857634e487b7160e01b85526022600452602485fd5b80801561276c576001811461277d576127aa565b60ff198516885283880195506127aa565b60008b81526020902060005b858110156127a25781548a820152908401908801612789565b505083880195505b50939b9a5050505050505050505050565b60006001600160a01b038087168352808616602084015250836040830152608060608301526127ed60808301846126cb565b9695505050505050565b60208152600061141460208301846126cb565b6000821982111561281d5761281d612902565b500190565b60008261283157612831612918565b500490565b600081600019048311821515161561285057612850612902565b500290565b60008282101561286757612867612902565b500390565b60005b8381101561288757818101518382015260200161286f565b838111156112795750506000910152565b600181811c908216806128ac57607f821691505b602082108114156128cd57634e487b7160e01b600052602260045260246000fd5b50919050565b60006000198214156128e7576128e7612902565b5060010190565b6000826128fd576128fd612918565b500690565b634e487b7160e01b600052601160045260246000fd5b634e487b7160e01b600052601260045260246000fd5b634e487b7160e01b600052603160045260246000fd5b634e487b7160e01b600052603260045260246000fd5b634e487b7160e01b600052604160045260246000fd5b6001600160e01b031981168114610a4b57600080fdfea26469706673582212209709370d22ecb9673062e10b75a4789e9280d3b0e66a8f717ed9b9659b0748f564736f6c634300080700334f776e61626c653a2063616c6c6572206973206e6f7420746865206f776e6572",
  "linkReferences": {},
  "deployedLinkReferences": {}
}